{
  "abi": [
    {
      "inputs": [
        {
          "internalType": "contract IERC20",
          "name": "_token",
          "type": "address"
        }
      ],
      "stateMutability": "nonpayable",
      "type": "constructor"
    },
    {
      "inputs": [
        {
          "internalType": "string",
          "name": "message",
          "type": "string"
        }
      ],
      "name": "IllegalState",
      "type": "error"
    },
    {
      "inputs": [
        {
          "internalType": "address",
          "name": "token",
          "type": "address"
        }
      ],
      "name": "expectDecimals",
      "outputs": [
        {
          "internalType": "uint256",
          "name": "",
          "type": "uint256"
        }
      ],
      "stateMutability": "view",
      "type": "function"
    },
    {
      "inputs": [
        {
          "internalType": "address",
          "name": "spender",
          "type": "address"
        },
        {
          "internalType": "uint256",
          "name": "value",
          "type": "uint256"
        }
      ],
      "name": "safeApprove",
      "outputs": [],
      "stateMutability": "nonpayable",
      "type": "function"
    },
    {
      "inputs": [
        {
          "internalType": "address",
          "name": "receiver",
          "type": "address"
        },
        {
          "internalType": "uint256",
          "name": "amount",
          "type": "uint256"
        }
      ],
      "name": "safeTransfer",
      "outputs": [],
      "stateMutability": "nonpayable",
      "type": "function"
    },
    {
      "inputs": [
        {
          "internalType": "address",
          "name": "owner",
          "type": "address"
        },
        {
          "internalType": "address",
          "name": "receiver",
          "type": "address"
        },
        {
          "internalType": "uint256",
          "name": "amount",
          "type": "uint256"
        }
      ],
      "name": "safeTransferFrom",
      "outputs": [],
      "stateMutability": "nonpayable",
      "type": "function"
    },
    {
      "inputs": [],
      "name": "token",
      "outputs": [
        {
          "internalType": "contract IERC20",
          "name": "",
          "type": "address"
        }
      ],
      "stateMutability": "view",
      "type": "function"
    }
  ],
  "bytecode": {
    "object": "0x608060405234801561001057600080fd5b5060405161057838038061057883398101604081905261002f91610054565b600080546001600160a01b0319166001600160a01b0392909216919091179055610084565b60006020828403121561006657600080fd5b81516001600160a01b038116811461007d57600080fd5b9392505050565b6104e5806100936000396000f3fe608060405234801561001057600080fd5b50600436106100575760003560e01c8063423f6cef1461005c57806342842e0e1461007157806363f6114c14610084578063fbc6d1cb146100aa578063fc0c546a146100bd575b600080fd5b61006f61006a366004610427565b6100e8565b005b61006f61007f366004610451565b610103565b61009761009236600461048d565b610120565b6040519081526020015b60405180910390f35b61006f6100b8366004610427565b610131565b6000546100d0906001600160a01b031681565b6040516001600160a01b0390911681526020016100a1565b6000546100ff906001600160a01b03168383610148565b5050565b60005461011b906001600160a01b03168484846101db565b505050565b600061012b82610283565b92915050565b6000546100ff906001600160a01b03168383610305565b600060405163a9059cbb60e01b81526001600160a01b03841660048201528260248201526000806044836000895af19150506101838161038d565b6101d55760405163c50656df60e01b815260206004820152601c60248201527f4578706563746564207472616e7366657220746f20737563636565640000000060448201526064015b60405180910390fd5b50505050565b60006040516323b872dd60e01b81526001600160a01b03851660048201526001600160a01b038416602482015282604482015260008060648360008a5af19150506102258161038d565b61027c5760405163c50656df60e01b815260206004820152602160248201527f4578706563746564207472616e736665722066726f6d20746f207375636365656044820152601960fa1b60648201526084016101cc565b5050505050565b60008060405163313ce56760e01b8152600080600483875afa9150506000806102ab836103d2565b91509150806102fd5760405163c50656df60e01b815260206004820181905260248201527f446563696d616c732063616c6c206d616c666f726d656420726573706f6e736560448201526064016101cc565b509392505050565b600060405163095ea7b360e01b81526001600160a01b03841660048201528260248201526000806044836000895af19150506103408161038d565b6101d55760405163c50656df60e01b815260206004820152601c60248201527f457870656374656420617070726f76616c20746f20737563636565640000000060448201526064016101cc565b60008161039e573d6000803e3d6000fd5b3d602081146103b65780156103c757600091506103cc565b3d6000803e600051151591506103cc565b600191505b50919050565b600080826103e4573d6000803e3d6000fd5b3d602081146103f65760009150610405565b3d6000803e6000519250600191505b50915091565b80356001600160a01b038116811461042257600080fd5b919050565b6000806040838503121561043a57600080fd5b6104438361040b565b946020939093013593505050565b60008060006060848603121561046657600080fd5b61046f8461040b565b925061047d6020850161040b565b9150604084013590509250925092565b60006020828403121561049f57600080fd5b6104a88261040b565b939250505056fea264697066735822122012eeaae1d25009535174dd24513d905b1f00fd6bf65f101ad0dd24572aaca6c364736f6c634300080d0033",
    "linkReferences": {}
  }
}