{
  "abi": [
    {
      "inputs": [
        {
          "internalType": "contract IERC20",
          "name": "_token",
          "type": "address"
        }
      ],
      "stateMutability": "nonpayable",
      "type": "constructor"
    },
    {
      "inputs": [
        {
          "internalType": "address",
          "name": "target",
          "type": "address"
        },
        {
          "internalType": "bool",
          "name": "success",
          "type": "bool"
        },
        {
          "internalType": "bytes",
          "name": "data",
          "type": "bytes"
        }
      ],
      "name": "ERC20CallFailed",
      "type": "error"
    },
    {
      "inputs": [
        {
          "internalType": "address",
          "name": "_token",
          "type": "address"
        }
      ],
      "name": "expectDecimals",
      "outputs": [
        {
          "internalType": "uint256",
          "name": "",
          "type": "uint256"
        }
      ],
      "stateMutability": "view",
      "type": "function"
    },
    {
      "inputs": [
        {
          "internalType": "address",
          "name": "spender",
          "type": "address"
        },
        {
          "internalType": "uint256",
          "name": "value",
          "type": "uint256"
        }
      ],
      "name": "safeApprove",
      "outputs": [],
      "stateMutability": "nonpayable",
      "type": "function"
    },
    {
      "inputs": [
        {
          "internalType": "address",
          "name": "receiver",
          "type": "address"
        },
        {
          "internalType": "uint256",
          "name": "amount",
          "type": "uint256"
        }
      ],
      "name": "safeTransfer",
      "outputs": [],
      "stateMutability": "nonpayable",
      "type": "function"
    },
    {
      "inputs": [
        {
          "internalType": "address",
          "name": "owner",
          "type": "address"
        },
        {
          "internalType": "address",
          "name": "receiver",
          "type": "address"
        },
        {
          "internalType": "uint256",
          "name": "amount",
          "type": "uint256"
        }
      ],
      "name": "safeTransferFrom",
      "outputs": [],
      "stateMutability": "nonpayable",
      "type": "function"
    },
    {
      "inputs": [],
      "name": "token",
      "outputs": [
        {
          "internalType": "contract IERC20",
          "name": "",
          "type": "address"
        }
      ],
      "stateMutability": "view",
      "type": "function"
    }
  ],
  "bytecode": {
    "object": "0x608060405234801561001057600080fd5b506040516106b13803806106b183398101604081905261002f91610054565b600080546001600160a01b0319166001600160a01b0392909216919091179055610084565b60006020828403121561006657600080fd5b81516001600160a01b038116811461007d57600080fd5b9392505050565b61061e806100936000396000f3fe608060405234801561001057600080fd5b50600436106100575760003560e01c8063423f6cef1461005c57806342842e0e1461007157806363f6114c14610084578063fbc6d1cb146100aa578063fc0c546a146100bd575b600080fd5b61006f61006a366004610484565b6100e8565b005b61006f61007f3660046104ae565b610103565b6100976100923660046104ea565b610120565b6040519081526020015b60405180910390f35b61006f6100b8366004610484565b610134565b6000546100d0906001600160a01b031681565b6040516001600160a01b0390911681526020016100a1565b6000546100ff906001600160a01b0316838361014b565b5050565b60005461011b906001600160a01b031684848461025c565b505050565b600061012b8261035c565b60ff1692915050565b6000546100ff906001600160a01b03168383610435565b6040516001600160a01b03838116602483015260448201839052600091829186169063a9059cbb60e01b906064015b60408051601f198184030181529181526020820180516001600160e01b03166001600160e01b03199094169390931790925290516101b8919061053c565b6000604051808303816000865af19150503d80600081146101f5576040519150601f19603f3d011682016040523d82523d6000602084013e6101fa565b606091505b509150915081158061022857508051158015906102285750808060200190518101906102269190610558565b155b156102555784828260405163e7e40b5b60e01b815260040161024c9392919061057a565b60405180910390fd5b5050505050565b604080516001600160a01b0385811660248301528481166044830152606480830185905283518084039091018152608490920183526020820180516001600160e01b03166323b872dd60e01b17905291516000928392908816916102c0919061053c565b6000604051808303816000865af19150503d80600081146102fd576040519150601f19603f3d011682016040523d82523d6000602084013e610302565b606091505b5091509150811580610330575080511580159061033057508080602001905181019061032e9190610558565b155b156103545785828260405163e7e40b5b60e01b815260040161024c9392919061057a565b505050505050565b60408051600481526024810182526020810180516001600160e01b031663313ce56760e01b1790529051600091829182916001600160a01b038616916103a2919061053c565b600060405180830381855afa9150503d80600081146103dd576040519150601f19603f3d011682016040523d82523d6000602084013e6103e2565b606091505b50915091508115806103f5575060208151105b156104195783828260405163e7e40b5b60e01b815260040161024c9392919061057a565b8080602001905181019061042d91906105c5565b949350505050565b6040516001600160a01b03838116602483015260448201839052600091829186169063095ea7b360e01b9060640161017a565b80356001600160a01b038116811461047f57600080fd5b919050565b6000806040838503121561049757600080fd5b6104a083610468565b946020939093013593505050565b6000806000606084860312156104c357600080fd5b6104cc84610468565b92506104da60208501610468565b9150604084013590509250925092565b6000602082840312156104fc57600080fd5b61050582610468565b9392505050565b60005b8381101561052757818101518382015260200161050f565b83811115610536576000848401525b50505050565b6000825161054e81846020870161050c565b9190910192915050565b60006020828403121561056a57600080fd5b8151801515811461050557600080fd5b60018060a01b0384168152821515602082015260606040820152600082518060608401526105af81608085016020870161050c565b601f01601f191691909101608001949350505050565b6000602082840312156105d757600080fd5b815160ff8116811461050557600080fdfea264697066735822122011e26bc1cbfcfedb1d16d03df1a34d67e76db89bdff7dfb69d185d15fa87425864736f6c634300080d0033",
    "linkReferences": {}
  }
}