{
  "abi": [
    {
      "inputs": [
        {
          "internalType": "address",
          "name": "underlyingToken",
          "type": "address"
        }
      ],
      "stateMutability": "nonpayable",
      "type": "constructor"
    },
    {
      "inputs": [
        {
          "internalType": "address",
          "name": "underlyingToken",
          "type": "address"
        },
        {
          "internalType": "uint256",
          "name": "amount",
          "type": "uint256"
        }
      ],
      "name": "onERC20Received",
      "outputs": [],
      "stateMutability": "nonpayable",
      "type": "function"
    },
    {
      "inputs": [
        {
          "internalType": "address",
          "name": "",
          "type": "address"
        }
      ],
      "name": "underlyingTokens",
      "outputs": [
        {
          "internalType": "bool",
          "name": "",
          "type": "bool"
        }
      ],
      "stateMutability": "view",
      "type": "function"
    }
  ],
  "bytecode": {
    "object": "0x608060405234801561001057600080fd5b506040516101e33803806101e383398101604081905261002f91610056565b6001600160a01b03166000908152602081905260409020805460ff19166001179055610086565b60006020828403121561006857600080fd5b81516001600160a01b038116811461007f57600080fd5b9392505050565b61014e806100956000396000f3fe608060405234801561001057600080fd5b50600436106100365760003560e01c8063bc04f0af1461003b578063eb4b3e8814610050575b600080fd5b61004e6100493660046100cc565b610087565b005b61007361005e3660046100f6565b60006020819052908152604090205460ff1681565b604051901515815260200160405180910390f35b6001600160a01b03821660009081526020819052604090205460ff166100ac57600080fd5b5050565b80356001600160a01b03811681146100c757600080fd5b919050565b600080604083850312156100df57600080fd5b6100e8836100b0565b946020939093013593505050565b60006020828403121561010857600080fd5b610111826100b0565b939250505056fea2646970667358221220ec1d9af09de069990eeaa2fec25b722aa51ac7d00bb16537e62fd206011f31bd64736f6c634300080d0033",
    "linkReferences": {}
  }
}