{
  "abi": [
    {
      "inputs": [
        {
          "components": [
            {
              "internalType": "address",
              "name": "alchemist",
              "type": "address"
            },
            {
              "internalType": "address",
              "name": "token",
              "type": "address"
            },
            {
              "internalType": "address",
              "name": "underlyingToken",
              "type": "address"
            }
          ],
          "internalType": "struct InitializationParams",
          "name": "params",
          "type": "tuple"
        }
      ],
      "stateMutability": "nonpayable",
      "type": "constructor"
    },
    {
      "inputs": [
        {
          "internalType": "address",
          "name": "target",
          "type": "address"
        },
        {
          "internalType": "bool",
          "name": "success",
          "type": "bool"
        },
        {
          "internalType": "bytes",
          "name": "data",
          "type": "bytes"
        }
      ],
      "name": "ERC20CallFailed",
      "type": "error"
    },
    {
      "inputs": [
        {
          "internalType": "string",
          "name": "message",
          "type": "string"
        }
      ],
      "name": "IllegalState",
      "type": "error"
    },
    {
      "inputs": [
        {
          "internalType": "string",
          "name": "message",
          "type": "string"
        }
      ],
      "name": "Unauthorized",
      "type": "error"
    },
    {
      "inputs": [],
      "name": "alchemist",
      "outputs": [
        {
          "internalType": "address",
          "name": "",
          "type": "address"
        }
      ],
      "stateMutability": "view",
      "type": "function"
    },
    {
      "inputs": [],
      "name": "price",
      "outputs": [
        {
          "internalType": "uint256",
          "name": "",
          "type": "uint256"
        }
      ],
      "stateMutability": "view",
      "type": "function"
    },
    {
      "inputs": [],
      "name": "token",
      "outputs": [
        {
          "internalType": "address",
          "name": "",
          "type": "address"
        }
      ],
      "stateMutability": "view",
      "type": "function"
    },
    {
      "inputs": [],
      "name": "underlyingToken",
      "outputs": [
        {
          "internalType": "address",
          "name": "",
          "type": "address"
        }
      ],
      "stateMutability": "view",
      "type": "function"
    },
    {
      "inputs": [
        {
          "internalType": "uint256",
          "name": "amount",
          "type": "uint256"
        },
        {
          "internalType": "address",
          "name": "recipient",
          "type": "address"
        }
      ],
      "name": "unwrap",
      "outputs": [
        {
          "internalType": "uint256",
          "name": "",
          "type": "uint256"
        }
      ],
      "stateMutability": "nonpayable",
      "type": "function"
    },
    {
      "inputs": [],
      "name": "version",
      "outputs": [
        {
          "internalType": "string",
          "name": "",
          "type": "string"
        }
      ],
      "stateMutability": "view",
      "type": "function"
    },
    {
      "inputs": [
        {
          "internalType": "uint256",
          "name": "amount",
          "type": "uint256"
        },
        {
          "internalType": "address",
          "name": "recipient",
          "type": "address"
        }
      ],
      "name": "wrap",
      "outputs": [
        {
          "internalType": "uint256",
          "name": "",
          "type": "uint256"
        }
      ],
      "stateMutability": "nonpayable",
      "type": "function"
    }
  ],
  "bytecode": {
    "object": "0x6000805460ff19166001908117909155610120604052600560e0819052640312e302e360dc1b61010090815262000037929162000092565b503480156200004557600080fd5b506040516200109038038062001090833981016040819052620000689162000155565b80516001600160a01b039081166080526020820151811660a0526040909101511660c05262000212565b828054620000a090620001d6565b90600052602060002090601f016020900481019282620000c457600085556200010f565b82601f10620000df57805160ff19168380011785556200010f565b828001600101855582156200010f579182015b828111156200010f578251825591602001919060010190620000f2565b506200011d92915062000121565b5090565b5b808211156200011d576000815560010162000122565b80516001600160a01b03811681146200015057600080fd5b919050565b6000606082840312156200016857600080fd5b604051606081016001600160401b03811182821017156200019957634e487b7160e01b600052604160045260246000fd5b604052620001a78362000138565b8152620001b76020840162000138565b6020820152620001ca6040840162000138565b60408201529392505050565b600181811c90821680620001eb57607f821691505b6020821081036200020c57634e487b7160e01b600052602260045260246000fd5b50919050565b60805160a05160c051610dd8620002b86000396000818160ad015281816101da015281816102060152818161056a015281816106ff015261086f0152600081816101430152818161022701528181610264015281816102f00152818161036b015281816103f40152818161052b01528181610600015281816106840152818161079601526108a70152600081816101140152818161017201526104c80152610dd86000f3fe608060405234801561001057600080fd5b506004361061007d5760003560e01c80637647691d1161005b5780637647691d146100fc5780638de925f61461010f578063a035b1fe14610136578063fc0c546a1461013e57600080fd5b806313bac820146100825780632495a599146100a857806354fd4d50146100e7575b600080fd5b610095610090366004610bef565b610165565b6040519081526020015b60405180910390f35b6100cf7f000000000000000000000000000000000000000000000000000000000000000081565b6040516001600160a01b03909116815260200161009f565b6100ef610425565b60405161009f9190610c87565b61009561010a366004610bef565b6104b3565b6100cf7f000000000000000000000000000000000000000000000000000000000000000081565b6100956108a3565b6100cf7f000000000000000000000000000000000000000000000000000000000000000081565b6000336001600160a01b037f000000000000000000000000000000000000000000000000000000000000000016146101d55760405163973d02cb60e01b815260206004820152600d60248201526c139bdd08185b18da195b5a5cdd609a1b60448201526064015b60405180910390fd5b6102017f000000000000000000000000000000000000000000000000000000000000000033308661092c565b61024c7f00000000000000000000000000000000000000000000000000000000000000007f000000000000000000000000000000000000000000000000000000000000000085610a2c565b6040516370a0823160e01b81523060048201526000907f00000000000000000000000000000000000000000000000000000000000000006001600160a01b0316906370a0823190602401602060405180830381865afa1580156102b3573d6000803e3d6000fd5b505050506040513d601f19601f820116820180604052508101906102d79190610ca1565b60405163b6b55f2560e01b8152600481018690529091507f00000000000000000000000000000000000000000000000000000000000000006001600160a01b03169063b6b55f2590602401600060405180830381600087803b15801561033c57600080fd5b505af1158015610350573d6000803e3d6000fd5b50506040516370a0823160e01b8152306004820152600092507f00000000000000000000000000000000000000000000000000000000000000006001600160a01b031691506370a0823190602401602060405180830381865afa1580156103bb573d6000803e3d6000fd5b505050506040513d601f19601f820116820180604052508101906103df9190610ca1565b905060006103ed8383610cba565b905061041a7f00000000000000000000000000000000000000000000000000000000000000008683610b34565b925050505b92915050565b6001805461043290610cdf565b80601f016020809104026020016040519081016040528092919081815260200182805461045e90610cdf565b80156104ab5780601f10610480576101008083540402835291602001916104ab565b820191906000526020600020905b81548152906001019060200180831161048e57829003601f168201915b505050505081565b60006104bd610b67565b336001600160a01b037f000000000000000000000000000000000000000000000000000000000000000016146105265760405163973d02cb60e01b815260206004820152600d60248201526c139bdd08185b18da195b5a5cdd609a1b60448201526064016101cc565b6105527f000000000000000000000000000000000000000000000000000000000000000033308661092c565b6040516370a0823160e01b81523060048201526000907f00000000000000000000000000000000000000000000000000000000000000006001600160a01b0316906370a0823190602401602060405180830381865afa1580156105b9573d6000803e3d6000fd5b505050506040513d601f19601f820116820180604052508101906105dd9190610ca1565b6040516370a0823160e01b81523060048201529091506000906001600160a01b037f000000000000000000000000000000000000000000000000000000000000000016906370a0823190602401602060405180830381865afa158015610647573d6000803e3d6000fd5b505050506040513d601f19601f8201168201806040525081019061066b9190610ca1565b604051632e1a7d4d60e01b8152600481018790529091507f00000000000000000000000000000000000000000000000000000000000000006001600160a01b031690632e1a7d4d90602401600060405180830381600087803b1580156106d057600080fd5b505af11580156106e4573d6000803e3d6000fd5b50506040516370a0823160e01b8152306004820152600092507f00000000000000000000000000000000000000000000000000000000000000006001600160a01b031691506370a0823190602401602060405180830381865afa15801561074f573d6000803e3d6000fd5b505050506040513d601f19601f820116820180604052508101906107739190610ca1565b6040516370a0823160e01b81523060048201529091506000906001600160a01b037f000000000000000000000000000000000000000000000000000000000000000016906370a0823190602401602060405180830381865afa1580156107dd573d6000803e3d6000fd5b505050506040513d601f19601f820116820180604052508101906108019190610ca1565b9050600061080f8584610cba565b90508761081c8386610cba565b1461086a5760405163c50656df60e01b815260206004820152601a60248201527f4e6f7420616c6c207368617265732077657265206275726e656400000000000060448201526064016101cc565b6108957f00000000000000000000000000000000000000000000000000000000000000008883610b34565b94505050505061041f610bdc565b60007f00000000000000000000000000000000000000000000000000000000000000006001600160a01b03166399530b066040518163ffffffff1660e01b8152600401602060405180830381865afa158015610903573d6000803e3d6000fd5b505050506040513d601f19601f820116820180604052508101906109279190610ca1565b905090565b604080516001600160a01b0385811660248301528481166044830152606480830185905283518084039091018152608490920183526020820180516001600160e01b03166323b872dd60e01b17905291516000928392908816916109909190610d19565b6000604051808303816000865af19150503d80600081146109cd576040519150601f19603f3d011682016040523d82523d6000602084013e6109d2565b606091505b5091509150811580610a005750805115801590610a005750808060200190518101906109fe9190610d35565b155b15610a245785828260405163e7e40b5b60e01b81526004016101cc93929190610d57565b505050505050565b6040516001600160a01b03838116602483015260448201839052600091829186169063095ea7b360e01b906064015b60408051601f198184030181529181526020820180516001600160e01b03166001600160e01b0319909416939093179092529051610a999190610d19565b6000604051808303816000865af19150503d8060008114610ad6576040519150601f19603f3d011682016040523d82523d6000602084013e610adb565b606091505b5091509150811580610b095750805115801590610b09575080806020019051810190610b079190610d35565b155b15610b2d5784828260405163e7e40b5b60e01b81526004016101cc93929190610d57565b5050505050565b6040516001600160a01b03838116602483015260448201839052600091829186169063a9059cbb60e01b90606401610a5b565b600160005460ff166002811115610b8057610b80610d8c565b14610bc55760405163c50656df60e01b8152602060048201526014602482015273131bd8dac8185b1c9958591e4818db185a5b595960621b60448201526064016101cc565b600080546002919060ff19166001835b0217905550565b600080546001919060ff19168280610bd5565b60008060408385031215610c0257600080fd5b8235915060208301356001600160a01b0381168114610c2057600080fd5b809150509250929050565b60005b83811015610c46578181015183820152602001610c2e565b83811115610c55576000848401525b50505050565b60008151808452610c73816020860160208601610c2b565b601f01601f19169290920160200192915050565b602081526000610c9a6020830184610c5b565b9392505050565b600060208284031215610cb357600080fd5b5051919050565b600082821015610cda57634e487b7160e01b600052601160045260246000fd5b500390565b600181811c90821680610cf357607f821691505b602082108103610d1357634e487b7160e01b600052602260045260246000fd5b50919050565b60008251610d2b818460208701610c2b565b9190910192915050565b600060208284031215610d4757600080fd5b81518015158114610c9a57600080fd5b6001600160a01b03841681528215156020820152606060408201819052600090610d8390830184610c5b565b95945050505050565b634e487b7160e01b600052602160045260246000fdfea2646970667358221220995550021431d25e2679650591834c40003773da0c5b26b14123df6e6722cb0364736f6c634300080d0033",
    "linkReferences": {}
  }
}