{
  "abi": [
    {
      "inputs": [
        {
          "components": [
            {
              "internalType": "address",
              "name": "alchemist",
              "type": "address"
            },
            {
              "internalType": "address",
              "name": "token",
              "type": "address"
            },
            {
              "internalType": "address",
              "name": "parentToken",
              "type": "address"
            },
            {
              "internalType": "address",
              "name": "underlyingToken",
              "type": "address"
            },
            {
              "internalType": "address",
              "name": "curvePool",
              "type": "address"
            },
            {
              "internalType": "uint256",
              "name": "ethPoolIndex",
              "type": "uint256"
            },
            {
              "internalType": "uint256",
              "name": "stEthPoolIndex",
              "type": "uint256"
            },
            {
              "internalType": "address",
              "name": "referral",
              "type": "address"
            }
          ],
          "internalType": "struct InitializationParams",
          "name": "params",
          "type": "tuple"
        }
      ],
      "stateMutability": "nonpayable",
      "type": "constructor"
    },
    {
      "inputs": [
        {
          "internalType": "address",
          "name": "target",
          "type": "address"
        },
        {
          "internalType": "bool",
          "name": "success",
          "type": "bool"
        },
        {
          "internalType": "bytes",
          "name": "data",
          "type": "bytes"
        }
      ],
      "name": "ERC20CallFailed",
      "type": "error"
    },
    {
      "inputs": [
        {
          "internalType": "string",
          "name": "message",
          "type": "string"
        }
      ],
      "name": "IllegalArgument",
      "type": "error"
    },
    {
      "inputs": [
        {
          "internalType": "string",
          "name": "message",
          "type": "string"
        }
      ],
      "name": "IllegalState",
      "type": "error"
    },
    {
      "inputs": [
        {
          "internalType": "string",
          "name": "message",
          "type": "string"
        }
      ],
      "name": "Unauthorized",
      "type": "error"
    },
    {
      "inputs": [],
      "name": "alchemist",
      "outputs": [
        {
          "internalType": "address",
          "name": "",
          "type": "address"
        }
      ],
      "stateMutability": "view",
      "type": "function"
    },
    {
      "inputs": [],
      "name": "curvePool",
      "outputs": [
        {
          "internalType": "address",
          "name": "",
          "type": "address"
        }
      ],
      "stateMutability": "view",
      "type": "function"
    },
    {
      "inputs": [],
      "name": "ethPoolIndex",
      "outputs": [
        {
          "internalType": "uint256",
          "name": "",
          "type": "uint256"
        }
      ],
      "stateMutability": "view",
      "type": "function"
    },
    {
      "inputs": [],
      "name": "parentToken",
      "outputs": [
        {
          "internalType": "address",
          "name": "",
          "type": "address"
        }
      ],
      "stateMutability": "view",
      "type": "function"
    },
    {
      "inputs": [],
      "name": "price",
      "outputs": [
        {
          "internalType": "uint256",
          "name": "",
          "type": "uint256"
        }
      ],
      "stateMutability": "view",
      "type": "function"
    },
    {
      "inputs": [],
      "name": "referral",
      "outputs": [
        {
          "internalType": "address",
          "name": "",
          "type": "address"
        }
      ],
      "stateMutability": "view",
      "type": "function"
    },
    {
      "inputs": [],
      "name": "stEthPoolIndex",
      "outputs": [
        {
          "internalType": "uint256",
          "name": "",
          "type": "uint256"
        }
      ],
      "stateMutability": "view",
      "type": "function"
    },
    {
      "inputs": [],
      "name": "token",
      "outputs": [
        {
          "internalType": "address",
          "name": "",
          "type": "address"
        }
      ],
      "stateMutability": "view",
      "type": "function"
    },
    {
      "inputs": [],
      "name": "underlyingToken",
      "outputs": [
        {
          "internalType": "address",
          "name": "",
          "type": "address"
        }
      ],
      "stateMutability": "view",
      "type": "function"
    },
    {
      "inputs": [
        {
          "internalType": "uint256",
          "name": "amount",
          "type": "uint256"
        },
        {
          "internalType": "address",
          "name": "recipient",
          "type": "address"
        }
      ],
      "name": "unwrap",
      "outputs": [
        {
          "internalType": "uint256",
          "name": "",
          "type": "uint256"
        }
      ],
      "stateMutability": "nonpayable",
      "type": "function"
    },
    {
      "inputs": [],
      "name": "version",
      "outputs": [
        {
          "internalType": "string",
          "name": "",
          "type": "string"
        }
      ],
      "stateMutability": "view",
      "type": "function"
    },
    {
      "inputs": [
        {
          "internalType": "uint256",
          "name": "amount",
          "type": "uint256"
        },
        {
          "internalType": "address",
          "name": "recipient",
          "type": "address"
        }
      ],
      "name": "wrap",
      "outputs": [
        {
          "internalType": "uint256",
          "name": "",
          "type": "uint256"
        }
      ],
      "stateMutability": "nonpayable",
      "type": "function"
    },
    {
      "stateMutability": "payable",
      "type": "receive"
    }
  ],
  "bytecode": {
    "object": "0x6000805460ff191660019081179091556101c06040526005610180819052640312e312e360dc1b6101a090815262000038929162000290565b503480156200004657600080fd5b50604051620019a5380380620019a5833981016040819052620000699162000353565b80516001600160a01b0390811660809081526020830151821660a0908152604080850151841660c09081526060860151851660e09081529386015185166101008190529286015161012081905290860151610140529285015190931661016052915163c661065760e01b815263c661065791620000ec9160040190815260200190565b602060405180830381865afa1580156200010a573d6000803e3d6000fd5b505050506040513d601f19601f8201168201806040525081019062000130919062000425565b6001600160a01b031673eeeeeeeeeeeeeeeeeeeeeeeeeeeeeeeeeeeeeeee6001600160a01b031614620001ab576040516354a1577760e11b815260206004820152601d60248201527f437572766520706f6f6c2045544820746f6b656e206d69736d6174636800000060448201526064015b60405180910390fd5b60c0516001600160a01b0316610100516001600160a01b031663c6610657610140516040518263ffffffff1660e01b8152600401620001ec91815260200190565b602060405180830381865afa1580156200020a573d6000803e3d6000fd5b505050506040513d601f19601f8201168201806040525081019062000230919062000425565b6001600160a01b03161462000289576040516354a1577760e11b815260206004820152601f60248201527f437572766520706f6f6c20737445544820746f6b656e206d69736d61746368006044820152606401620001a2565b5062000486565b8280546200029e906200044a565b90600052602060002090601f016020900481019282620002c257600085556200030d565b82601f10620002dd57805160ff19168380011785556200030d565b828001600101855582156200030d579182015b828111156200030d578251825591602001919060010190620002f0565b506200031b9291506200031f565b5090565b5b808211156200031b576000815560010162000320565b80516001600160a01b03811681146200034e57600080fd5b919050565b60006101008083850312156200036857600080fd5b604051908101906001600160401b03821181831017156200039957634e487b7160e01b600052604160045260246000fd5b81604052620003a88462000336565b8152620003b86020850162000336565b6020820152620003cb6040850162000336565b6040820152620003de6060850162000336565b6060820152620003f16080850162000336565b608082015260a084015160a082015260c084015160c08201526200041860e0850162000336565b60e0820152949350505050565b6000602082840312156200043857600080fd5b620004438262000336565b9392505050565b600181811c908216806200045f57607f821691505b6020821081036200048057634e487b7160e01b600052602260045260246000fd5b50919050565b60805160a05160c05160e051610100516101205161014051610160516113fe620005a7600039600081816101c901526105810152600081816103270152610b0b0152600081816103700152610b3601526000818160ef0152818161021501528181610ad70152610b6f01526000818160bb015281816102490152818161043e0152818161047b01528181610be80152610c5f0152600081816102bf015281816104f6015281816105ac01528181610640015281816106bc0152818161091401528181610a2e0152610ab60152600081816103a4015281816106dd0152818161071b01528181610797015281816108d5015281816109a001528181610c960152610cc80152600081816102f3015281816103db015261087201526113fe6000f3fe6080604052600436106100ab5760003560e01c806380a540011161006457806380a54001146102ad5780638de925f6146102e15780638f873bde14610315578063a035b1fe14610349578063e0c88bf91461035e578063fc0c546a1461039257600080fd5b806313bac820146101845780631441a5a9146101b7578063218751b2146102035780632495a5991461023757806354fd4d501461026b5780637647691d1461028d57600080fd5b3661017f57336001600160a01b037f000000000000000000000000000000000000000000000000000000000000000016148015906101125750336001600160a01b037f00000000000000000000000000000000000000000000000000000000000000001614155b1561017d5760405163973d02cb60e01b815260206004820152602f60248201527f5061796d656e7473206f6e6c79207065726d69747465642066726f6d2057455460448201526e12081bdc8818dd5c9d99481c1bdbdb608a1b60648201526084015b60405180910390fd5b005b600080fd5b34801561019057600080fd5b506101a461019f3660046110f7565b6103c6565b6040519081526020015b60405180910390f35b3480156101c357600080fd5b506101eb7f000000000000000000000000000000000000000000000000000000000000000081565b6040516001600160a01b0390911681526020016101ae565b34801561020f57600080fd5b506101eb7f000000000000000000000000000000000000000000000000000000000000000081565b34801561024357600080fd5b506101eb7f000000000000000000000000000000000000000000000000000000000000000081565b34801561027757600080fd5b506102806107cf565b6040516101ae919061118f565b34801561029957600080fd5b506101a46102a83660046110f7565b61085d565b3480156102b957600080fd5b506101eb7f000000000000000000000000000000000000000000000000000000000000000081565b3480156102ed57600080fd5b506101eb7f000000000000000000000000000000000000000000000000000000000000000081565b34801561032157600080fd5b506101a47f000000000000000000000000000000000000000000000000000000000000000081565b34801561035557600080fd5b506101a4610c92565b34801561036a57600080fd5b506101a47f000000000000000000000000000000000000000000000000000000000000000081565b34801561039e57600080fd5b506101eb7f000000000000000000000000000000000000000000000000000000000000000081565b60006103d0610d5b565b336001600160a01b037f000000000000000000000000000000000000000000000000000000000000000016146104395760405163973d02cb60e01b815260206004820152600d60248201526c139bdd08185b18da195b5a5cdd609a1b6044820152606401610174565b6104657f0000000000000000000000000000000000000000000000000000000000000000333086610dd0565b604051632e1a7d4d60e01b8152600481018490527f00000000000000000000000000000000000000000000000000000000000000006001600160a01b031690632e1a7d4d90602401600060405180830381600087803b1580156104c757600080fd5b505af11580156104db573d6000803e3d6000fd5b50506040516370a0823160e01b8152306004820152600092507f00000000000000000000000000000000000000000000000000000000000000006001600160a01b031691506370a0823190602401602060405180830381865afa158015610546573d6000803e3d6000fd5b505050506040513d601f19601f8201168201806040525081019061056a91906111a9565b60405163a1903eab60e01b81526001600160a01b037f0000000000000000000000000000000000000000000000000000000000000000811660048301529192507f00000000000000000000000000000000000000000000000000000000000000009091169063a1903eab90869060240160206040518083038185885af11580156105f8573d6000803e3d6000fd5b50505050506040513d601f19601f8201168201806040525081019061061d91906111a9565b506040516370a0823160e01b815230600482015260009082906001600160a01b037f000000000000000000000000000000000000000000000000000000000000000016906370a0823190602401602060405180830381865afa158015610687573d6000803e3d6000fd5b505050506040513d601f19601f820116820180604052508101906106ab91906111a9565b6106b591906111d8565b90506107027f00000000000000000000000000000000000000000000000000000000000000007f000000000000000000000000000000000000000000000000000000000000000083610ed0565b604051630ea598cb60e41b8152600481018290526000907f00000000000000000000000000000000000000000000000000000000000000006001600160a01b03169063ea598cb0906024016020604051808303816000875af115801561076c573d6000803e3d6000fd5b505050506040513d601f19601f8201168201806040525081019061079091906111a9565b90506107bd7f00000000000000000000000000000000000000000000000000000000000000008683610fd8565b925050506107c961100b565b92915050565b600180546107dc906111ef565b80601f0160208091040260200160405190810160405280929190818152602001828054610808906111ef565b80156108555780601f1061082a57610100808354040283529160200191610855565b820191906000526020600020905b81548152906001019060200180831161083857829003601f168201915b505050505081565b6000610867610d5b565b336001600160a01b037f000000000000000000000000000000000000000000000000000000000000000016146108d05760405163973d02cb60e01b815260206004820152600d60248201526c139bdd08185b18da195b5a5cdd609a1b6044820152606401610174565b6108fc7f0000000000000000000000000000000000000000000000000000000000000000333086610dd0565b6040516370a0823160e01b81523060048201526000907f00000000000000000000000000000000000000000000000000000000000000006001600160a01b0316906370a0823190602401602060405180830381865afa158015610963573d6000803e3d6000fd5b505050506040513d601f19601f8201168201806040525081019061098791906111a9565b604051636f074d1f60e11b8152600481018690529091507f00000000000000000000000000000000000000000000000000000000000000006001600160a01b03169063de0e9a3e906024016020604051808303816000875af11580156109f1573d6000803e3d6000fd5b505050506040513d601f19601f82011682018060405250810190610a1591906111a9565b506040516370a0823160e01b81523060048201526000907f00000000000000000000000000000000000000000000000000000000000000006001600160a01b0316906370a0823190602401602060405180830381865afa158015610a7d573d6000803e3d6000fd5b505050506040513d601f19601f82011682018060405250810190610aa191906111a9565b90506000610aaf83836111d8565b9050610afc7f00000000000000000000000000000000000000000000000000000000000000007f000000000000000000000000000000000000000000000000000000000000000083610ed0565b604051630f7c084960e21b81527f0000000000000000000000000000000000000000000000000000000000000000600f90810b60048301527f0000000000000000000000000000000000000000000000000000000000000000900b602482015260448101829052600060648201819052907f00000000000000000000000000000000000000000000000000000000000000006001600160a01b031690633df02124906084016020604051808303816000875af1158015610bc0573d6000803e3d6000fd5b505050506040513d601f19601f82011682018060405250810190610be491906111a9565b90507f00000000000000000000000000000000000000000000000000000000000000006001600160a01b031663d0e30db0826040518263ffffffff1660e01b81526004016000604051808303818588803b158015610c4157600080fd5b505af1158015610c55573d6000803e3d6000fd5b5050505050610c857f00000000000000000000000000000000000000000000000000000000000000008783610fd8565b93505050506107c961100b565b60007f00000000000000000000000000000000000000000000000000000000000000006001600160a01b031663bb2952fc610cec7f000000000000000000000000000000000000000000000000000000000000000061101e565b610cf790600a61130d565b6040518263ffffffff1660e01b8152600401610d1591815260200190565b602060405180830381865afa158015610d32573d6000803e3d6000fd5b505050506040513d601f19601f82011682018060405250810190610d5691906111a9565b905090565b600160005460ff166002811115610d7457610d7461131c565b14610db95760405163c50656df60e01b8152602060048201526014602482015273131bd8dac8185b1c9958591e4818db185a5b595960621b6044820152606401610174565b600080546002919060ff19166001835b0217905550565b604080516001600160a01b0385811660248301528481166044830152606480830185905283518084039091018152608490920183526020820180516001600160e01b03166323b872dd60e01b1790529151600092839290881691610e349190611332565b6000604051808303816000865af19150503d8060008114610e71576040519150601f19603f3d011682016040523d82523d6000602084013e610e76565b606091505b5091509150811580610ea45750805115801590610ea4575080806020019051810190610ea2919061134e565b155b15610ec85785828260405163e7e40b5b60e01b815260040161017493929190611370565b505050505050565b6040516001600160a01b03838116602483015260448201839052600091829186169063095ea7b360e01b906064015b60408051601f198184030181529181526020820180516001600160e01b03166001600160e01b0319909416939093179092529051610f3d9190611332565b6000604051808303816000865af19150503d8060008114610f7a576040519150601f19603f3d011682016040523d82523d6000602084013e610f7f565b606091505b5091509150811580610fad5750805115801590610fad575080806020019051810190610fab919061134e565b155b15610fd15784828260405163e7e40b5b60e01b815260040161017493929190611370565b5050505050565b6040516001600160a01b03838116602483015260448201839052600091829186169063a9059cbb60e01b90606401610eff565b600080546001919060ff19168280610dc9565b60408051600481526024810182526020810180516001600160e01b031663313ce56760e01b1790529051600091829182916001600160a01b038616916110649190611332565b600060405180830381855afa9150503d806000811461109f576040519150601f19603f3d011682016040523d82523d6000602084013e6110a4565b606091505b50915091508115806110b7575060208151105b156110db5783828260405163e7e40b5b60e01b815260040161017493929190611370565b808060200190518101906110ef91906113a5565b949350505050565b6000806040838503121561110a57600080fd5b8235915060208301356001600160a01b038116811461112857600080fd5b809150509250929050565b60005b8381101561114e578181015183820152602001611136565b8381111561115d576000848401525b50505050565b6000815180845261117b816020860160208601611133565b601f01601f19169290920160200192915050565b6020815260006111a26020830184611163565b9392505050565b6000602082840312156111bb57600080fd5b5051919050565b634e487b7160e01b600052601160045260246000fd5b6000828210156111ea576111ea6111c2565b500390565b600181811c9082168061120357607f821691505b60208210810361122357634e487b7160e01b600052602260045260246000fd5b50919050565b600181815b8085111561126457816000190482111561124a5761124a6111c2565b8085161561125757918102915b93841c939080029061122e565b509250929050565b60008261127b575060016107c9565b81611288575060006107c9565b816001811461129e57600281146112a8576112c4565b60019150506107c9565b60ff8411156112b9576112b96111c2565b50506001821b6107c9565b5060208310610133831016604e8410600b84101617156112e7575081810a6107c9565b6112f18383611229565b8060001904821115611305576113056111c2565b029392505050565b60006111a260ff84168361126c565b634e487b7160e01b600052602160045260246000fd5b60008251611344818460208701611133565b9190910192915050565b60006020828403121561136057600080fd5b815180151581146111a257600080fd5b6001600160a01b0384168152821515602082015260606040820181905260009061139c90830184611163565b95945050505050565b6000602082840312156113b757600080fd5b815160ff811681146111a257600080fdfea2646970667358221220ecde601349547a06f0ccb8cec900c5979dfff8907e55d2cbc4530b7c706d120864736f6c634300080d0033",
    "linkReferences": {}
  }
}