{
  "abi": [
    {
      "inputs": [
        {
          "components": [
            {
              "internalType": "address",
              "name": "admin",
              "type": "address"
            },
            {
              "internalType": "address",
              "name": "operator",
              "type": "address"
            },
            {
              "internalType": "address",
              "name": "rewardReceiver",
              "type": "address"
            },
            {
              "internalType": "address",
              "name": "transmuterBuffer",
              "type": "address"
            },
            {
              "internalType": "contract IERC20",
              "name": "curveToken",
              "type": "address"
            },
            {
              "internalType": "contract IStableSwap3Pool",
              "name": "threePool",
              "type": "address"
            },
            {
              "internalType": "contract IStableMetaPool",
              "name": "metaPool",
              "type": "address"
            },
            {
              "internalType": "uint256",
              "name": "threePoolSlippage",
              "type": "uint256"
            },
            {
              "internalType": "uint256",
              "name": "metaPoolSlippage",
              "type": "uint256"
            },
            {
              "internalType": "contract IConvexToken",
              "name": "convexToken",
              "type": "address"
            },
            {
              "internalType": "contract IConvexBooster",
              "name": "convexBooster",
              "type": "address"
            },
            {
              "internalType": "contract IConvexRewards",
              "name": "convexRewards",
              "type": "address"
            },
            {
              "internalType": "uint256",
              "name": "convexPoolId",
              "type": "uint256"
            }
          ],
          "internalType": "struct InitializationParams",
          "name": "params",
          "type": "tuple"
        }
      ],
      "stateMutability": "nonpayable",
      "type": "constructor"
    },
    {
      "inputs": [
        {
          "internalType": "address",
          "name": "target",
          "type": "address"
        },
        {
          "internalType": "bool",
          "name": "success",
          "type": "bool"
        },
        {
          "internalType": "bytes",
          "name": "data",
          "type": "bytes"
        }
      ],
      "name": "ERC20CallFailed",
      "type": "error"
    },
    {
      "inputs": [
        {
          "internalType": "string",
          "name": "message",
          "type": "string"
        }
      ],
      "name": "IllegalArgument",
      "type": "error"
    },
    {
      "inputs": [
        {
          "internalType": "string",
          "name": "message",
          "type": "string"
        }
      ],
      "name": "IllegalState",
      "type": "error"
    },
    {
      "inputs": [
        {
          "internalType": "bytes",
          "name": "data",
          "type": "bytes"
        },
        {
          "internalType": "bytes",
          "name": "result",
          "type": "bytes"
        }
      ],
      "name": "MulticallFailed",
      "type": "error"
    },
    {
      "inputs": [
        {
          "internalType": "string",
          "name": "message",
          "type": "string"
        }
      ],
      "name": "Unauthorized",
      "type": "error"
    },
    {
      "anonymous": false,
      "inputs": [
        {
          "indexed": false,
          "internalType": "address",
          "name": "admin",
          "type": "address"
        }
      ],
      "name": "AdminUpdated",
      "type": "event"
    },
    {
      "anonymous": false,
      "inputs": [
        {
          "indexed": false,
          "internalType": "enum MetaPoolAsset",
          "name": "asset",
          "type": "uint8"
        },
        {
          "indexed": false,
          "internalType": "uint256",
          "name": "amount",
          "type": "uint256"
        },
        {
          "indexed": false,
          "internalType": "uint256",
          "name": "withdrawn",
          "type": "uint256"
        }
      ],
      "name": "BurnMetaPoolTokens",
      "type": "event"
    },
    {
      "anonymous": false,
      "inputs": [
        {
          "indexed": false,
          "internalType": "enum ThreePoolAsset",
          "name": "asset",
          "type": "uint8"
        },
        {
          "indexed": false,
          "internalType": "uint256",
          "name": "amount",
          "type": "uint256"
        },
        {
          "indexed": false,
          "internalType": "uint256",
          "name": "withdrawn",
          "type": "uint256"
        }
      ],
      "name": "BurnThreePoolTokens",
      "type": "event"
    },
    {
      "anonymous": false,
      "inputs": [
        {
          "indexed": false,
          "internalType": "bool",
          "name": "success",
          "type": "bool"
        },
        {
          "indexed": false,
          "internalType": "uint256",
          "name": "amountCurve",
          "type": "uint256"
        },
        {
          "indexed": false,
          "internalType": "uint256",
          "name": "amountConvex",
          "type": "uint256"
        }
      ],
      "name": "ClaimRewards",
      "type": "event"
    },
    {
      "anonymous": false,
      "inputs": [
        {
          "indexed": false,
          "internalType": "uint256",
          "name": "amount",
          "type": "uint256"
        },
        {
          "indexed": false,
          "internalType": "bool",
          "name": "success",
          "type": "bool"
        }
      ],
      "name": "DepositMetaPoolTokens",
      "type": "event"
    },
    {
      "anonymous": false,
      "inputs": [
        {
          "indexed": false,
          "internalType": "uint256",
          "name": "metaPoolSlippage",
          "type": "uint256"
        }
      ],
      "name": "MetaPoolSlippageUpdated",
      "type": "event"
    },
    {
      "anonymous": false,
      "inputs": [
        {
          "indexed": false,
          "internalType": "uint256[2]",
          "name": "amounts",
          "type": "uint256[2]"
        },
        {
          "indexed": false,
          "internalType": "uint256",
          "name": "mintedThreePoolTokens",
          "type": "uint256"
        }
      ],
      "name": "MintMetaPoolTokens",
      "type": "event"
    },
    {
      "anonymous": false,
      "inputs": [
        {
          "indexed": false,
          "internalType": "enum MetaPoolAsset",
          "name": "asset",
          "type": "uint8"
        },
        {
          "indexed": false,
          "internalType": "uint256",
          "name": "amount",
          "type": "uint256"
        },
        {
          "indexed": false,
          "internalType": "uint256",
          "name": "minted",
          "type": "uint256"
        }
      ],
      "name": "MintMetaPoolTokens",
      "type": "event"
    },
    {
      "anonymous": false,
      "inputs": [
        {
          "indexed": false,
          "internalType": "uint256[3]",
          "name": "amounts",
          "type": "uint256[3]"
        },
        {
          "indexed": false,
          "internalType": "uint256",
          "name": "mintedThreePoolTokens",
          "type": "uint256"
        }
      ],
      "name": "MintThreePoolTokens",
      "type": "event"
    },
    {
      "anonymous": false,
      "inputs": [
        {
          "indexed": false,
          "internalType": "enum ThreePoolAsset",
          "name": "asset",
          "type": "uint8"
        },
        {
          "indexed": false,
          "internalType": "uint256",
          "name": "amount",
          "type": "uint256"
        },
        {
          "indexed": false,
          "internalType": "uint256",
          "name": "mintedThreePoolTokens",
          "type": "uint256"
        }
      ],
      "name": "MintThreePoolTokens",
      "type": "event"
    },
    {
      "anonymous": false,
      "inputs": [
        {
          "indexed": false,
          "internalType": "address",
          "name": "operator",
          "type": "address"
        }
      ],
      "name": "OperatorUpdated",
      "type": "event"
    },
    {
      "anonymous": false,
      "inputs": [
        {
          "indexed": false,
          "internalType": "address",
          "name": "pendingAdmin",
          "type": "address"
        }
      ],
      "name": "PendingAdminUpdated",
      "type": "event"
    },
    {
      "anonymous": false,
      "inputs": [
        {
          "indexed": false,
          "internalType": "enum ThreePoolAsset",
          "name": "asset",
          "type": "uint8"
        },
        {
          "indexed": false,
          "internalType": "uint256",
          "name": "amount",
          "type": "uint256"
        }
      ],
      "name": "ReclaimThreePoolAsset",
      "type": "event"
    },
    {
      "anonymous": false,
      "inputs": [
        {
          "indexed": false,
          "internalType": "address",
          "name": "rewardReceiver",
          "type": "address"
        }
      ],
      "name": "RewardReceiverUpdated",
      "type": "event"
    },
    {
      "anonymous": false,
      "inputs": [
        {
          "indexed": false,
          "internalType": "uint256",
          "name": "threePoolSlippage",
          "type": "uint256"
        }
      ],
      "name": "ThreePoolSlippageUpdated",
      "type": "event"
    },
    {
      "anonymous": false,
      "inputs": [
        {
          "indexed": false,
          "internalType": "address",
          "name": "transmuterBuffer",
          "type": "address"
        }
      ],
      "name": "TransmuterBufferUpdated",
      "type": "event"
    },
    {
      "anonymous": false,
      "inputs": [
        {
          "indexed": false,
          "internalType": "uint256",
          "name": "amount",
          "type": "uint256"
        },
        {
          "indexed": false,
          "internalType": "bool",
          "name": "success",
          "type": "bool"
        }
      ],
      "name": "WithdrawMetaPoolTokens",
      "type": "event"
    },
    {
      "inputs": [],
      "name": "acceptAdmin",
      "outputs": [],
      "stateMutability": "nonpayable",
      "type": "function"
    },
    {
      "inputs": [],
      "name": "admin",
      "outputs": [
        {
          "internalType": "address",
          "name": "",
          "type": "address"
        }
      ],
      "stateMutability": "view",
      "type": "function"
    },
    {
      "inputs": [
        {
          "internalType": "enum MetaPoolAsset",
          "name": "asset",
          "type": "uint8"
        },
        {
          "internalType": "uint256",
          "name": "amount",
          "type": "uint256"
        }
      ],
      "name": "burnMetaPoolTokens",
      "outputs": [
        {
          "internalType": "uint256",
          "name": "withdrawn",
          "type": "uint256"
        }
      ],
      "stateMutability": "nonpayable",
      "type": "function"
    },
    {
      "inputs": [
        {
          "internalType": "enum ThreePoolAsset",
          "name": "asset",
          "type": "uint8"
        },
        {
          "internalType": "uint256",
          "name": "amount",
          "type": "uint256"
        }
      ],
      "name": "burnThreePoolTokens",
      "outputs": [
        {
          "internalType": "uint256",
          "name": "withdrawn",
          "type": "uint256"
        }
      ],
      "stateMutability": "nonpayable",
      "type": "function"
    },
    {
      "inputs": [
        {
          "internalType": "enum MetaPoolAsset",
          "name": "rebalanceAsset",
          "type": "uint8"
        },
        {
          "internalType": "enum ThreePoolAsset",
          "name": "targetExchangeAsset",
          "type": "uint8"
        },
        {
          "internalType": "uint256",
          "name": "targetExchangeRate",
          "type": "uint256"
        }
      ],
      "name": "calculateRebalance",
      "outputs": [
        {
          "internalType": "uint256",
          "name": "delta",
          "type": "uint256"
        },
        {
          "internalType": "bool",
          "name": "add",
          "type": "bool"
        }
      ],
      "stateMutability": "view",
      "type": "function"
    },
    {
      "inputs": [],
      "name": "claimRewards",
      "outputs": [
        {
          "internalType": "bool",
          "name": "success",
          "type": "bool"
        }
      ],
      "stateMutability": "nonpayable",
      "type": "function"
    },
    {
      "inputs": [],
      "name": "claimableRewards",
      "outputs": [
        {
          "internalType": "uint256",
          "name": "amountCurve",
          "type": "uint256"
        },
        {
          "internalType": "uint256",
          "name": "amountConvex",
          "type": "uint256"
        }
      ],
      "stateMutability": "view",
      "type": "function"
    },
    {
      "inputs": [],
      "name": "convexBooster",
      "outputs": [
        {
          "internalType": "contract IConvexBooster",
          "name": "",
          "type": "address"
        }
      ],
      "stateMutability": "view",
      "type": "function"
    },
    {
      "inputs": [],
      "name": "convexPoolId",
      "outputs": [
        {
          "internalType": "uint256",
          "name": "",
          "type": "uint256"
        }
      ],
      "stateMutability": "view",
      "type": "function"
    },
    {
      "inputs": [],
      "name": "convexRewards",
      "outputs": [
        {
          "internalType": "contract IConvexRewards",
          "name": "",
          "type": "address"
        }
      ],
      "stateMutability": "view",
      "type": "function"
    },
    {
      "inputs": [],
      "name": "convexToken",
      "outputs": [
        {
          "internalType": "contract IConvexToken",
          "name": "",
          "type": "address"
        }
      ],
      "stateMutability": "view",
      "type": "function"
    },
    {
      "inputs": [],
      "name": "curveToken",
      "outputs": [
        {
          "internalType": "contract IERC20",
          "name": "",
          "type": "address"
        }
      ],
      "stateMutability": "view",
      "type": "function"
    },
    {
      "inputs": [
        {
          "internalType": "uint256",
          "name": "amount",
          "type": "uint256"
        }
      ],
      "name": "depositMetaPoolTokens",
      "outputs": [
        {
          "internalType": "bool",
          "name": "success",
          "type": "bool"
        }
      ],
      "stateMutability": "nonpayable",
      "type": "function"
    },
    {
      "inputs": [
        {
          "internalType": "enum ThreePoolAsset",
          "name": "asset",
          "type": "uint8"
        }
      ],
      "name": "exchangeRate",
      "outputs": [
        {
          "internalType": "uint256",
          "name": "",
          "type": "uint256"
        }
      ],
      "stateMutability": "view",
      "type": "function"
    },
    {
      "inputs": [
        {
          "internalType": "uint256[3]",
          "name": "amounts",
          "type": "uint256[3]"
        }
      ],
      "name": "flush",
      "outputs": [
        {
          "internalType": "uint256",
          "name": "",
          "type": "uint256"
        }
      ],
      "stateMutability": "nonpayable",
      "type": "function"
    },
    {
      "inputs": [
        {
          "internalType": "enum ThreePoolAsset",
          "name": "asset",
          "type": "uint8"
        },
        {
          "internalType": "uint256",
          "name": "amount",
          "type": "uint256"
        }
      ],
      "name": "flush",
      "outputs": [
        {
          "internalType": "uint256",
          "name": "",
          "type": "uint256"
        }
      ],
      "stateMutability": "nonpayable",
      "type": "function"
    },
    {
      "inputs": [
        {
          "internalType": "enum MetaPoolAsset",
          "name": "asset",
          "type": "uint8"
        }
      ],
      "name": "getTokenForMetaPoolAsset",
      "outputs": [
        {
          "internalType": "contract IERC20",
          "name": "",
          "type": "address"
        }
      ],
      "stateMutability": "view",
      "type": "function"
    },
    {
      "inputs": [
        {
          "internalType": "enum ThreePoolAsset",
          "name": "asset",
          "type": "uint8"
        }
      ],
      "name": "getTokenForThreePoolAsset",
      "outputs": [
        {
          "internalType": "contract IERC20",
          "name": "",
          "type": "address"
        }
      ],
      "stateMutability": "view",
      "type": "function"
    },
    {
      "inputs": [],
      "name": "metaPool",
      "outputs": [
        {
          "internalType": "contract IStableMetaPool",
          "name": "",
          "type": "address"
        }
      ],
      "stateMutability": "view",
      "type": "function"
    },
    {
      "inputs": [
        {
          "internalType": "enum MetaPoolAsset",
          "name": "asset",
          "type": "uint8"
        }
      ],
      "name": "metaPoolAssetReserves",
      "outputs": [
        {
          "internalType": "uint256",
          "name": "",
          "type": "uint256"
        }
      ],
      "stateMutability": "view",
      "type": "function"
    },
    {
      "inputs": [],
      "name": "metaPoolReserves",
      "outputs": [
        {
          "internalType": "uint256",
          "name": "",
          "type": "uint256"
        }
      ],
      "stateMutability": "view",
      "type": "function"
    },
    {
      "inputs": [],
      "name": "metaPoolSlippage",
      "outputs": [
        {
          "internalType": "uint256",
          "name": "",
          "type": "uint256"
        }
      ],
      "stateMutability": "view",
      "type": "function"
    },
    {
      "inputs": [
        {
          "internalType": "enum MetaPoolAsset",
          "name": "asset",
          "type": "uint8"
        },
        {
          "internalType": "uint256",
          "name": "amount",
          "type": "uint256"
        }
      ],
      "name": "mintMetaPoolTokens",
      "outputs": [
        {
          "internalType": "uint256",
          "name": "minted",
          "type": "uint256"
        }
      ],
      "stateMutability": "nonpayable",
      "type": "function"
    },
    {
      "inputs": [
        {
          "internalType": "uint256[2]",
          "name": "amounts",
          "type": "uint256[2]"
        }
      ],
      "name": "mintMetaPoolTokens",
      "outputs": [
        {
          "internalType": "uint256",
          "name": "minted",
          "type": "uint256"
        }
      ],
      "stateMutability": "nonpayable",
      "type": "function"
    },
    {
      "inputs": [
        {
          "internalType": "enum ThreePoolAsset",
          "name": "asset",
          "type": "uint8"
        },
        {
          "internalType": "uint256",
          "name": "amount",
          "type": "uint256"
        }
      ],
      "name": "mintThreePoolTokens",
      "outputs": [
        {
          "internalType": "uint256",
          "name": "minted",
          "type": "uint256"
        }
      ],
      "stateMutability": "nonpayable",
      "type": "function"
    },
    {
      "inputs": [
        {
          "internalType": "uint256[3]",
          "name": "amounts",
          "type": "uint256[3]"
        }
      ],
      "name": "mintThreePoolTokens",
      "outputs": [
        {
          "internalType": "uint256",
          "name": "minted",
          "type": "uint256"
        }
      ],
      "stateMutability": "nonpayable",
      "type": "function"
    },
    {
      "inputs": [
        {
          "internalType": "bytes[]",
          "name": "data",
          "type": "bytes[]"
        }
      ],
      "name": "multicall",
      "outputs": [
        {
          "internalType": "bytes[]",
          "name": "results",
          "type": "bytes[]"
        }
      ],
      "stateMutability": "payable",
      "type": "function"
    },
    {
      "inputs": [
        {
          "internalType": "address",
          "name": "token",
          "type": "address"
        },
        {
          "internalType": "uint256",
          "name": "value",
          "type": "uint256"
        }
      ],
      "name": "onERC20Received",
      "outputs": [],
      "stateMutability": "nonpayable",
      "type": "function"
    },
    {
      "inputs": [],
      "name": "operator",
      "outputs": [
        {
          "internalType": "address",
          "name": "",
          "type": "address"
        }
      ],
      "stateMutability": "view",
      "type": "function"
    },
    {
      "inputs": [],
      "name": "pendingAdmin",
      "outputs": [
        {
          "internalType": "address",
          "name": "",
          "type": "address"
        }
      ],
      "stateMutability": "view",
      "type": "function"
    },
    {
      "inputs": [
        {
          "internalType": "enum ThreePoolAsset",
          "name": "asset",
          "type": "uint8"
        },
        {
          "internalType": "uint256",
          "name": "amount",
          "type": "uint256"
        }
      ],
      "name": "recall",
      "outputs": [
        {
          "internalType": "uint256",
          "name": "",
          "type": "uint256"
        }
      ],
      "stateMutability": "nonpayable",
      "type": "function"
    },
    {
      "inputs": [
        {
          "internalType": "enum ThreePoolAsset",
          "name": "asset",
          "type": "uint8"
        },
        {
          "internalType": "uint256",
          "name": "amount",
          "type": "uint256"
        }
      ],
      "name": "reclaimThreePoolAsset",
      "outputs": [],
      "stateMutability": "nonpayable",
      "type": "function"
    },
    {
      "inputs": [],
      "name": "rewardReceiver",
      "outputs": [
        {
          "internalType": "address",
          "name": "",
          "type": "address"
        }
      ],
      "stateMutability": "view",
      "type": "function"
    },
    {
      "inputs": [
        {
          "internalType": "uint256",
          "name": "value",
          "type": "uint256"
        }
      ],
      "name": "setMetaPoolSlippage",
      "outputs": [],
      "stateMutability": "nonpayable",
      "type": "function"
    },
    {
      "inputs": [
        {
          "internalType": "address",
          "name": "value",
          "type": "address"
        }
      ],
      "name": "setOperator",
      "outputs": [],
      "stateMutability": "nonpayable",
      "type": "function"
    },
    {
      "inputs": [
        {
          "internalType": "address",
          "name": "value",
          "type": "address"
        }
      ],
      "name": "setPendingAdmin",
      "outputs": [],
      "stateMutability": "nonpayable",
      "type": "function"
    },
    {
      "inputs": [
        {
          "internalType": "address",
          "name": "value",
          "type": "address"
        }
      ],
      "name": "setRewardReceiver",
      "outputs": [],
      "stateMutability": "nonpayable",
      "type": "function"
    },
    {
      "inputs": [
        {
          "internalType": "uint256",
          "name": "value",
          "type": "uint256"
        }
      ],
      "name": "setThreePoolSlippage",
      "outputs": [],
      "stateMutability": "nonpayable",
      "type": "function"
    },
    {
      "inputs": [
        {
          "internalType": "address",
          "name": "value",
          "type": "address"
        }
      ],
      "name": "setTransmuterBuffer",
      "outputs": [],
      "stateMutability": "nonpayable",
      "type": "function"
    },
    {
      "inputs": [
        {
          "internalType": "address",
          "name": "token",
          "type": "address"
        },
        {
          "internalType": "uint256",
          "name": "amount",
          "type": "uint256"
        }
      ],
      "name": "sweep",
      "outputs": [],
      "stateMutability": "nonpayable",
      "type": "function"
    },
    {
      "inputs": [],
      "name": "threePool",
      "outputs": [
        {
          "internalType": "contract IStableSwap3Pool",
          "name": "",
          "type": "address"
        }
      ],
      "stateMutability": "view",
      "type": "function"
    },
    {
      "inputs": [
        {
          "internalType": "enum ThreePoolAsset",
          "name": "asset",
          "type": "uint8"
        }
      ],
      "name": "threePoolAssetReserves",
      "outputs": [
        {
          "internalType": "uint256",
          "name": "",
          "type": "uint256"
        }
      ],
      "stateMutability": "view",
      "type": "function"
    },
    {
      "inputs": [],
      "name": "threePoolSlippage",
      "outputs": [
        {
          "internalType": "uint256",
          "name": "",
          "type": "uint256"
        }
      ],
      "stateMutability": "view",
      "type": "function"
    },
    {
      "inputs": [],
      "name": "transmuterBuffer",
      "outputs": [
        {
          "internalType": "address",
          "name": "",
          "type": "address"
        }
      ],
      "stateMutability": "view",
      "type": "function"
    },
    {
      "inputs": [
        {
          "internalType": "uint256",
          "name": "amount",
          "type": "uint256"
        }
      ],
      "name": "withdrawMetaPoolTokens",
      "outputs": [
        {
          "internalType": "bool",
          "name": "success",
          "type": "bool"
        }
      ],
      "stateMutability": "nonpayable",
      "type": "function"
    }
  ],
  "bytecode": {
    "object": "0x6101606040526000805460ff191660011790553480156200001f57600080fd5b506040516200480438038062004804833981016040819052620000429162000480565b805160008054610100600160a81b0319166101006001600160a01b0393841681029190911782556020840151600280546001600160a01b031990811692861692909217905560408501516003805483169186169190911790556060850151600480549092169085161790556080808501518416905260a0808501518416905260c0808501518416905260e080850151600555818501516006556101208086015185169091526101408086015185169092526101608501519093169092526101808301519091525b6003811015620001cf5760a082015160405163c661065760e01b8152600481018390526001600160a01b039091169063c661065790602401602060405180830381865afa1580156200015f573d6000803e3d6000fd5b505050506040513d601f19601f8201168201806040525081019062000185919062000583565b600782600381106200019b576200019b620005aa565b0180546001600160a01b0319166001600160a01b039290921691909117905580620001c681620005c0565b91505062000109565b5060005b6002811015620002995760c082015160405163c661065760e01b8152600481018390526001600160a01b039091169063c661065790602401602060405180830381865afa15801562000229573d6000803e3d6000fd5b505050506040513d601f19601f820116820180604052508101906200024f919062000583565b600a8260028110620002655762000265620005aa565b0180546001600160a01b0319166001600160a01b0392909216919091179055806200029081620005c0565b915050620001d3565b506000546040516101009091046001600160a01b031681527f54e4612788f90384e6843298d7854436f3a585b2c3831ab66abf1de63bfa6c2d9060200160405180910390a16002546040516001600160a01b0390911681527fb3b3f5f64ab192e4b5fefde1f51ce9733bbdcf831951543b325aebd49cc27ec49060200160405180910390a16003546040516001600160a01b0390911681527f2bebe3801c306ffa893b76894d5baf1cef32807aa974f6449595a9c2392f61749060200160405180910390a16004546040516001600160a01b0390911681527f59dea4585e1df1b7a22cafd3486f3c6080e7bd27c1450af2f11f192cb637658b9060200160405180910390a17f3579c05e37916c34ed62a19c1c6121d9d0f18354f1cc317f705700ddb1ba53ee600554604051620003d291815260200190565b60405180910390a17f0f75d64b7a2af497eeb31639b1ee2e88f49e0e58b1eaee9d225e8f2d8553c1776006546040516200040e91815260200190565b60405180910390a150620005e8565b6040516101a081016001600160401b03811182821017156200044f57634e487b7160e01b600052604160045260246000fd5b60405290565b6001600160a01b03811681146200046b57600080fd5b50565b80516200047b8162000455565b919050565b60006101a082840312156200049457600080fd5b6200049e6200041d565b620004a9836200046e565b8152620004b9602084016200046e565b6020820152620004cc604084016200046e565b6040820152620004df606084016200046e565b6060820152620004f2608084016200046e565b60808201526200050560a084016200046e565b60a08201526200051860c084016200046e565b60c082015260e083015160e0820152610100808401518183015250610120620005438185016200046e565b90820152610140620005578482016200046e565b908201526101606200056b8482016200046e565b90820152610180928301519281019290925250919050565b6000602082840312156200059657600080fd5b8151620005a38162000455565b9392505050565b634e487b7160e01b600052603260045260246000fd5b600060018201620005e157634e487b7160e01b600052601160045260246000fd5b5060010190565b60805160a05160c05160e0516101005161012051610140516140866200077e600039600081816107fe01526123ac0152600081816105e001528181610c680152818161118d01526124b80152600081816103c10152818161232c0152818161237801526123e001526000818161083201528181610d9b01528181610e4a01528181612a5e01528181612ae401528181612b740152612c3401526000818161052201528181611327015281816117d50152818161186201528181611a9501528181611c55015281816120c1015281816120ed015281816121290152818161230b015281816123570152818161258b01528181612668015281816130c10152818161310301528181613155015261322a0152600081816104ae0152818161190301528181611cef0152818161279a015281816128bd015281816128e90152818161293501528181612d6f01528181612ea001528181612ecc01528181612f08015281816133f6015281816134380152818161348301526135c601526000818161047a01528181610d0d0152610e1201526140866000f3fe6080604052600436106102725760003560e01c80636ea056a91161014f578063b2c8ab46116100c1578063dbd1d0e31161007a578063dbd1d0e3146107cc578063e529ee95146107ec578063e89133b214610820578063e9337a7714610854578063f6fc89c614610889578063f851a440146108a957600080fd5b8063b2c8ab4614610717578063b3ab15fb1461072d578063bc04f0af1461074d578063bd6acfa61461076c578063be4b85341461078c578063dae254dd146107ac57600080fd5b8063a723619711610113578063a723619714610662578063a747e19014610677578063a964045714610697578063ac9650d8146106b7578063adec361e146106d7578063aeecdad2146106f757600080fd5b80636ea056a9146105ae57806379054cc9146105ce5780637d7a1c201461060257806393c6b5ad14610622578063985aaf2d1461064257600080fd5b8063372500ab116101e8578063570ca735116101ac578063570ca735146104d05780635a89233a146104f05780635acb5da9146105105780636464cdb11461054457806366191f0b146105645780636c003a9b1461058457600080fd5b8063372500ab1461040357806346e8de4f146104285780634dd18bf5146104485780634f39059c146104685780635305bd8e1461049c57600080fd5b80631dac30b01161023a5780631dac30b0146103395780632357f8e41461035957806326782247146103795780632c68ea9c146103995780632cdacb50146103af5780632e8e3a06146103e357600080fd5b8063079c077e1461027757806308592688146102aa5780630dc3d0ff146102e25780630e18b681146103025780631911e89314610319575b600080fd5b34801561028357600080fd5b50610297610292366004613863565b6108ce565b6040519081526020015b60405180910390f35b3480156102b657600080fd5b506102ca6102c536600461389c565b610926565b6040516001600160a01b0390911681526020016102a1565b3480156102ee57600080fd5b506004546102ca906001600160a01b031681565b34801561030e57600080fd5b506103176109af565b005b34801561032557600080fd5b506102976103343660046138b7565b610af5565b34801561034557600080fd5b506003546102ca906001600160a01b031681565b34801561036557600080fd5b5061029761037436600461389c565b610b73565b34801561038557600080fd5b506001546102ca906001600160a01b031681565b3480156103a557600080fd5b5061029760065481565b3480156103bb57600080fd5b506102ca7f000000000000000000000000000000000000000000000000000000000000000081565b3480156103ef57600080fd5b506103176103fe3660046138d2565b610b7f565b34801561040f57600080fd5b50610418610c31565b60405190151581526020016102a1565b34801561043457600080fd5b506104186104433660046138d2565b610ec9565b34801561045457600080fd5b50610317610463366004613902565b610f16565b34801561047457600080fd5b506102ca7f000000000000000000000000000000000000000000000000000000000000000081565b3480156104a857600080fd5b506102ca7f000000000000000000000000000000000000000000000000000000000000000081565b3480156104dc57600080fd5b506002546102ca906001600160a01b031681565b3480156104fc57600080fd5b5061031761050b3660046138d2565b610f94565b34801561051c57600080fd5b506102ca7f000000000000000000000000000000000000000000000000000000000000000081565b34801561055057600080fd5b5061031761055f366004613902565b61103f565b34801561057057600080fd5b5061029761057f36600461391d565b6110bd565b34801561059057600080fd5b5061059961116c565b604080519283526020830191909152016102a1565b3480156105ba57600080fd5b506103176105c9366004613939565b611208565b3480156105da57600080fd5b506102ca7f000000000000000000000000000000000000000000000000000000000000000081565b34801561060e57600080fd5b5061041861061d3660046138d2565b611253565b34801561062e57600080fd5b5061029761063d366004613863565b611291565b34801561064e57600080fd5b5061029761065d36600461391d565b6112d0565b34801561066e57600080fd5b5061029761130f565b34801561068357600080fd5b50610297610692366004613955565b61139f565b3480156106a357600080fd5b506102ca6106b23660046138b7565b6113dd565b6106ca6106c536600461397d565b611454565b6040516102a19190613a4e565b3480156106e357600080fd5b506102976106f2366004613ab0565b6115ab565b34801561070357600080fd5b5061029761071236600461391d565b61165d565b34801561072357600080fd5b5061029760055481565b34801561073957600080fd5b50610317610748366004613902565b61169c565b34801561075957600080fd5b50610317610768366004613939565b5050565b34801561077857600080fd5b5061029761078736600461391d565b61171a565b34801561079857600080fd5b506102976107a736600461389c565b6117c2565b3480156107b857600080fd5b506103176107c7366004613902565b6119b4565b3480156107d857600080fd5b506102976107e7366004613ab0565b611a32565b3480156107f857600080fd5b506102977f000000000000000000000000000000000000000000000000000000000000000081565b34801561082c57600080fd5b506102ca7f000000000000000000000000000000000000000000000000000000000000000081565b34801561086057600080fd5b5061087461086f366004613ad2565b611a70565b604080519283529015156020830152016102a1565b34801561089557600080fd5b506103176108a436600461391d565b611edf565b3480156108b557600080fd5b506000546102ca9061010090046001600160a01b031681565b60006108d8611fe7565b6002546001600160a01b0316331461090c5760405163973d02cb60e01b815260040161090390613b0e565b60405180910390fd5b610916838361205c565b90506109206121e9565b92915050565b60008082600281111561093b5761093b613b34565b90506003811061098a576040516354a1577760e11b8152602060048201526019602482015278417373657420696e646578206f7574206f6620626f756e647360381b6044820152606401610903565b6007816003811061099d5761099d613b4a565b01546001600160a01b03169392505050565b6001546001600160a01b03166109fe5760405163c50656df60e01b815260206004820152601360248201527214195b991a5b99c818591b5a5b881d5b9cd95d606a1b6044820152606401610903565b6001546001600160a01b03163314610a4d5760405163973d02cb60e01b81526020600482015260116024820152702737ba103832b73234b7339030b236b4b760791b6044820152606401610903565b6001805460008054610100600160a81b0319166101006001600160a01b03808516820292909217928390556001600160a01b031990931690935560405191900490911681527f54e4612788f90384e6843298d7854436f3a585b2c3831ab66abf1de63bfa6c2d9060200160405180910390a1604051600081527fa728e84b447788a55ff664fbfb5c3983925f88b80b672a1b0b8271c94b22df359060200160405180910390a1565b600080610b01836113dd565b6040516370a0823160e01b81523060048201529091506001600160a01b038216906370a0823190602401602060405180830381865afa158015610b48573d6000803e3d6000fd5b505050506040513d601f19601f82011682018060405250810190610b6c9190613b60565b9392505050565b600080610b0183610926565b6002546001600160a01b03163314610baa5760405163973d02cb60e01b815260040161090390613b0e565b612710811115610bf5576040516354a1577760e11b8152602060048201526015602482015274536c697070616765206e6f7420696e2072616e676560581b6044820152606401610903565b60058190556040518181527f3579c05e37916c34ed62a19c1c6121d9d0f18354f1cc317f705700ddb1ba53ee906020015b60405180910390a150565b6000610c3b611fe7565b6002546001600160a01b03163314610c665760405163973d02cb60e01b815260040161090390613b0e565b7f00000000000000000000000000000000000000000000000000000000000000006001600160a01b0316633d18b9126040518163ffffffff1660e01b81526004016020604051808303816000875af1158015610cc6573d6000803e3d6000fd5b505050506040513d601f19601f82011682018060405250810190610cea9190613b79565b6040516370a0823160e01b81523060048201529091506000906001600160a01b037f000000000000000000000000000000000000000000000000000000000000000016906370a0823190602401602060405180830381865afa158015610d54573d6000803e3d6000fd5b505050506040513d601f19601f82011682018060405250810190610d789190613b60565b6040516370a0823160e01b81523060048201529091506000906001600160a01b037f000000000000000000000000000000000000000000000000000000000000000016906370a0823190602401602060405180830381865afa158015610de2573d6000803e3d6000fd5b505050506040513d601f19601f82011682018060405250810190610e069190613b60565b600354909150610e41907f0000000000000000000000000000000000000000000000000000000000000000906001600160a01b0316846121fc565b600354610e79907f0000000000000000000000000000000000000000000000000000000000000000906001600160a01b0316836121fc565b604080518415158152602081018490529081018290527f1ae950217358db2d7ba36e85e62f50f70697e390333aea8d481e5a8ce07aac3d9060600160405180910390a15050610ec66121e9565b90565b6000610ed3611fe7565b6002546001600160a01b03163314610efe5760405163973d02cb60e01b815260040161090390613b0e565b610f0782612304565b9050610f116121e9565b919050565b60005461010090046001600160a01b03163314610f465760405163973d02cb60e01b815260040161090390613b9b565b600180546001600160a01b0319166001600160a01b0383169081179091556040519081527fa728e84b447788a55ff664fbfb5c3983925f88b80b672a1b0b8271c94b22df3590602001610c26565b6002546001600160a01b03163314610fbf5760405163973d02cb60e01b815260040161090390613b0e565b61271081111561100a576040516354a1577760e11b8152602060048201526015602482015274536c697070616765206e6f7420696e2072616e676560581b6044820152606401610903565b60068190556040518181527f0f75d64b7a2af497eeb31639b1ee2e88f49e0e58b1eaee9d225e8f2d8553c17790602001610c26565b60005461010090046001600160a01b0316331461106f5760405163973d02cb60e01b815260040161090390613b9b565b600480546001600160a01b0319166001600160a01b0383169081179091556040519081527f59dea4585e1df1b7a22cafd3486f3c6080e7bd27c1450af2f11f192cb637658b90602001610c26565b60006110c7611fe7565b6002546001600160a01b031633146110f25760405163973d02cb60e01b815260040161090390613b0e565b6110fb82612498565b6111485760405163c50656df60e01b815260206004820152601b60248201527f57697468647261772066726f6d20636f6e766578206661696c656400000000006044820152606401610903565b6000611155600184612567565b90506111618482612712565b9150506109206121e9565b6040516246613160e11b815230600482015260009081906001600160a01b037f00000000000000000000000000000000000000000000000000000000000000001690628cc26290602401602060405180830381865afa1580156111d3573d6000803e3d6000fd5b505050506040513d601f19601f820116820180604052508101906111f79190613b60565b915061120282612a59565b90509091565b611210611fe7565b60005461010090046001600160a01b031633146112405760405163973d02cb60e01b815260040161090390613b9b565b61124b8233836121fc565b6107686121e9565b600061125d611fe7565b6002546001600160a01b031633146112885760405163973d02cb60e01b815260040161090390613b0e565b610f0782612498565b600061129b611fe7565b6002546001600160a01b031633146112c65760405163973d02cb60e01b815260040161090390613b0e565b6109168383612567565b60006112da611fe7565b6002546001600160a01b031633146113055760405163973d02cb60e01b815260040161090390613b0e565b6109168383612cdb565b6040516370a0823160e01b81523060048201526000907f00000000000000000000000000000000000000000000000000000000000000006001600160a01b0316906370a0823190602401602060405180830381865afa158015611376573d6000803e3d6000fd5b505050506040513d601f19601f8201168201806040525081019061139a9190613b60565b905090565b60006113a9611fe7565b6002546001600160a01b031633146113d45760405163973d02cb60e01b815260040161090390613b0e565b610f078261301a565b6000808260018111156113f2576113f2613b34565b905060028110611441576040516354a1577760e11b8152602060048201526019602482015278417373657420696e646578206f7574206f6620626f756e647360381b6044820152606401610903565b600a816002811061099d5761099d613b4a565b60608167ffffffffffffffff81111561146f5761146f613bbe565b6040519080825280602002602001820160405280156114a257816020015b606081526020019060019003908161148d5790505b50905060005b828110156115a457600080308686858181106114c6576114c6613b4a565b90506020028101906114d89190613bd4565b6040516114e6929190613c22565b600060405180830381855af49150503d8060008114611521576040519150601f19603f3d011682016040523d82523d6000602084013e611526565b606091505b5091509150816115715785858481811061154257611542613b4a565b90506020028101906115549190613bd4565b8260405163070c497560e21b815260040161090393929190613c32565b8084848151811061158457611584613b4a565b60200260200101819052505050808061159c90613c90565b9150506114a8565b5092915050565b60006115b5611fe7565b6002546001600160a01b031633146115e05760405163973d02cb60e01b815260040161090390613b0e565b60006115eb836132e8565b905060006115fa60018361205c565b905061160581612304565b6116525760405163c50656df60e01b815260206004820152601a60248201527f4465706f73697420696e746f20636f6e766578206661696c65640000000000006044820152606401610903565b915050610f116121e9565b6000611667611fe7565b6002546001600160a01b031633146116925760405163973d02cb60e01b815260040161090390613b0e565b6109168383612712565b60005461010090046001600160a01b031633146116cc5760405163973d02cb60e01b815260040161090390613b9b565b600280546001600160a01b0319166001600160a01b0383169081179091556040519081527fb3b3f5f64ab192e4b5fefde1f51ce9733bbdcf831951543b325aebd49cc27ec490602001610c26565b6000611724611fe7565b6002546001600160a01b0316331461174f5760405163973d02cb60e01b815260040161090390613b0e565b600061175b8484612cdb565b9050600061176a60018361205c565b905061177581612304565b6111615760405163c50656df60e01b815260206004820152601a60248201527f4465706f73697420696e746f20636f6e766578206661696c65640000000000006044820152606401610903565b6000806117cf60006113dd565b905060007f00000000000000000000000000000000000000000000000000000000000000006001600160a01b03166314f059796040518163ffffffff1660e01b81526004016040805180830381865afa158015611830573d6000803e3d6000fd5b505050506040513d601f19601f820116820180604052508101906118549190613ca9565b905060006001600160a01b037f000000000000000000000000000000000000000000000000000000000000000016637e42fc0c826001611893876136ea565b61189e90600a613e1b565b866040518563ffffffff1660e01b81526004016118be9493929190613e4d565b602060405180830381865afa1580156118db573d6000803e3d6000fd5b505050506040513d601f19601f820116820180604052508101906118ff9190613b60565b90507f00000000000000000000000000000000000000000000000000000000000000006001600160a01b031663cc2b27d78287600281111561194357611943613b34565b6040516001600160e01b031960e085901b1681526004810192909252600f0b6024820152604401602060405180830381865afa158015611987573d6000803e3d6000fd5b505050506040513d601f19601f820116820180604052508101906119ab9190613b60565b95945050505050565b60005461010090046001600160a01b031633146119e45760405163973d02cb60e01b815260040161090390613b9b565b600380546001600160a01b0319166001600160a01b0383169081179091556040519081527f2bebe3801c306ffa893b76894d5baf1cef32807aa974f6449595a9c2392f617490602001610c26565b6000611a3c611fe7565b6002546001600160a01b03163314611a675760405163973d02cb60e01b815260040161090390613b0e565b610f07826132e8565b600080600080611a8060006113dd565b9050611a8b816136ea565b60ff1691505060007f00000000000000000000000000000000000000000000000000000000000000006001600160a01b03166314f059796040518163ffffffff1660e01b81526004016040805180830381865afa158015611af0573d6000803e3d6000fd5b505050506040513d601f19601f82011682018060405250810190611b149190613ca9565b90506000604051806040016040528083600060028110611b3657611b36613b4a565b6020020151815260200183600160028110611b5357611b53613b4a565b60200201518152509050611b8f6040518060a0016040528060008152602001600081526020016000815260200160008152602001600081525090565b600081526bffffffffffffffffffffffff602082015260001960408201819052606082015282896001811115611bc757611bc7613b34565b60028110611bd757611bd7613b4a565b602002015160808201526000805b610100811015611e8c57600082600285600001518660200151611c089190613e74565b611c129190613e8c565b91508103611c205750611e8c565b80858d6001811115611c3457611c34613b34565b60028110611c4457611c44613b4a565b602002015260006001600160a01b037f000000000000000000000000000000000000000000000000000000000000000016637e42fc0c826001611c888c600a613eae565b8a6040518563ffffffff1660e01b8152600401611ca89493929190613e4d565b602060405180830381865afa158015611cc5573d6000803e3d6000fd5b505050506040513d601f19601f82011682018060405250810190611ce99190613b60565b905060007f00000000000000000000000000000000000000000000000000000000000000006001600160a01b031663cc2b27d7838f6002811115611d2f57611d2f613b34565b6040516001600160e01b031960e085901b1681526004810192909252600f0b6024820152604401602060405180830381865afa158015611d73573d6000803e3d6000fd5b505050506040513d601f19601f82011682018060405250810190611d979190613b60565b90506000611da5828e6137c3565b90508660400151811015611dc6576040870181905260608701849052611e14565b86604001518103611e14576000611de18589608001516137c3565b90506000611df789606001518a608001516137c3565b9050818111611e0a578860600151611e0c565b855b60608a015250505b8c821115611e495760008f6001811115611e3057611e30613b34565b03611e3d57838752611e72565b60208701849052611e72565b60008f6001811115611e5d57611e5d613b34565b03611e6e5760208701849052611e72565b8387525b839550505050508080611e8490613c90565b915050611be5565b508160800151826060015111611eb75781606001518260800151611eb09190613eba565b6000611ece565b81608001518260600151611ecb9190613eba565b60015b965096505050505050935093915050565b611ee7611fe7565b60005461010090046001600160a01b03163314611f175760405163973d02cb60e01b815260040161090390613b9b565b6000611f2283610926565b600454909150611f3d9082906001600160a01b0316846121fc565b6004805460405163bc04f0af60e01b81526001600160a01b03848116938201939093526024810185905291169063bc04f0af90604401600060405180830381600087803b158015611f8d57600080fd5b505af1158015611fa1573d6000803e3d6000fd5b505050507ff098d3d1fd8b18083ef9f120eac6c615ccd6fecd64a0c02733d67565cb615bfb8383604051611fd6929190613ee5565b60405180910390a1506107686121e9565b600160005460ff16600281111561200057612000613b34565b146120455760405163c50656df60e01b8152602060048201526014602482015273131bd8dac8185b1c9958591e4818db185a5b595960621b6044820152606401610903565b600080546002919060ff19166001835b0217905550565b600080612068846113dd565b9050612072613818565b838186600181111561208657612086613b34565b6002811061209657612096613b4a565b6020020152600654600090612710906120af9087613f00565b6120b99190613e8c565b90506120e7837f000000000000000000000000000000000000000000000000000000000000000060006137e5565b612112837f0000000000000000000000000000000000000000000000000000000000000000876137e5565b604051630b4c7e4d60e01b81526001600160a01b037f00000000000000000000000000000000000000000000000000000000000000001690630b4c7e4d906121609085908590600401613f1f565b6020604051808303816000875af115801561217f573d6000803e3d6000fd5b505050506040513d601f19601f820116820180604052508101906121a39190613b60565b93507f9138527697be6b50d0aa8fe0ccbba244d742c2477a875624affea814e56413738686866040516121d893929190613f3a565b60405180910390a150505092915050565b600080546001919060ff19168280612055565b6040516001600160a01b03838116602483015260448201839052600091829186169063a9059cbb60e01b906064015b60408051601f198184030181529181526020820180516001600160e01b03166001600160e01b03199094169390931790925290516122699190613f62565b6000604051808303816000865af19150503d80600081146122a6576040519150601f19603f3d011682016040523d82523d6000602084013e6122ab565b606091505b50915091508115806122d957508051158015906122d95750808060200190518101906122d79190613b79565b155b156122fd5784828260405163e7e40b5b60e01b815260040161090393929190613f7e565b5050505050565b60006123527f00000000000000000000000000000000000000000000000000000000000000007f000000000000000000000000000000000000000000000000000000000000000060006137e5565b61239d7f00000000000000000000000000000000000000000000000000000000000000007f0000000000000000000000000000000000000000000000000000000000000000846137e5565b6040516321d0683360e11b81527f0000000000000000000000000000000000000000000000000000000000000000600482015260248101839052600160448201527f00000000000000000000000000000000000000000000000000000000000000006001600160a01b0316906343a0d066906064016020604051808303816000875af1158015612431573d6000803e3d6000fd5b505050506040513d601f19601f820116820180604052508101906124559190613b79565b6040805184815282151560208201529192507f86a112658591e58b4c6b39b5f469b50e01ea594242685a09ca9c8c412c624cab91015b60405180910390a1919050565b604051636197390160e11b815260048101829052600060248201819052907f00000000000000000000000000000000000000000000000000000000000000006001600160a01b03169063c32e7202906044016020604051808303816000875af1158015612509573d6000803e3d6000fd5b505050506040513d601f19601f8201168201806040525081019061252d9190613b79565b6040805184815282151560208201529192507f658f65627d5cf077504ad9882cf96580212e284f1d4a183a14e75d66b7bf2a2f910161248b565b60008083600181111561257c5761257c613b34565b90506000670de0b6b3a76400007f00000000000000000000000000000000000000000000000000000000000000006001600160a01b031663bb7b8b806040518163ffffffff1660e01b8152600401602060405180830381865afa1580156125e7573d6000803e3d6000fd5b505050506040513d601f19601f8201168201806040525081019061260b9190613b60565b6126159086613f00565b61261f9190613e8c565b90506000612710600654836126349190613f00565b61263e9190613e8c565b604051630d2680e960e11b815260048101879052600f85900b6024820152604481018290529091507f00000000000000000000000000000000000000000000000000000000000000006001600160a01b031690631a4d01d2906064016020604051808303816000875af11580156126b9573d6000803e3d6000fd5b505050506040513d601f19601f820116820180604052508101906126dd9190613b60565b93507f89864951db9c48e63fbcda0e6990fa874aa27dcfd1a0233d5b7f0191d8117dc68686866040516121d893929190613f3a565b60008061271e84610926565b9050600061272c60016113dd565b9050600085600281111561274257612742613b34565b9050600061274f836136ea565b60ff169050600061275f856136ea565b61276c9060ff1683613eba565b90506000612710600554896127819190613f00565b61278b9190613e8c565b90506000670de0b6b3a76400007f00000000000000000000000000000000000000000000000000000000000000006001600160a01b031663bb7b8b806040518163ffffffff1660e01b8152600401602060405180830381865afa1580156127f6573d6000803e3d6000fd5b505050506040513d601f19601f8201168201806040525081019061281a9190613b60565b6128249084613f00565b61282e9190613e8c565b9050600061283d84600a613eae565b6128479083613e8c565b6040516370a0823160e01b81523060048201529091506000906001600160a01b038a16906370a0823190602401602060405180830381865afa158015612891573d6000803e3d6000fd5b505050506040513d601f19601f820116820180604052508101906128b59190613b60565b90506128e3887f000000000000000000000000000000000000000000000000000000000000000060006137e5565b61290e887f00000000000000000000000000000000000000000000000000000000000000008d6137e5565b604051630d2680e960e11b8152600481018c9052600f88900b6024820152604481018390527f00000000000000000000000000000000000000000000000000000000000000006001600160a01b031690631a4d01d290606401600060405180830381600087803b15801561298157600080fd5b505af1158015612995573d6000803e3d6000fd5b50506040516370a0823160e01b81523060048201528392506001600160a01b038c1691506370a0823190602401602060405180830381865afa1580156129df573d6000803e3d6000fd5b505050506040513d601f19601f82011682018060405250810190612a039190613b60565b612a0d9190613eba565b99507fa366ba3546107520427c72cf675adb2ba548bb24886f5b9833464f32332cabef8c8c8c604051612a4293929190613faa565b60405180910390a150505050505050505092915050565b6000807f00000000000000000000000000000000000000000000000000000000000000006001600160a01b03166318160ddd6040518163ffffffff1660e01b8152600401602060405180830381865afa158015612aba573d6000803e3d6000fd5b505050506040513d601f19601f82011682018060405250810190612ade9190613b60565b905060007f00000000000000000000000000000000000000000000000000000000000000006001600160a01b031663aa74e6226040518163ffffffff1660e01b8152600401602060405180830381865afa158015612b40573d6000803e3d6000fd5b505050506040513d601f19601f82011682018060405250810190612b649190613b60565b612b6e9083613e8c565b905060007f00000000000000000000000000000000000000000000000000000000000000006001600160a01b0316631f96e76f6040518163ffffffff1660e01b8152600401602060405180830381865afa158015612bd0573d6000803e3d6000fd5b505050506040513d601f19601f82011682018060405250810190612bf49190613b60565b9050808210612c0857506000949350505050565b6000612c148383613eba565b9050600082612c238389613f00565b612c2d9190613e8c565b90506000857f00000000000000000000000000000000000000000000000000000000000000006001600160a01b031663d5abeb016040518163ffffffff1660e01b8152600401602060405180830381865afa158015612c90573d6000803e3d6000fd5b505050506040513d601f19601f82011682018060405250810190612cb49190613b60565b612cbe9190613eba565b9050808211612ccd5781612ccf565b805b98975050505050505050565b600080612ce784610926565b90506000612cf560016113dd565b90506000612d02826136ea565b60ff1690506000612d12846136ea565b612d1f9060ff1683613eba565b9050612d29613836565b8681896002811115612d3d57612d3d613b34565b60038110612d4d57612d4d613b4a565b60200201526000612d5f83600a613eae565b612d699089613f00565b905060007f00000000000000000000000000000000000000000000000000000000000000006001600160a01b031663bb7b8b806040518163ffffffff1660e01b8152600401602060405180830381865afa158015612dcb573d6000803e3d6000fd5b505050506040513d601f19601f82011682018060405250810190612def9190613b60565b612e01670de0b6b3a764000084613f00565b612e0b9190613e8c565b9050600061271060055483612e209190613f00565b612e2a9190613e8c565b6040516370a0823160e01b81523060048201529091506000906001600160a01b038916906370a0823190602401602060405180830381865afa158015612e74573d6000803e3d6000fd5b505050506040513d601f19601f82011682018060405250810190612e989190613b60565b9050612ec6897f000000000000000000000000000000000000000000000000000000000000000060006137e5565b612ef1897f00000000000000000000000000000000000000000000000000000000000000008d6137e5565b604051634515cef360e01b81526001600160a01b037f00000000000000000000000000000000000000000000000000000000000000001690634515cef390612f3f9088908690600401613fc9565b600060405180830381600087803b158015612f5957600080fd5b505af1158015612f6d573d6000803e3d6000fd5b50506040516370a0823160e01b81523060048201528392506001600160a01b038b1691506370a0823190602401602060405180830381865afa158015612fb7573d6000803e3d6000fd5b505050506040513d601f19601f82011682018060405250810190612fdb9190613b60565b612fe59190613eba565b99507ff5d6ae3de3585a8b95401e13ed589e21338613d11ebb7240db73c8efc7f1d0638c8c8c604051612a4293929190613faa565b6040805180820191829052600091829190600a9060029082845b81546001600160a01b0316815260019091019060200180831161303457505050505090506000805b60028110156131505784816002811061307757613077613b4a565b60200201351561313e5784816002811061309357613093613b4a565b6020020135826130a39190613e74565b91506130e78382600281106130ba576130ba613b4a565b60200201517f000000000000000000000000000000000000000000000000000000000000000060006137e5565b61313e8382600281106130fc576130fc613b4a565b60200201517f000000000000000000000000000000000000000000000000000000000000000087846002811061313457613134613b4a565b60200201356137e5565b8061314881613c90565b91505061305c565b5060007f00000000000000000000000000000000000000000000000000000000000000006001600160a01b031663bb7b8b806040518163ffffffff1660e01b8152600401602060405180830381865afa1580156131b1573d6000803e3d6000fd5b505050506040513d601f19601f820116820180604052508101906131d59190613b60565b6131e7670de0b6b3a764000084613f00565b6131f19190613e8c565b90506000612710600654836132069190613f00565b6132109190613e8c565b604051630b4c7e4d60e01b81529091506001600160a01b037f00000000000000000000000000000000000000000000000000000000000000001690630b4c7e4d906132619089908590600401614001565b6020604051808303816000875af1158015613280573d6000803e3d6000fd5b505050506040513d601f19601f820116820180604052508101906132a49190613b60565b94507fc79e3936a14778ee778877366c7adf10cec6101c4658b0850d7249e21ffcad2486866040516132d7929190614001565b60405180910390a150505050919050565b60408051606081019182905260009182919060079060039082845b81546001600160a01b031681526001909101906020018083116133035750505050509050600061333360016113dd565b90506000613340826136ea565b60ff1690506000805b600381101561347e5786816003811061336457613364613b4a565b60200201351561346c57600061338f86836003811061338557613385613b4a565b60200201516136ea565b60ff16905060006133a08286613eba565b90506133ad81600a613eae565b8984600381106133bf576133bf613b4a565b60200201356133ce9190613f00565b6133d89085613e74565b935061341c8784600381106133ef576133ef613b4a565b60200201517f000000000000000000000000000000000000000000000000000000000000000060006137e5565b61346987846003811061343157613431613b4a565b60200201517f00000000000000000000000000000000000000000000000000000000000000008b866003811061313457613134613b4a565b50505b8061347681613c90565b915050613349565b5060007f00000000000000000000000000000000000000000000000000000000000000006001600160a01b031663bb7b8b806040518163ffffffff1660e01b8152600401602060405180830381865afa1580156134df573d6000803e3d6000fd5b505050506040513d601f19601f820116820180604052508101906135039190613b60565b613515670de0b6b3a764000084613f00565b61351f9190613e8c565b90506000612710600554836135349190613f00565b61353e9190613e8c565b6040516370a0823160e01b81523060048201529091506000906001600160a01b038716906370a0823190602401602060405180830381865afa158015613588573d6000803e3d6000fd5b505050506040513d601f19601f820116820180604052508101906135ac9190613b60565b604051634515cef360e01b81529091506001600160a01b037f00000000000000000000000000000000000000000000000000000000000000001690634515cef3906135fd908c908690600401614017565b600060405180830381600087803b15801561361757600080fd5b505af115801561362b573d6000803e3d6000fd5b50506040516370a0823160e01b81523060048201528392506001600160a01b03891691506370a0823190602401602060405180830381865afa158015613675573d6000803e3d6000fd5b505050506040513d601f19601f820116820180604052508101906136999190613b60565b6136a39190613eba565b97507f3957d146926645d56204102a1e3f3ec9829ba87658839326c70d7970cedbdff089896040516136d6929190614017565b60405180910390a150505050505050919050565b60408051600481526024810182526020810180516001600160e01b031663313ce56760e01b1790529051600091829182916001600160a01b038616916137309190613f62565b600060405180830381855afa9150503d806000811461376b576040519150601f19603f3d011682016040523d82523d6000602084013e613770565b606091505b5091509150811580613783575060208151105b156137a75783828260405163e7e40b5b60e01b815260040161090393929190613f7e565b808060200190518101906137bb919061402d565b949350505050565b60008183116137db576137d68383613eba565b610b6c565b610b6c8284613eba565b6040516001600160a01b03838116602483015260448201839052600091829186169063095ea7b360e01b9060640161222b565b60405180604001604052806002906020820280368337509192915050565b60405180606001604052806003906020820280368337509192915050565b803560028110610f1157600080fd5b6000806040838503121561387657600080fd5b61387f83613854565b946020939093013593505050565b803560038110610f1157600080fd5b6000602082840312156138ae57600080fd5b610b6c8261388d565b6000602082840312156138c957600080fd5b610b6c82613854565b6000602082840312156138e457600080fd5b5035919050565b80356001600160a01b0381168114610f1157600080fd5b60006020828403121561391457600080fd5b610b6c826138eb565b6000806040838503121561393057600080fd5b61387f8361388d565b6000806040838503121561394c57600080fd5b61387f836138eb565b60006040828403121561396757600080fd5b8260408301111561397757600080fd5b50919050565b6000806020838503121561399057600080fd5b823567ffffffffffffffff808211156139a857600080fd5b818501915085601f8301126139bc57600080fd5b8135818111156139cb57600080fd5b8660208260051b85010111156139e057600080fd5b60209290920196919550909350505050565b60005b83811015613a0d5781810151838201526020016139f5565b83811115613a1c576000848401525b50505050565b60008151808452613a3a8160208601602086016139f2565b601f01601f19169290920160200192915050565b6000602080830181845280855180835260408601915060408160051b870101925083870160005b82811015613aa357603f19888603018452613a91858351613a22565b94509285019290850190600101613a75565b5092979650505050505050565b600060608284031215613ac257600080fd5b8260608301111561397757600080fd5b600080600060608486031215613ae757600080fd5b613af084613854565b9250613afe6020850161388d565b9150604084013590509250925092565b6020808252600c908201526b2737ba1037b832b930ba37b960a11b604082015260600190565b634e487b7160e01b600052602160045260246000fd5b634e487b7160e01b600052603260045260246000fd5b600060208284031215613b7257600080fd5b5051919050565b600060208284031215613b8b57600080fd5b81518015158114610b6c57600080fd5b6020808252600990820152682737ba1030b236b4b760b91b604082015260600190565b634e487b7160e01b600052604160045260246000fd5b6000808335601e19843603018112613beb57600080fd5b83018035915067ffffffffffffffff821115613c0657600080fd5b602001915036819003821315613c1b57600080fd5b9250929050565b8183823760009101908152919050565b60408152826040820152828460608301376000606084830101526000601f19601f85011682016060838203016020840152613c706060820185613a22565b9695505050505050565b634e487b7160e01b600052601160045260246000fd5b600060018201613ca257613ca2613c7a565b5060010190565b600060408284031215613cbb57600080fd5b82601f830112613cca57600080fd5b6040516040810181811067ffffffffffffffff82111715613cfb57634e487b7160e01b600052604160045260246000fd5b8060405250806040840185811115613d1257600080fd5b845b81811015613d2c578051835260209283019201613d14565b509195945050505050565b600181815b80851115613d72578160001904821115613d5857613d58613c7a565b80851615613d6557918102915b93841c9390800290613d3c565b509250929050565b600082613d8957506001610920565b81613d9657506000610920565b8160018114613dac5760028114613db657613dd2565b6001915050610920565b60ff841115613dc757613dc7613c7a565b50506001821b610920565b5060208310610133831016604e8410600b8410161715613df5575081810a610920565b613dff8383613d37565b8060001904821115613e1357613e13613c7a565b029392505050565b6000610b6c60ff841683613d7a565b8060005b6002811015613a1c578151845260209384019390910190600101613e2e565b600f85810b825284900b60208201526040810183905260a081016119ab6060830184613e2a565b60008219821115613e8757613e87613c7a565b500190565b600082613ea957634e487b7160e01b600052601260045260246000fd5b500490565b6000610b6c8383613d7a565b600082821015613ecc57613ecc613c7a565b500390565b60038110613ee157613ee1613b34565b9052565b60408101613ef38285613ed1565b8260208301529392505050565b6000816000190483118215151615613f1a57613f1a613c7a565b500290565b60608101613f2d8285613e2a565b8260408301529392505050565b6060810160028510613f4e57613f4e613b34565b938152602081019290925260409091015290565b60008251613f748184602087016139f2565b9190910192915050565b6001600160a01b038416815282151560208201526060604082018190526000906119ab90830184613a22565b60608101613fb88286613ed1565b602082019390935260400152919050565b60808101818460005b6003811015613ff1578151835260209283019290910190600101613fd2565b5050508260608301529392505050565b6060810160408483378260408301529392505050565b6080810160608483378260608301529392505050565b60006020828403121561403f57600080fd5b815160ff81168114610b6c57600080fdfea26469706673582212205c922d9c19e4ef761e16f9c569ce6784d5412adf2b6fe94224cc27c2239c4fe564736f6c634300080d0033",
    "linkReferences": {}
  }
}