{
  "abi": [
    {
      "inputs": [
        {
          "internalType": "string",
          "name": "reason",
          "type": "string"
        }
      ],
      "name": "IllegalArgument",
      "type": "error"
    },
    {
      "inputs": [
        {
          "internalType": "uint256",
          "name": "currentBalance",
          "type": "uint256"
        },
        {
          "internalType": "uint256",
          "name": "repayAmount",
          "type": "uint256"
        }
      ],
      "name": "InexactTokens",
      "type": "error"
    },
    {
      "inputs": [],
      "name": "MintFailure",
      "type": "error"
    },
    {
      "inputs": [
        {
          "internalType": "address",
          "name": "sender",
          "type": "address"
        }
      ],
      "name": "Unauthorized",
      "type": "error"
    },
    {
      "inputs": [
        {
          "internalType": "address",
          "name": "yieldToken",
          "type": "address"
        }
      ],
      "name": "UnsupportedYieldToken",
      "type": "error"
    },
    {
      "inputs": [
        {
          "internalType": "address",
          "name": "pool",
          "type": "address"
        },
        {
          "internalType": "int128",
          "name": "poolInputIndex",
          "type": "int128"
        },
        {
          "internalType": "int128",
          "name": "poolOutputIndex",
          "type": "int128"
        },
        {
          "internalType": "address",
          "name": "alchemist",
          "type": "address"
        },
        {
          "internalType": "address",
          "name": "yieldToken",
          "type": "address"
        },
        {
          "internalType": "uint256",
          "name": "collateralInitial",
          "type": "uint256"
        },
        {
          "internalType": "uint256",
          "name": "collateralTotal",
          "type": "uint256"
        },
        {
          "internalType": "uint256",
          "name": "targetDebt",
          "type": "uint256"
        }
      ],
      "name": "autoleverage",
      "outputs": [],
      "stateMutability": "payable",
      "type": "function"
    },
    {
      "inputs": [
        {
          "internalType": "address[]",
          "name": "assets",
          "type": "address[]"
        },
        {
          "internalType": "uint256[]",
          "name": "amounts",
          "type": "uint256[]"
        },
        {
          "internalType": "uint256[]",
          "name": "premiums",
          "type": "uint256[]"
        },
        {
          "internalType": "address",
          "name": "initiator",
          "type": "address"
        },
        {
          "internalType": "bytes",
          "name": "params",
          "type": "bytes"
        }
      ],
      "name": "executeOperation",
      "outputs": [
        {
          "internalType": "bool",
          "name": "",
          "type": "bool"
        }
      ],
      "stateMutability": "nonpayable",
      "type": "function"
    },
    {
      "inputs": [],
      "name": "wethAddress",
      "outputs": [
        {
          "internalType": "address",
          "name": "",
          "type": "address"
        }
      ],
      "stateMutability": "view",
      "type": "function"
    },
    {
      "stateMutability": "payable",
      "type": "receive"
    }
  ],
  "bytecode": {
    "object": "0x608060405234801561001057600080fd5b506112c7806100206000396000f3fe6080604052600436106100385760003560e01c80634f0e0ef314610044578063920f5c8414610089578063e5fdddf9146100b957600080fd5b3661003f57005b600080fd5b34801561005057600080fd5b5061006c73c02aaa39b223fe8d0a0e5c4f27ead9083c756cc281565b6040516001600160a01b0390911681526020015b60405180910390f35b34801561009557600080fd5b506100a96100a4366004610ce1565b6100ce565b6040519015158152602001610080565b6100cc6100c7366004610dfd565b6105f4565b005b600033737d2768de32b0b80b7a3454c06bdac94a69ddc7a91461010b5760405163472511eb60e11b81523360048201526024015b60405180910390fd5b6001600160a01b0384163014610164576040516354a1577760e11b815260206004820181905260248201527f666c6173686c6f616e20696e69746961746f72206d7573742062652073656c666044820152606401610102565b600061017283850185610ebb565b905060008787600081811061018957610189610f7c565b905060200201358a8a60008181106101a3576101a3610f7c565b905060200201356101b49190610fa8565b905060008c8c60008181106101cb576101cb610f7c565b90506020020160208101906101e09190610fc0565b6040516370a0823160e01b81523060048201526001600160a01b0391909116906370a0823190602401602060405180830381865afa158015610226573d6000803e3d6000fd5b505050506040513d601f19601f8201168201806040525081019061024a9190610fe4565b90506102818d8d600081811061026257610262610f7c565b90506020020160208101906102779190610fc0565b8460600151610983565b6060830151608084015160a0850151604051635efd4dd760e11b81526001600160a01b0392831660048201526024810185905290821660448201526000606482015291169063bdfa9bae906084016020604051808303816000875af11580156102ee573d6000803e3d6000fd5b505050506040513d601f19601f820116820180604052508101906103129190610fe4565b50606083015160a084015160c085015160405163288225c760e11b81526001600160a01b03928316600482015260248101919091523060448201529116906351044b8e90606401600060405180830381600087803b15801561037357600080fd5b505af1925050508015610384575060015b6103a157604051632f5d44a960e01b815260040160405180910390fd5b600083606001516001600160a01b031663f8d898986040518163ffffffff1660e01b8152600401602060405180830381865afa1580156103e5573d6000803e3d6000fd5b505050506040513d601f19601f820116820180604052508101906104099190611008565b9050600061042685600001518387602001518860400151886109fd565b905061043181610b05565b600061043d8583611025565b905080156104d8576060860151608087015160a0880151604051635efd4dd760e11b81526001600160a01b0392831660048201526024810185905290821660448201526000606482015291169063bdfa9bae906084016020604051808303816000875af11580156104b2573d6000803e3d6000fd5b505050506040513d601f19601f820116820180604052508101906104d69190610fe4565b505b5050506105208d8d60008181106104f1576104f1610f7c565b90506020020160208101906105069190610fc0565b737d2768de32b0b80b7a3454c06bdac94a69ddc7a9610983565b60008d8d600081811061053557610535610f7c565b905060200201602081019061054a9190610fc0565b6040516370a0823160e01b81523060048201526001600160a01b0391909116906370a0823190602401602060405180830381865afa158015610590573d6000803e3d6000fd5b505050506040513d601f19601f820116820180604052508101906105b49190610fe4565b90508281146105e057604051631c0b5bb560e01b81526004810182905260248101849052604401610102565b5060019d9c50505050505050505050505050565b323314806106705750604051633af32abf60e01b815233600482015273a3dfccbad1333dc69997da28c961ff8b2879e65390633af32abf90602401602060405180830381865afa15801561064c573d6000803e3d6000fd5b505050506040513d601f19601f82011682018060405250810190610670919061104c565b61068f5760405163472511eb60e11b8152336004820152602401610102565b604051635a5efc8b60e01b81526001600160a01b03858116600483015260009190871690635a5efc8b906024016101e060405180830381865afa1580156106da573d6000803e3d6000fd5b505050506040513d601f19601f820116820180604052508101906106fe9190611078565b6020015190506001600160a01b03811661073657604051630f391d7560e31b81526001600160a01b0386166004820152602401610102565b6107408185610b70565b60408051600180825281830190925260009160208083019080368337019050509050818160008151811061077657610776610f7c565b6001600160a01b0392909216602092830291909101909101526040805160018082528183019092526000918160200160208202803683370190505090506107bd8686611025565b816000815181106107d0576107d0610f7c565b602090810291909101015260408051600180825281830190925260009181602001602082028036833701905050905060008160008151811061081457610814610f7c565b60200260200101818152505060006040518060e001604052808e6001600160a01b031681526020018d600f0b81526020018c600f0b81526020018b6001600160a01b031681526020018a6001600160a01b03168152602001336001600160a01b03168152602001878152506040516020016108ee9190600060e08201905060018060a01b038084511683526020840151600f0b60208401526040840151600f0b60408401528060608501511660608401528060808501511660808401528060a08501511660a08401525060c083015160c083015292915050565b60408051601f198184030181529082905263ab9c4b5d60e01b82529150737d2768de32b0b80b7a3454c06bdac94a69ddc7a99063ab9c4b5d90610942903090889088908890600090899082906004016111d5565b600060405180830381600087803b15801561095c57600080fd5b505af1158015610970573d6000803e3d6000fd5b5050505050505050505050505050505050565b60405163095ea7b360e01b81526001600160a01b038281166004830152600019602483015283169063095ea7b3906044015b6020604051808303816000875af11580156109d4573d6000803e3d6000fd5b505050506040513d601f19601f820116820180604052508101906109f8919061104c565b505050565b6040516370a0823160e01b815230600482015260009081906001600160a01b038716906370a0823190602401602060405180830381865afa158015610a46573d6000803e3d6000fd5b505050506040513d601f19601f82011682018060405250810190610a6a9190610fe4565b9050610a768688610983565b604051630f7c084960e21b8152600f86810b600483015285900b602482015260448101829052606481018490526001600160a01b03881690633df02124906084016020604051808303816000875af1158015610ad6573d6000803e3d6000fd5b505050506040513d601f19601f82011682018060405250810190610afa9190610fe4565b979650505050505050565b73c02aaa39b223fe8d0a0e5c4f27ead9083c756cc26001600160a01b031663d0e30db0826040518263ffffffff1660e01b81526004016000604051808303818588803b158015610b5457600080fd5b505af1158015610b68573d6000803e3d6000fd5b505050505050565b3415610c4457803414610bd8576040516354a1577760e11b815260206004820152602960248201527f6d73672e76616c756520646f65736e2774206d6174636820636f6c6c61746572604482015268185b125b9a5d1a585b60ba1b6064820152608401610102565b73c02aaa39b223fe8d0a0e5c4f27ead9083c756cc26001600160a01b031663d0e30db0346040518263ffffffff1660e01b81526004016000604051808303818588803b158015610c2757600080fd5b505af1158015610c3b573d6000803e3d6000fd5b50505050505050565b6040516323b872dd60e01b8152336004820152306024820152604481018290526001600160a01b038316906323b872dd906064016109b5565b60008083601f840112610c8f57600080fd5b50813567ffffffffffffffff811115610ca757600080fd5b6020830191508360208260051b8501011115610cc257600080fd5b9250929050565b6001600160a01b0381168114610cde57600080fd5b50565b600080600080600080600080600060a08a8c031215610cff57600080fd5b893567ffffffffffffffff80821115610d1757600080fd5b610d238d838e01610c7d565b909b50995060208c0135915080821115610d3c57600080fd5b610d488d838e01610c7d565b909950975060408c0135915080821115610d6157600080fd5b610d6d8d838e01610c7d565b909750955060608c01359150610d8282610cc9565b90935060808b01359080821115610d9857600080fd5b818c0191508c601f830112610dac57600080fd5b813581811115610dbb57600080fd5b8d6020828501011115610dcd57600080fd5b6020830194508093505050509295985092959850929598565b8035600f81900b8114610df857600080fd5b919050565b600080600080600080600080610100898b031215610e1a57600080fd5b8835610e2581610cc9565b9750610e3360208a01610de6565b9650610e4160408a01610de6565b95506060890135610e5181610cc9565b94506080890135610e6181610cc9565b979a969950949793969560a0850135955060c08501359460e001359350915050565b6040516101e0810167ffffffffffffffff81118282101715610eb557634e487b7160e01b600052604160045260246000fd5b60405290565b600060e08284031215610ecd57600080fd5b60405160e0810181811067ffffffffffffffff82111715610efe57634e487b7160e01b600052604160045260246000fd5b6040528235610f0c81610cc9565b8152610f1a60208401610de6565b6020820152610f2b60408401610de6565b60408201526060830135610f3e81610cc9565b60608201526080830135610f5181610cc9565b608082015260a0830135610f6481610cc9565b60a082015260c0928301359281019290925250919050565b634e487b7160e01b600052603260045260246000fd5b634e487b7160e01b600052601160045260246000fd5b60008219821115610fbb57610fbb610f92565b500190565b600060208284031215610fd257600080fd5b8135610fdd81610cc9565b9392505050565b600060208284031215610ff657600080fd5b5051919050565b8051610df881610cc9565b60006020828403121561101a57600080fd5b8151610fdd81610cc9565b60008282101561103757611037610f92565b500390565b80518015158114610df857600080fd5b60006020828403121561105e57600080fd5b610fdd8261103c565b805160ff81168114610df857600080fd5b60006101e0828403121561108b57600080fd5b611093610e83565b61109c83611067565b81526110aa60208401610ffd565b60208201526110bb60408401610ffd565b6040820152606083810151908201526080808401519082015260a0808401519082015260c0808401519082015260e08084015190820152610100808401519082015261012080840151908201526101408084015190820152610160808401519082015261018080840151908201526101a080840151908201526101c061114281850161103c565b908201529392505050565b600081518084526020808501945080840160005b8381101561117d57815187529582019590820190600101611161565b509495945050505050565b6000815180845260005b818110156111ae57602081850181015186830182015201611192565b818111156111c0576000602083870101525b50601f01601f19169290920160200192915050565b6001600160a01b03888116825260e0602080840182905289519184018290526000928a820192909190610100860190855b81811015611224578551851683529483019491830191600101611206565b50508581036040870152611238818c61114d565b9350505050828103606084015261124f818861114d565b6001600160a01b0387166080850152905082810360a08401526112728186611188565b91505061128560c083018461ffff169052565b9897505050505050505056fea2646970667358221220d5b2bf8b8950a573a46abdaac15ebddab354bef92a322be8a5b0cc97d2cca6ab64736f6c634300080d0033",
    "linkReferences": {}
  }
}