{
  "abi": [
    {
      "inputs": [
        {
          "components": [
            {
              "internalType": "address",
              "name": "alchemist",
              "type": "address"
            },
            {
              "internalType": "address",
              "name": "token",
              "type": "address"
            },
            {
              "internalType": "address",
              "name": "underlyingToken",
              "type": "address"
            }
          ],
          "internalType": "struct InitializationParams",
          "name": "params",
          "type": "tuple"
        }
      ],
      "stateMutability": "nonpayable",
      "type": "constructor"
    },
    {
      "inputs": [
        {
          "internalType": "address",
          "name": "target",
          "type": "address"
        },
        {
          "internalType": "bool",
          "name": "success",
          "type": "bool"
        },
        {
          "internalType": "bytes",
          "name": "data",
          "type": "bytes"
        }
      ],
      "name": "ERC20CallFailed",
      "type": "error"
    },
    {
      "inputs": [
        {
          "internalType": "uint256",
          "name": "code",
          "type": "uint256"
        }
      ],
      "name": "FuseError",
      "type": "error"
    },
    {
      "inputs": [
        {
          "internalType": "string",
          "name": "message",
          "type": "string"
        }
      ],
      "name": "IllegalState",
      "type": "error"
    },
    {
      "inputs": [
        {
          "internalType": "string",
          "name": "message",
          "type": "string"
        }
      ],
      "name": "Unauthorized",
      "type": "error"
    },
    {
      "inputs": [],
      "name": "alchemist",
      "outputs": [
        {
          "internalType": "address",
          "name": "",
          "type": "address"
        }
      ],
      "stateMutability": "view",
      "type": "function"
    },
    {
      "inputs": [],
      "name": "price",
      "outputs": [
        {
          "internalType": "uint256",
          "name": "",
          "type": "uint256"
        }
      ],
      "stateMutability": "view",
      "type": "function"
    },
    {
      "inputs": [],
      "name": "token",
      "outputs": [
        {
          "internalType": "address",
          "name": "",
          "type": "address"
        }
      ],
      "stateMutability": "view",
      "type": "function"
    },
    {
      "inputs": [],
      "name": "underlyingToken",
      "outputs": [
        {
          "internalType": "address",
          "name": "",
          "type": "address"
        }
      ],
      "stateMutability": "view",
      "type": "function"
    },
    {
      "inputs": [
        {
          "internalType": "uint256",
          "name": "amount",
          "type": "uint256"
        },
        {
          "internalType": "address",
          "name": "recipient",
          "type": "address"
        }
      ],
      "name": "unwrap",
      "outputs": [
        {
          "internalType": "uint256",
          "name": "",
          "type": "uint256"
        }
      ],
      "stateMutability": "nonpayable",
      "type": "function"
    },
    {
      "inputs": [],
      "name": "version",
      "outputs": [
        {
          "internalType": "string",
          "name": "",
          "type": "string"
        }
      ],
      "stateMutability": "view",
      "type": "function"
    },
    {
      "inputs": [
        {
          "internalType": "uint256",
          "name": "amount",
          "type": "uint256"
        },
        {
          "internalType": "address",
          "name": "recipient",
          "type": "address"
        }
      ],
      "name": "wrap",
      "outputs": [
        {
          "internalType": "uint256",
          "name": "",
          "type": "uint256"
        }
      ],
      "stateMutability": "nonpayable",
      "type": "function"
    }
  ],
  "bytecode": {
    "object": "0x6000805460ff19166001908117909155610120604052600560e0819052640312e302e360dc1b61010090815262000037929162000092565b503480156200004557600080fd5b50604051620016ad380380620016ad833981016040819052620000689162000155565b80516001600160a01b039081166080526020820151811660a0526040909101511660c05262000212565b828054620000a090620001d6565b90600052602060002090601f016020900481019282620000c457600085556200010f565b82601f10620000df57805160ff19168380011785556200010f565b828001600101855582156200010f579182015b828111156200010f578251825591602001919060010190620000f2565b506200011d92915062000121565b5090565b5b808211156200011d576000815560010162000122565b80516001600160a01b03811681146200015057600080fd5b919050565b6000606082840312156200016857600080fd5b604051606081016001600160401b03811182821017156200019957634e487b7160e01b600052604160045260246000fd5b604052620001a78362000138565b8152620001b76020840162000138565b6020820152620001ca6040840162000138565b60408201529392505050565b600181811c90821680620001eb57607f821691505b6020821081036200020c57634e487b7160e01b600052602260045260246000fd5b50919050565b60805160a05160c051611403620002aa6000396000818160ad015281816101da01528181610206015281816105a8015281816106ed01526107750152600081816101430152818161022701528181610264015281816102de015281816103a901528181610431015281816105690152818161062201526107af01526000818161011401528181610172015261050601526114036000f3fe608060405234801561001057600080fd5b506004361061007d5760003560e01c80637647691d1161005b5780637647691d146100fc5780638de925f61461010f578063a035b1fe14610136578063fc0c546a1461013e57600080fd5b806313bac820146100825780632495a599146100a857806354fd4d50146100e7575b600080fd5b6100956100903660046111d1565b610165565b6040519081526020015b60405180910390f35b6100cf7f000000000000000000000000000000000000000000000000000000000000000081565b6040516001600160a01b03909116815260200161009f565b6100ef610463565b60405161009f919061125d565b61009561010a3660046111d1565b6104f1565b6100cf7f000000000000000000000000000000000000000000000000000000000000000081565b6100956107a8565b6100cf7f000000000000000000000000000000000000000000000000000000000000000081565b6000336001600160a01b037f000000000000000000000000000000000000000000000000000000000000000016146101d55760405163973d02cb60e01b815260206004820152600d60248201526c139bdd08185b18da195b5a5cdd609a1b60448201526064015b60405180910390fd5b6102017f00000000000000000000000000000000000000000000000000000000000000003330866107d8565b61024c7f00000000000000000000000000000000000000000000000000000000000000007f0000000000000000000000000000000000000000000000000000000000000000856108d8565b6040516370a0823160e01b81523060048201526000907f00000000000000000000000000000000000000000000000000000000000000006001600160a01b0316906370a0823190602401602060405180830381865afa1580156102b3573d6000803e3d6000fd5b505050506040513d601f19601f820116820180604052508101906102d79190611270565b90506000807f00000000000000000000000000000000000000000000000000000000000000006001600160a01b031663a0712d68876040518263ffffffff1660e01b815260040161032a91815260200190565b6020604051808303816000875af1158015610349573d6000803e3d6000fd5b505050506040513d601f19601f8201168201806040525081019061036d9190611270565b9150811461039157604051634f56fd4360e11b8152600481018290526024016101cc565b6040516370a0823160e01b81523060048201526000907f00000000000000000000000000000000000000000000000000000000000000006001600160a01b0316906370a0823190602401602060405180830381865afa1580156103f8573d6000803e3d6000fd5b505050506040513d601f19601f8201168201806040525081019061041c9190611270565b9050600061042a848361129f565b90506104577f000000000000000000000000000000000000000000000000000000000000000087836109e0565b93505050505b92915050565b60018054610470906112b6565b80601f016020809104026020016040519081016040528092919081815260200182805461049c906112b6565b80156104e95780601f106104be576101008083540402835291602001916104e9565b820191906000526020600020905b8154815290600101906020018083116104cc57829003601f168201915b505050505081565b60006104fb610a13565b336001600160a01b037f000000000000000000000000000000000000000000000000000000000000000016146105645760405163973d02cb60e01b815260206004820152600d60248201526c139bdd08185b18da195b5a5cdd609a1b60448201526064016101cc565b6105907f00000000000000000000000000000000000000000000000000000000000000003330866107d8565b6040516370a0823160e01b81523060048201526000907f00000000000000000000000000000000000000000000000000000000000000006001600160a01b0316906370a0823190602401602060405180830381865afa1580156105f7573d6000803e3d6000fd5b505050506040513d601f19601f8201168201806040525081019061061b9190611270565b90506000807f00000000000000000000000000000000000000000000000000000000000000006001600160a01b031663db006a75876040518263ffffffff1660e01b815260040161066e91815260200190565b6020604051808303816000875af115801561068d573d6000803e3d6000fd5b505050506040513d601f19601f820116820180604052508101906106b19190611270565b915081146106d557604051634f56fd4360e11b8152600481018290526024016101cc565b6040516370a0823160e01b81523060048201526000907f00000000000000000000000000000000000000000000000000000000000000006001600160a01b0316906370a0823190602401602060405180830381865afa15801561073c573d6000803e3d6000fd5b505050506040513d601f19601f820116820180604052508101906107609190611270565b9050600061076e848361129f565b905061079b7f000000000000000000000000000000000000000000000000000000000000000087836109e0565b935050505061045d610a88565b60006107d37f0000000000000000000000000000000000000000000000000000000000000000610a9b565b905090565b604080516001600160a01b0385811660248301528481166044830152606480830185905283518084039091018152608490920183526020820180516001600160e01b03166323b872dd60e01b179052915160009283929088169161083c91906112f0565b6000604051808303816000865af19150503d8060008114610879576040519150601f19603f3d011682016040523d82523d6000602084013e61087e565b606091505b50915091508115806108ac57508051158015906108ac5750808060200190518101906108aa919061130c565b155b156108d05785828260405163e7e40b5b60e01b81526004016101cc9392919061132e565b505050505050565b6040516001600160a01b03838116602483015260448201839052600091829186169063095ea7b360e01b906064015b60408051601f198184030181529181526020820180516001600160e01b03166001600160e01b031990941693909317909252905161094591906112f0565b6000604051808303816000865af19150503d8060008114610982576040519150601f19603f3d011682016040523d82523d6000602084013e610987565b606091505b50915091508115806109b557508051158015906109b55750808060200190518101906109b3919061130c565b155b156109d95784828260405163e7e40b5b60e01b81526004016101cc9392919061132e565b5050505050565b6040516001600160a01b03838116602483015260448201839052600091829186169063a9059cbb60e01b90606401610907565b600160005460ff166002811115610a2c57610a2c611363565b14610a715760405163c50656df60e01b8152602060048201526014602482015273131bd8dac8185b1c9958591e4818db185a5b595960621b60448201526064016101cc565b600080546002919060ff19166001835b0217905550565b600080546001919060ff19168280610a81565b600080826001600160a01b0316636c540baf6040518163ffffffff1660e01b8152600401602060405180830381865afa158015610adc573d6000803e3d6000fd5b505050506040513d601f19601f82011682018060405250810190610b009190611270565b9050438103610b7257826001600160a01b031663182df0f56040518163ffffffff1660e01b8152600401602060405180830381865afa158015610b47573d6000803e3d6000fd5b505050506040513d601f19601f82011682018060405250810190610b6b9190611270565b9392505050565b6000836001600160a01b0316636f307dc36040518163ffffffff1660e01b8152600401602060405180830381865afa158015610bb2573d6000803e3d6000fd5b505050506040513d601f19601f82011682018060405250810190610bd69190611379565b6040516370a0823160e01b81526001600160a01b03868116600483015291909116906370a0823190602401602060405180830381865afa158015610c1e573d6000803e3d6000fd5b505050506040513d601f19601f82011682018060405250810190610c429190611270565b90506000846001600160a01b03166347bd37186040518163ffffffff1660e01b8152600401602060405180830381865afa158015610c84573d6000803e3d6000fd5b505050506040513d601f19601f82011682018060405250810190610ca89190611270565b90506000856001600160a01b0316638f840ddd6040518163ffffffff1660e01b8152600401602060405180830381865afa158015610cea573d6000803e3d6000fd5b505050506040513d601f19601f82011682018060405250810190610d0e9190611270565b90506000866001600160a01b03166361feacff6040518163ffffffff1660e01b8152600401602060405180830381865afa158015610d50573d6000803e3d6000fd5b505050506040513d601f19601f82011682018060405250810190610d749190611270565b90506000876001600160a01b031663dc028ab16040518163ffffffff1660e01b8152600401602060405180830381865afa158015610db6573d6000803e3d6000fd5b505050506040513d601f19601f82011682018060405250810190610dda9190611270565b9050600080896001600160a01b031663f3fdb15a6040518163ffffffff1660e01b8152600401602060405180830381865afa158015610e1d573d6000803e3d6000fd5b505050506040513d601f19601f82011682018060405250810190610e419190611379565b6001600160a01b03166315f24053888886610e5c898b611396565b610e669190611396565b6040516001600160e01b031960e086901b168152600481019390935260248301919091526044820152606401602060405180830381865afa158015610eaf573d6000803e3d6000fd5b505050506040513d601f19601f82011682018060405250810190610ed39190611270565b905065048c27395000811115610f1b5760405162461bcd60e51b815260206004820152600d60248201526c0a482a88abea89e9ebe90928e9609b1b60448201526064016101cc565b610f3986610f298a4361129f565b610f3390846113ae565b90611174565b915050600084610fa5838c6001600160a01b031663173b99046040518163ffffffff1660e01b8152600401602060405180830381865afa158015610f81573d6000803e3d6000fd5b505050506040513d601f19601f82011682018060405250810190610f339190611270565b610faf9190611396565b9050600084610ff6848d6001600160a01b0316638d02d9a16040518163ffffffff1660e01b8152600401602060405180830381865afa158015610f81573d6000803e3d6000fd5b6110009190611396565b9050600084611047858e6001600160a01b031663dbfe7c196040518163ffffffff1660e01b8152600401602060405180830381865afa158015610f81573d6000803e3d6000fd5b6110519190611396565b905060008c6001600160a01b03166318160ddd6040518163ffffffff1660e01b8152600401602060405180830381865afa158015611093573d6000803e3d6000fd5b505050506040513d601f19601f820116820180604052508101906110b79190611270565b90508015611101576110fc81836110ce8688611396565b6110d89190611396565b6110e28c89611396565b6110ec908e611396565b6110f6919061129f565b90611189565b611163565b8c6001600160a01b031663675d972c6040518163ffffffff1660e01b8152600401602060405180830381865afa15801561113f573d6000803e3d6000fd5b505050506040513d601f19601f820116820180604052508101906111639190611270565b9d9c50505050505050505050505050565b6000610b6b8383670de0b6b3a764000061119a565b6000610b6b83670de0b6b3a7640000845b8282028115158415858304851417166111b257600080fd5b0492915050565b6001600160a01b03811681146111ce57600080fd5b50565b600080604083850312156111e457600080fd5b8235915060208301356111f6816111b9565b809150509250929050565b60005b8381101561121c578181015183820152602001611204565b8381111561122b576000848401525b50505050565b60008151808452611249816020860160208601611201565b601f01601f19169290920160200192915050565b602081526000610b6b6020830184611231565b60006020828403121561128257600080fd5b5051919050565b634e487b7160e01b600052601160045260246000fd5b6000828210156112b1576112b1611289565b500390565b600181811c908216806112ca57607f821691505b6020821081036112ea57634e487b7160e01b600052602260045260246000fd5b50919050565b60008251611302818460208701611201565b9190910192915050565b60006020828403121561131e57600080fd5b81518015158114610b6b57600080fd5b6001600160a01b0384168152821515602082015260606040820181905260009061135a90830184611231565b95945050505050565b634e487b7160e01b600052602160045260246000fd5b60006020828403121561138b57600080fd5b8151610b6b816111b9565b600082198211156113a9576113a9611289565b500190565b60008160001904831182151516156113c8576113c8611289565b50029056fea2646970667358221220ef7c2d04df643d070cdefb877a94bf6bb66063532666530eff7123188ad7864e64736f6c634300080d0033",
    "linkReferences": {}
  }
}