{
  "abi": [
    {
      "inputs": [
        {
          "internalType": "contract ThreePoolAssetManager",
          "name": "_manager",
          "type": "address"
        }
      ],
      "stateMutability": "nonpayable",
      "type": "constructor"
    },
    {
      "inputs": [],
      "name": "acceptAdmin",
      "outputs": [],
      "stateMutability": "nonpayable",
      "type": "function"
    }
  ],
  "bytecode": {
    "object": "0x608060405234801561001057600080fd5b5060405161015638038061015683398101604081905261002f91610054565b600080546001600160a01b0319166001600160a01b0392909216919091179055610084565b60006020828403121561006657600080fd5b81516001600160a01b038116811461007d57600080fd5b9392505050565b60c4806100926000396000f3fe6080604052348015600f57600080fd5b506004361060285760003560e01c80630e18b68114602d575b600080fd5b60336035565b005b6000805460408051630e18b68160e01b815290516001600160a01b0390921692630e18b6819260048084019382900301818387803b158015607557600080fd5b505af11580156088573d6000803e3d6000fd5b5050505056fea26469706673582212200f9d95f9e994d5ed6b91df46ef9da2b064eadef056f1f97d870051057c9740f164736f6c634300080d0033",
    "linkReferences": {}
  }
}