{
  "abi": [
    {
      "inputs": [
        {
          "internalType": "contract EthAssetManager",
          "name": "_manager",
          "type": "address"
        }
      ],
      "stateMutability": "nonpayable",
      "type": "constructor"
    },
    {
      "inputs": [],
      "name": "acceptAdmin",
      "outputs": [],
      "stateMutability": "nonpayable",
      "type": "function"
    },
    {
      "stateMutability": "payable",
      "type": "receive"
    }
  ],
  "bytecode": {
    "object": "0x608060405234801561001057600080fd5b5060405161016038038061016083398101604081905261002f91610054565b600080546001600160a01b0319166001600160a01b0392909216919091179055610084565b60006020828403121561006657600080fd5b81516001600160a01b038116811461007d57600080fd5b9392505050565b60ce806100926000396000f3fe60806040526004361060205760003560e01c80630e18b68114602b57600080fd5b36602657005b600080fd5b348015603657600080fd5b50603d603f565b005b6000805460408051630e18b68160e01b815290516001600160a01b0390921692630e18b6819260048084019382900301818387803b158015607f57600080fd5b505af11580156092573d6000803e3d6000fd5b5050505056fea2646970667358221220d4a7eec03afde8a9b838cc88cb619ee0a6762cadc5e95db0caba596a3fcd268764736f6c634300080d0033",
    "linkReferences": {}
  }
}