{
  "abi": [
    {
      "inputs": [
        {
          "components": [
            {
              "internalType": "address",
              "name": "admin",
              "type": "address"
            },
            {
              "internalType": "address",
              "name": "operator",
              "type": "address"
            },
            {
              "internalType": "address",
              "name": "rewardReceiver",
              "type": "address"
            },
            {
              "internalType": "address",
              "name": "transmuterBuffer",
              "type": "address"
            },
            {
              "internalType": "contract IWETH9",
              "name": "weth",
              "type": "address"
            },
            {
              "internalType": "contract IERC20",
              "name": "curveToken",
              "type": "address"
            },
            {
              "internalType": "contract IEthStableMetaPool",
              "name": "metaPool",
              "type": "address"
            },
            {
              "internalType": "uint256",
              "name": "metaPoolSlippage",
              "type": "uint256"
            },
            {
              "internalType": "contract IConvexToken",
              "name": "convexToken",
              "type": "address"
            },
            {
              "internalType": "contract IConvexBooster",
              "name": "convexBooster",
              "type": "address"
            },
            {
              "internalType": "contract IConvexRewards",
              "name": "convexRewards",
              "type": "address"
            },
            {
              "internalType": "uint256",
              "name": "convexPoolId",
              "type": "uint256"
            }
          ],
          "internalType": "struct InitializationParams",
          "name": "params",
          "type": "tuple"
        }
      ],
      "stateMutability": "nonpayable",
      "type": "constructor"
    },
    {
      "inputs": [
        {
          "internalType": "address",
          "name": "target",
          "type": "address"
        },
        {
          "internalType": "bool",
          "name": "success",
          "type": "bool"
        },
        {
          "internalType": "bytes",
          "name": "data",
          "type": "bytes"
        }
      ],
      "name": "ERC20CallFailed",
      "type": "error"
    },
    {
      "inputs": [
        {
          "internalType": "string",
          "name": "message",
          "type": "string"
        }
      ],
      "name": "IllegalArgument",
      "type": "error"
    },
    {
      "inputs": [
        {
          "internalType": "string",
          "name": "message",
          "type": "string"
        }
      ],
      "name": "IllegalState",
      "type": "error"
    },
    {
      "inputs": [
        {
          "internalType": "bytes",
          "name": "data",
          "type": "bytes"
        },
        {
          "internalType": "bytes",
          "name": "result",
          "type": "bytes"
        }
      ],
      "name": "MulticallFailed",
      "type": "error"
    },
    {
      "inputs": [
        {
          "internalType": "string",
          "name": "message",
          "type": "string"
        }
      ],
      "name": "Unauthorized",
      "type": "error"
    },
    {
      "anonymous": false,
      "inputs": [
        {
          "indexed": false,
          "internalType": "address",
          "name": "admin",
          "type": "address"
        }
      ],
      "name": "AdminUpdated",
      "type": "event"
    },
    {
      "anonymous": false,
      "inputs": [
        {
          "indexed": false,
          "internalType": "enum MetaPoolAsset",
          "name": "asset",
          "type": "uint8"
        },
        {
          "indexed": false,
          "internalType": "uint256",
          "name": "amount",
          "type": "uint256"
        },
        {
          "indexed": false,
          "internalType": "uint256",
          "name": "withdrawn",
          "type": "uint256"
        }
      ],
      "name": "BurnMetaPoolTokens",
      "type": "event"
    },
    {
      "anonymous": false,
      "inputs": [
        {
          "indexed": false,
          "internalType": "bool",
          "name": "success",
          "type": "bool"
        },
        {
          "indexed": false,
          "internalType": "uint256",
          "name": "amountCurve",
          "type": "uint256"
        },
        {
          "indexed": false,
          "internalType": "uint256",
          "name": "amountConvex",
          "type": "uint256"
        }
      ],
      "name": "ClaimRewards",
      "type": "event"
    },
    {
      "anonymous": false,
      "inputs": [
        {
          "indexed": false,
          "internalType": "uint256",
          "name": "amount",
          "type": "uint256"
        },
        {
          "indexed": false,
          "internalType": "bool",
          "name": "success",
          "type": "bool"
        }
      ],
      "name": "DepositMetaPoolTokens",
      "type": "event"
    },
    {
      "anonymous": false,
      "inputs": [
        {
          "indexed": false,
          "internalType": "uint256",
          "name": "metaPoolSlippage",
          "type": "uint256"
        }
      ],
      "name": "MetaPoolSlippageUpdated",
      "type": "event"
    },
    {
      "anonymous": false,
      "inputs": [
        {
          "indexed": false,
          "internalType": "uint256[2]",
          "name": "amounts",
          "type": "uint256[2]"
        },
        {
          "indexed": false,
          "internalType": "uint256",
          "name": "mintedThreePoolTokens",
          "type": "uint256"
        }
      ],
      "name": "MintMetaPoolTokens",
      "type": "event"
    },
    {
      "anonymous": false,
      "inputs": [
        {
          "indexed": false,
          "internalType": "enum MetaPoolAsset",
          "name": "asset",
          "type": "uint8"
        },
        {
          "indexed": false,
          "internalType": "uint256",
          "name": "amount",
          "type": "uint256"
        },
        {
          "indexed": false,
          "internalType": "uint256",
          "name": "minted",
          "type": "uint256"
        }
      ],
      "name": "MintMetaPoolTokens",
      "type": "event"
    },
    {
      "anonymous": false,
      "inputs": [
        {
          "indexed": false,
          "internalType": "address",
          "name": "operator",
          "type": "address"
        }
      ],
      "name": "OperatorUpdated",
      "type": "event"
    },
    {
      "anonymous": false,
      "inputs": [
        {
          "indexed": false,
          "internalType": "address",
          "name": "pendingAdmin",
          "type": "address"
        }
      ],
      "name": "PendingAdminUpdated",
      "type": "event"
    },
    {
      "anonymous": false,
      "inputs": [
        {
          "indexed": false,
          "internalType": "uint256",
          "name": "amount",
          "type": "uint256"
        }
      ],
      "name": "ReclaimEth",
      "type": "event"
    },
    {
      "anonymous": false,
      "inputs": [
        {
          "indexed": false,
          "internalType": "address",
          "name": "rewardReceiver",
          "type": "address"
        }
      ],
      "name": "RewardReceiverUpdated",
      "type": "event"
    },
    {
      "anonymous": false,
      "inputs": [
        {
          "indexed": false,
          "internalType": "uint256",
          "name": "amount",
          "type": "uint256"
        }
      ],
      "name": "SweepEth",
      "type": "event"
    },
    {
      "anonymous": false,
      "inputs": [
        {
          "indexed": false,
          "internalType": "address",
          "name": "token",
          "type": "address"
        },
        {
          "indexed": false,
          "internalType": "uint256",
          "name": "amount",
          "type": "uint256"
        }
      ],
      "name": "SweepToken",
      "type": "event"
    },
    {
      "anonymous": false,
      "inputs": [
        {
          "indexed": false,
          "internalType": "address",
          "name": "transmuterBuffer",
          "type": "address"
        }
      ],
      "name": "TransmuterBufferUpdated",
      "type": "event"
    },
    {
      "anonymous": false,
      "inputs": [
        {
          "indexed": false,
          "internalType": "uint256",
          "name": "amount",
          "type": "uint256"
        },
        {
          "indexed": false,
          "internalType": "bool",
          "name": "success",
          "type": "bool"
        }
      ],
      "name": "WithdrawMetaPoolTokens",
      "type": "event"
    },
    {
      "inputs": [],
      "name": "acceptAdmin",
      "outputs": [],
      "stateMutability": "nonpayable",
      "type": "function"
    },
    {
      "inputs": [],
      "name": "admin",
      "outputs": [
        {
          "internalType": "address",
          "name": "",
          "type": "address"
        }
      ],
      "stateMutability": "view",
      "type": "function"
    },
    {
      "inputs": [
        {
          "internalType": "enum MetaPoolAsset",
          "name": "asset",
          "type": "uint8"
        },
        {
          "internalType": "uint256",
          "name": "amount",
          "type": "uint256"
        }
      ],
      "name": "burnMetaPoolTokens",
      "outputs": [
        {
          "internalType": "uint256",
          "name": "withdrawn",
          "type": "uint256"
        }
      ],
      "stateMutability": "nonpayable",
      "type": "function"
    },
    {
      "inputs": [],
      "name": "claimRewards",
      "outputs": [
        {
          "internalType": "bool",
          "name": "success",
          "type": "bool"
        }
      ],
      "stateMutability": "nonpayable",
      "type": "function"
    },
    {
      "inputs": [],
      "name": "claimableRewards",
      "outputs": [
        {
          "internalType": "uint256",
          "name": "amountCurve",
          "type": "uint256"
        },
        {
          "internalType": "uint256",
          "name": "amountConvex",
          "type": "uint256"
        }
      ],
      "stateMutability": "view",
      "type": "function"
    },
    {
      "inputs": [],
      "name": "convexBooster",
      "outputs": [
        {
          "internalType": "contract IConvexBooster",
          "name": "",
          "type": "address"
        }
      ],
      "stateMutability": "view",
      "type": "function"
    },
    {
      "inputs": [],
      "name": "convexPoolId",
      "outputs": [
        {
          "internalType": "uint256",
          "name": "",
          "type": "uint256"
        }
      ],
      "stateMutability": "view",
      "type": "function"
    },
    {
      "inputs": [],
      "name": "convexRewards",
      "outputs": [
        {
          "internalType": "contract IConvexRewards",
          "name": "",
          "type": "address"
        }
      ],
      "stateMutability": "view",
      "type": "function"
    },
    {
      "inputs": [],
      "name": "convexToken",
      "outputs": [
        {
          "internalType": "contract IConvexToken",
          "name": "",
          "type": "address"
        }
      ],
      "stateMutability": "view",
      "type": "function"
    },
    {
      "inputs": [],
      "name": "curveToken",
      "outputs": [
        {
          "internalType": "contract IERC20",
          "name": "",
          "type": "address"
        }
      ],
      "stateMutability": "view",
      "type": "function"
    },
    {
      "inputs": [
        {
          "internalType": "uint256",
          "name": "amount",
          "type": "uint256"
        }
      ],
      "name": "depositMetaPoolTokens",
      "outputs": [
        {
          "internalType": "bool",
          "name": "success",
          "type": "bool"
        }
      ],
      "stateMutability": "nonpayable",
      "type": "function"
    },
    {
      "inputs": [],
      "name": "exchangeRate",
      "outputs": [
        {
          "internalType": "uint256",
          "name": "",
          "type": "uint256"
        }
      ],
      "stateMutability": "view",
      "type": "function"
    },
    {
      "inputs": [
        {
          "internalType": "uint256[2]",
          "name": "amounts",
          "type": "uint256[2]"
        }
      ],
      "name": "flush",
      "outputs": [
        {
          "internalType": "uint256",
          "name": "",
          "type": "uint256"
        }
      ],
      "stateMutability": "nonpayable",
      "type": "function"
    },
    {
      "inputs": [
        {
          "internalType": "enum MetaPoolAsset",
          "name": "asset",
          "type": "uint8"
        },
        {
          "internalType": "uint256",
          "name": "amount",
          "type": "uint256"
        }
      ],
      "name": "flush",
      "outputs": [
        {
          "internalType": "uint256",
          "name": "",
          "type": "uint256"
        }
      ],
      "stateMutability": "nonpayable",
      "type": "function"
    },
    {
      "inputs": [
        {
          "internalType": "enum MetaPoolAsset",
          "name": "asset",
          "type": "uint8"
        }
      ],
      "name": "getTokenForMetaPoolAsset",
      "outputs": [
        {
          "internalType": "contract IERC20",
          "name": "",
          "type": "address"
        }
      ],
      "stateMutability": "view",
      "type": "function"
    },
    {
      "inputs": [],
      "name": "metaPool",
      "outputs": [
        {
          "internalType": "contract IEthStableMetaPool",
          "name": "",
          "type": "address"
        }
      ],
      "stateMutability": "view",
      "type": "function"
    },
    {
      "inputs": [
        {
          "internalType": "enum MetaPoolAsset",
          "name": "asset",
          "type": "uint8"
        }
      ],
      "name": "metaPoolAssetReserves",
      "outputs": [
        {
          "internalType": "uint256",
          "name": "",
          "type": "uint256"
        }
      ],
      "stateMutability": "view",
      "type": "function"
    },
    {
      "inputs": [],
      "name": "metaPoolReserves",
      "outputs": [
        {
          "internalType": "uint256",
          "name": "",
          "type": "uint256"
        }
      ],
      "stateMutability": "view",
      "type": "function"
    },
    {
      "inputs": [],
      "name": "metaPoolSlippage",
      "outputs": [
        {
          "internalType": "uint256",
          "name": "",
          "type": "uint256"
        }
      ],
      "stateMutability": "view",
      "type": "function"
    },
    {
      "inputs": [
        {
          "internalType": "enum MetaPoolAsset",
          "name": "asset",
          "type": "uint8"
        },
        {
          "internalType": "uint256",
          "name": "amount",
          "type": "uint256"
        }
      ],
      "name": "mintMetaPoolTokens",
      "outputs": [
        {
          "internalType": "uint256",
          "name": "minted",
          "type": "uint256"
        }
      ],
      "stateMutability": "nonpayable",
      "type": "function"
    },
    {
      "inputs": [
        {
          "internalType": "uint256[2]",
          "name": "amounts",
          "type": "uint256[2]"
        }
      ],
      "name": "mintMetaPoolTokens",
      "outputs": [
        {
          "internalType": "uint256",
          "name": "minted",
          "type": "uint256"
        }
      ],
      "stateMutability": "nonpayable",
      "type": "function"
    },
    {
      "inputs": [
        {
          "internalType": "bytes[]",
          "name": "data",
          "type": "bytes[]"
        }
      ],
      "name": "multicall",
      "outputs": [
        {
          "internalType": "bytes[]",
          "name": "results",
          "type": "bytes[]"
        }
      ],
      "stateMutability": "payable",
      "type": "function"
    },
    {
      "inputs": [
        {
          "internalType": "address",
          "name": "token",
          "type": "address"
        },
        {
          "internalType": "uint256",
          "name": "value",
          "type": "uint256"
        }
      ],
      "name": "onERC20Received",
      "outputs": [],
      "stateMutability": "nonpayable",
      "type": "function"
    },
    {
      "inputs": [],
      "name": "operator",
      "outputs": [
        {
          "internalType": "address",
          "name": "",
          "type": "address"
        }
      ],
      "stateMutability": "view",
      "type": "function"
    },
    {
      "inputs": [],
      "name": "pendingAdmin",
      "outputs": [
        {
          "internalType": "address",
          "name": "",
          "type": "address"
        }
      ],
      "stateMutability": "view",
      "type": "function"
    },
    {
      "inputs": [
        {
          "internalType": "uint256",
          "name": "amount",
          "type": "uint256"
        }
      ],
      "name": "recall",
      "outputs": [
        {
          "internalType": "uint256",
          "name": "",
          "type": "uint256"
        }
      ],
      "stateMutability": "nonpayable",
      "type": "function"
    },
    {
      "inputs": [
        {
          "internalType": "uint256",
          "name": "amount",
          "type": "uint256"
        }
      ],
      "name": "reclaimEth",
      "outputs": [],
      "stateMutability": "nonpayable",
      "type": "function"
    },
    {
      "inputs": [],
      "name": "rewardReceiver",
      "outputs": [
        {
          "internalType": "address",
          "name": "",
          "type": "address"
        }
      ],
      "stateMutability": "view",
      "type": "function"
    },
    {
      "inputs": [
        {
          "internalType": "uint256",
          "name": "value",
          "type": "uint256"
        }
      ],
      "name": "setMetaPoolSlippage",
      "outputs": [],
      "stateMutability": "nonpayable",
      "type": "function"
    },
    {
      "inputs": [
        {
          "internalType": "address",
          "name": "value",
          "type": "address"
        }
      ],
      "name": "setOperator",
      "outputs": [],
      "stateMutability": "nonpayable",
      "type": "function"
    },
    {
      "inputs": [
        {
          "internalType": "address",
          "name": "value",
          "type": "address"
        }
      ],
      "name": "setPendingAdmin",
      "outputs": [],
      "stateMutability": "nonpayable",
      "type": "function"
    },
    {
      "inputs": [
        {
          "internalType": "address",
          "name": "value",
          "type": "address"
        }
      ],
      "name": "setRewardReceiver",
      "outputs": [],
      "stateMutability": "nonpayable",
      "type": "function"
    },
    {
      "inputs": [
        {
          "internalType": "address",
          "name": "value",
          "type": "address"
        }
      ],
      "name": "setTransmuterBuffer",
      "outputs": [],
      "stateMutability": "nonpayable",
      "type": "function"
    },
    {
      "inputs": [
        {
          "internalType": "uint256",
          "name": "amount",
          "type": "uint256"
        }
      ],
      "name": "sweepEth",
      "outputs": [
        {
          "internalType": "bytes",
          "name": "result",
          "type": "bytes"
        }
      ],
      "stateMutability": "nonpayable",
      "type": "function"
    },
    {
      "inputs": [
        {
          "internalType": "address",
          "name": "token",
          "type": "address"
        },
        {
          "internalType": "uint256",
          "name": "amount",
          "type": "uint256"
        }
      ],
      "name": "sweepToken",
      "outputs": [],
      "stateMutability": "nonpayable",
      "type": "function"
    },
    {
      "inputs": [],
      "name": "transmuterBuffer",
      "outputs": [
        {
          "internalType": "address",
          "name": "",
          "type": "address"
        }
      ],
      "stateMutability": "view",
      "type": "function"
    },
    {
      "inputs": [],
      "name": "weth",
      "outputs": [
        {
          "internalType": "contract IWETH9",
          "name": "",
          "type": "address"
        }
      ],
      "stateMutability": "view",
      "type": "function"
    },
    {
      "inputs": [
        {
          "internalType": "uint256",
          "name": "amount",
          "type": "uint256"
        }
      ],
      "name": "withdrawMetaPoolTokens",
      "outputs": [
        {
          "internalType": "bool",
          "name": "success",
          "type": "bool"
        }
      ],
      "stateMutability": "nonpayable",
      "type": "function"
    },
    {
      "stateMutability": "payable",
      "type": "receive"
    }
  ],
  "bytecode": {
    "object": "0x6101406040526000805460ff191660011790553480156200001f57600080fd5b506040516200368c3803806200368c8339810160408190526200004291620003fb565b805160008054610100600160a81b0319166101006001600160a01b0393841681029190911782556020840151600280546001600160a01b031990811692861692909217905560408501516003805483169186169190911790556060850151600480548316918616919091179055608080860151600580549093169086161790915560a080860151851690915260c080860151851690915260e08086015160065582860151851690915261012080860151851690915261014085015190931690526101608301519091525b6002811015620002505760c082015160405163c661065760e01b8152600481018390526001600160a01b039091169063c661065790602401602060405180830381865afa15801562000162573d6000803e3d6000fd5b505050506040513d601f19601f82011682018060405250810190620001889190620004f2565b600782600281106200019e576200019e62000519565b0180546001600160a01b0319166001600160a01b039290921691909117905573eeeeeeeeeeeeeeeeeeeeeeeeeeeeeeeeeeeeeeee60078260028110620001e857620001e862000519565b01546001600160a01b0316036200023b576005546001600160a01b0316600782600281106200021b576200021b62000519565b0180546001600160a01b0319166001600160a01b03929092169190911790555b8062000247816200052f565b9150506200010c565b506000546040516101009091046001600160a01b031681527f54e4612788f90384e6843298d7854436f3a585b2c3831ab66abf1de63bfa6c2d9060200160405180910390a16002546040516001600160a01b0390911681527fb3b3f5f64ab192e4b5fefde1f51ce9733bbdcf831951543b325aebd49cc27ec49060200160405180910390a16003546040516001600160a01b0390911681527f2bebe3801c306ffa893b76894d5baf1cef32807aa974f6449595a9c2392f61749060200160405180910390a16004546040516001600160a01b0390911681527f59dea4585e1df1b7a22cafd3486f3c6080e7bd27c1450af2f11f192cb637658b9060200160405180910390a17f0f75d64b7a2af497eeb31639b1ee2e88f49e0e58b1eaee9d225e8f2d8553c1776006546040516200038991815260200190565b60405180910390a15062000557565b60405161018081016001600160401b0381118282101715620003ca57634e487b7160e01b600052604160045260246000fd5b60405290565b6001600160a01b0381168114620003e657600080fd5b50565b8051620003f681620003d0565b919050565b600061018082840312156200040f57600080fd5b6200041962000398565b6200042483620003e9565b81526200043460208401620003e9565b60208201526200044760408401620003e9565b60408201526200045a60608401620003e9565b60608201526200046d60808401620003e9565b60808201526200048060a08401620003e9565b60a08201526200049360c08401620003e9565b60c082015260e083015160e0820152610100620004b2818501620003e9565b90820152610120620004c6848201620003e9565b90820152610140620004da848201620003e9565b90820152610160928301519281019290925250919050565b6000602082840312156200050557600080fd5b81516200051281620003d0565b9392505050565b634e487b7160e01b600052603260045260246000fd5b6000600182016200055057634e487b7160e01b600052601160045260246000fd5b5060010190565b60805160a05160c05160e051610100516101205161301a62000672600039600081816106f401526122d101526000818161054c01528181610a6c015281816111f2015261265f01526000818161033f015281816122510152818161229d015261230501526000818161072801528181610b9f01528181610c4e015281816123c201528181612448015281816124d801526125980152600081816104ce01528181610e1301528181610e9e0152818161139801528181611b2301528181611b4f01528181611c2701528181611f8a01528181611fcc0152818161201e01528181612168015281816122300152818161227c01528181612732015261280f01526000818161045a01528181610b110152610c16015261301a6000f3fe6080604052600436106102295760003560e01c80636464cdb111610123578063ac9650d8116100ab578063dae254dd1161006f578063dae254dd146106c2578063e529ee95146106e2578063e89133b214610716578063e90a182f1461074a578063f851a4401461076a57600080fd5b8063ac9650d814610623578063b3ab15fb14610643578063bc04f0af14610663578063bd6acfa614610682578063be9b3e8a146106a257600080fd5b80637d7a1c20116100f25780637d7a1c201461058e57806393c6b5ad146105ae578063a7236197146105ce578063a747e190146105e3578063a96404571461060357600080fd5b80636464cdb1146104f05780636c003a9b1461051057806379054cc91461053a5780637d32e7931461056e57600080fd5b806338e95769116101b15780634dd18bf5116101755780634dd18bf5146104285780634f39059c14610448578063570ca7351461047c5780635a89233a1461049c5780635acb5da9146104bc57600080fd5b806338e95769146103865780633ba0b9a9146103b35780633fc8cef3146103c857806341af8cb2146103e857806346e8de4f1461040857600080fd5b80631dac30b0116101f85780631dac30b0146102d757806326782247146102f75780632c68ea9c146103175780632cdacb501461032d578063372500ab1461036157600080fd5b8063079c077e146102355780630dc3d0ff146102685780630e18b681146102a05780631911e893146102b757600080fd5b3661023057005b600080fd5b34801561024157600080fd5b50610255610250366004612919565b61078f565b6040519081526020015b60405180910390f35b34801561027457600080fd5b50600454610288906001600160a01b031681565b6040516001600160a01b03909116815260200161025f565b3480156102ac57600080fd5b506102b56107e7565b005b3480156102c357600080fd5b506102556102d2366004612943565b61092d565b3480156102e357600080fd5b50600354610288906001600160a01b031681565b34801561030357600080fd5b50600154610288906001600160a01b031681565b34801561032357600080fd5b5061025560065481565b34801561033957600080fd5b506102887f000000000000000000000000000000000000000000000000000000000000000081565b34801561036d57600080fd5b50610376610a35565b604051901515815260200161025f565b34801561039257600080fd5b506103a66103a136600461295e565b610ccd565b60405161025f91906129d3565b3480156103bf57600080fd5b50610255610e00565b3480156103d457600080fd5b50600554610288906001600160a01b031681565b3480156103f457600080fd5b506102556104033660046129e6565b610f43565b34801561041457600080fd5b5061037661042336600461295e565b610fe5565b34801561043457600080fd5b506102b5610443366004612a25565b611023565b34801561045457600080fd5b506102887f000000000000000000000000000000000000000000000000000000000000000081565b34801561048857600080fd5b50600254610288906001600160a01b031681565b3480156104a857600080fd5b506102b56104b736600461295e565b6110a8565b3480156104c857600080fd5b506102887f000000000000000000000000000000000000000000000000000000000000000081565b3480156104fc57600080fd5b506102b561050b366004612a25565b611153565b34801561051c57600080fd5b506105256111d1565b6040805192835260208301919091520161025f565b34801561054657600080fd5b506102887f000000000000000000000000000000000000000000000000000000000000000081565b34801561057a57600080fd5b5061025561058936600461295e565b61126d565b34801561059a57600080fd5b506103766105a936600461295e565b611303565b3480156105ba57600080fd5b506102556105c9366004612919565b611341565b3480156105da57600080fd5b50610255611380565b3480156105ef57600080fd5b506102556105fe3660046129e6565b611410565b34801561060f57600080fd5b5061028861061e366004612943565b61144e565b610636610631366004612a40565b6114db565b60405161025f9190612ab5565b34801561064f57600080fd5b506102b561065e366004612a25565b611632565b34801561066f57600080fd5b506102b561067e366004612b17565b5050565b34801561068e57600080fd5b5061025561069d366004612919565b6116b0565b3480156106ae57600080fd5b506102b56106bd36600461295e565b611749565b3480156106ce57600080fd5b506102b56106dd366004612a25565b611924565b3480156106ee57600080fd5b506102557f000000000000000000000000000000000000000000000000000000000000000081565b34801561072257600080fd5b506102887f000000000000000000000000000000000000000000000000000000000000000081565b34801561075657600080fd5b506102b5610765366004612b17565b6119a2565b34801561077657600080fd5b506000546102889061010090046001600160a01b031681565b6000610799611a2f565b6002546001600160a01b031633146107cd5760405163973d02cb60e01b81526004016107c490612b33565b60405180910390fd5b6107d78383611aa4565b90506107e1611ce9565b92915050565b6001546001600160a01b03166108365760405163c50656df60e01b815260206004820152601360248201527214195b991a5b99c818591b5a5b881d5b9cd95d606a1b60448201526064016107c4565b6001546001600160a01b031633146108855760405163973d02cb60e01b81526020600482015260116024820152702737ba103832b73234b7339030b236b4b760791b60448201526064016107c4565b6001805460008054610100600160a81b0319166101006001600160a01b03808516820292909217928390556001600160a01b031990931690935560405191900490911681527f54e4612788f90384e6843298d7854436f3a585b2c3831ab66abf1de63bfa6c2d9060200160405180910390a1604051600081527fa728e84b447788a55ff664fbfb5c3983925f88b80b672a1b0b8271c94b22df359060200160405180910390a1565b6000806109398361144e565b9050600083600181111561094f5761094f612b59565b036109cd576040516370a0823160e01b81523060048201526001600160a01b038216906370a0823190602401602060405180830381865afa158015610998573d6000803e3d6000fd5b505050506040513d601f19601f820116820180604052508101906109bc9190612b6f565b6109c69047612b9e565b9392505050565b6040516370a0823160e01b81523060048201526001600160a01b038216906370a0823190602401602060405180830381865afa158015610a11573d6000803e3d6000fd5b505050506040513d601f19601f820116820180604052508101906109c69190612b6f565b6000610a3f611a2f565b6002546001600160a01b03163314610a6a5760405163973d02cb60e01b81526004016107c490612b33565b7f00000000000000000000000000000000000000000000000000000000000000006001600160a01b0316633d18b9126040518163ffffffff1660e01b81526004016020604051808303816000875af1158015610aca573d6000803e3d6000fd5b505050506040513d601f19601f82011682018060405250810190610aee9190612bb6565b6040516370a0823160e01b81523060048201529091506000906001600160a01b037f000000000000000000000000000000000000000000000000000000000000000016906370a0823190602401602060405180830381865afa158015610b58573d6000803e3d6000fd5b505050506040513d601f19601f82011682018060405250810190610b7c9190612b6f565b6040516370a0823160e01b81523060048201529091506000906001600160a01b037f000000000000000000000000000000000000000000000000000000000000000016906370a0823190602401602060405180830381865afa158015610be6573d6000803e3d6000fd5b505050506040513d601f19601f82011682018060405250810190610c0a9190612b6f565b600354909150610c45907f0000000000000000000000000000000000000000000000000000000000000000906001600160a01b031684611cfc565b600354610c7d907f0000000000000000000000000000000000000000000000000000000000000000906001600160a01b031683611cfc565b604080518415158152602081018490529081018290527f1ae950217358db2d7ba36e85e62f50f70697e390333aea8d481e5a8ce07aac3d9060600160405180910390a15050610cca611ce9565b90565b6060610cd7611a2f565b60005461010090046001600160a01b03163314610d075760405163973d02cb60e01b81526004016107c490612bd8565b60008054604080518381526020810191829052839261010090046001600160a01b0316918691610d3691612c11565b60006040518083038185875af1925050503d8060008114610d73576040519150601f19603f3d011682016040523d82523d6000602084013e610d78565b606091505b509150915081610dbd5760405163c50656df60e01b815260206004820152600f60248201526e151c985b9cd9995c8819985a5b1959608a1b60448201526064016107c4565b6040518481527fe831f0dced45aeff7574389019dd954371ec7d07c9040a20e1f4f562d0935f3a9060200160405180910390a1915050610dfb611ce9565b919050565b600080610e0d600161144e565b905060007f00000000000000000000000000000000000000000000000000000000000000006001600160a01b03166314f059796040518163ffffffff1660e01b81526004016040805180830381865afa158015610e6e573d6000803e3d6000fd5b505050506040513d601f19601f82011682018060405250810190610e929190612c2d565b90506001600160a01b037f000000000000000000000000000000000000000000000000000000000000000016637e42fc0c60016000610ed086611e04565b610edb90600a612d9f565b856040518563ffffffff1660e01b8152600401610efb9493929190612dd1565b602060405180830381865afa158015610f18573d6000803e3d6000fd5b505050506040513d601f19601f82011682018060405250810190610f3c9190612b6f565b9250505090565b6000610f4d611a2f565b6002546001600160a01b03163314610f785760405163973d02cb60e01b81526004016107c490612b33565b6000610f8383611edd565b9050610f8e81612229565b610fdb5760405163c50656df60e01b815260206004820152601a60248201527f4465706f73697420696e746f20636f6e766578206661696c656400000000000060448201526064016107c4565b9050610dfb611ce9565b6000610fef611a2f565b6002546001600160a01b0316331461101a5760405163973d02cb60e01b81526004016107c490612b33565b610fdb82612229565b60005461010090046001600160a01b031633146110535760405163973d02cb60e01b81526004016107c490612bd8565b600180546001600160a01b0319166001600160a01b0383169081179091556040519081527fa728e84b447788a55ff664fbfb5c3983925f88b80b672a1b0b8271c94b22df35906020015b60405180910390a150565b6002546001600160a01b031633146110d35760405163973d02cb60e01b81526004016107c490612b33565b61271081111561111e576040516354a1577760e11b8152602060048201526015602482015274536c697070616765206e6f7420696e2072616e676560581b60448201526064016107c4565b60068190556040518181527f0f75d64b7a2af497eeb31639b1ee2e88f49e0e58b1eaee9d225e8f2d8553c1779060200161109d565b60005461010090046001600160a01b031633146111835760405163973d02cb60e01b81526004016107c490612bd8565b600480546001600160a01b0319166001600160a01b0383169081179091556040519081527f59dea4585e1df1b7a22cafd3486f3c6080e7bd27c1450af2f11f192cb637658b9060200161109d565b6040516246613160e11b815230600482015260009081906001600160a01b037f00000000000000000000000000000000000000000000000000000000000000001690628cc26290602401602060405180830381865afa158015611238573d6000803e3d6000fd5b505050506040513d601f19601f8201168201806040525081019061125c9190612b6f565b9150611267826123bd565b90509091565b6000611277611a2f565b6002546001600160a01b031633146112a25760405163973d02cb60e01b81526004016107c490612b33565b6112ab8261263f565b6112f85760405163c50656df60e01b815260206004820152601b60248201527f57697468647261772066726f6d20636f6e766578206661696c6564000000000060448201526064016107c4565b610fdb60008361270e565b600061130d611a2f565b6002546001600160a01b031633146113385760405163973d02cb60e01b81526004016107c490612b33565b610fdb8261263f565b600061134b611a2f565b6002546001600160a01b031633146113765760405163973d02cb60e01b81526004016107c490612b33565b6107d7838361270e565b6040516370a0823160e01b81523060048201526000907f00000000000000000000000000000000000000000000000000000000000000006001600160a01b0316906370a0823190602401602060405180830381865afa1580156113e7573d6000803e3d6000fd5b505050506040513d601f19601f8201168201806040525081019061140b9190612b6f565b905090565b600061141a611a2f565b6002546001600160a01b031633146114455760405163973d02cb60e01b81526004016107c490612b33565b610fdb82611edd565b60008082600181111561146357611463612b59565b9050600281106114b6576040516354a1577760e11b815260206004820152601960248201527f417373657420696e646578206f7574206f6620626f756e64730000000000000060448201526064016107c4565b600781600281106114c9576114c9612e01565b01546001600160a01b03169392505050565b60608167ffffffffffffffff8111156114f6576114f6612bfb565b60405190808252806020026020018201604052801561152957816020015b60608152602001906001900390816115145790505b50905060005b8281101561162b576000803086868581811061154d5761154d612e01565b905060200281019061155f9190612e17565b60405161156d929190612e65565b600060405180830381855af49150503d80600081146115a8576040519150601f19603f3d011682016040523d82523d6000602084013e6115ad565b606091505b5091509150816115f8578585848181106115c9576115c9612e01565b90506020028101906115db9190612e17565b8260405163070c497560e21b81526004016107c493929190612e75565b8084848151811061160b5761160b612e01565b60200260200101819052505050808061162390612ebd565b91505061152f565b5092915050565b60005461010090046001600160a01b031633146116625760405163973d02cb60e01b81526004016107c490612bd8565b600280546001600160a01b0319166001600160a01b0383169081179091556040519081527fb3b3f5f64ab192e4b5fefde1f51ce9733bbdcf831951543b325aebd49cc27ec49060200161109d565b60006116ba611a2f565b6002546001600160a01b031633146116e55760405163973d02cb60e01b81526004016107c490612b33565b60006116f18484611aa4565b90506116fc81612229565b6107d75760405163c50656df60e01b815260206004820152601a60248201527f4465706f73697420696e746f20636f6e766578206661696c656400000000000060448201526064016107c4565b611751611a2f565b60005461010090046001600160a01b031633146117815760405163973d02cb60e01b81526004016107c490612bd8565b6005546040516370a0823160e01b81523060048201526000916001600160a01b0316906370a0823190602401602060405180830381865afa1580156117ca573d6000803e3d6000fd5b505050506040513d601f19601f820116820180604052508101906117ee9190612b6f565b905080821115611858576005546001600160a01b031663d0e30db06118138385612ed6565b6040518263ffffffff1660e01b81526004016000604051808303818588803b15801561183e57600080fd5b505af1158015611852573d6000803e3d6000fd5b50505050505b600554600454611875916001600160a01b03908116911684611cfc565b6004805460055460405163bc04f0af60e01b81526001600160a01b039182169381019390935260248301859052169063bc04f0af90604401600060405180830381600087803b1580156118c757600080fd5b505af11580156118db573d6000803e3d6000fd5b505050507fe5316a957dbd1c7d18b227e0f4bdfa8b21bcee31fb0e2b49ece74b1e4bd9dffa8260405161191091815260200190565b60405180910390a150611921611ce9565b50565b60005461010090046001600160a01b031633146119545760405163973d02cb60e01b81526004016107c490612bd8565b600380546001600160a01b0319166001600160a01b0383169081179091556040519081527f2bebe3801c306ffa893b76894d5baf1cef32807aa974f6449595a9c2392f61749060200161109d565b6119aa611a2f565b60005461010090046001600160a01b031633146119da5760405163973d02cb60e01b81526004016107c490612bd8565b6119e5823383611cfc565b604080516001600160a01b0384168152602081018390527ff4a44a7f605c4971a27bcecb448108e6328b7fad34fab5bff4f69377294b826d910160405180910390a161067e611ce9565b600160005460ff166002811115611a4857611a48612b59565b14611a8d5760405163c50656df60e01b8152602060048201526014602482015273131bd8dac8185b1c9958591e4818db185a5b595960621b60448201526064016107c4565b600080546002919060ff19166001835b0217905550565b6000611aae6128ec565b8281856001811115611ac257611ac2612b59565b60028110611ad257611ad2612e01565b602002015260065460009061271090611aeb9086612eed565b611af59190612f0c565b90506000856001811115611b0b57611b0b612b59565b14611b76576000611b1b8661144e565b9050611b49817f000000000000000000000000000000000000000000000000000000000000000060006128b9565b611b74817f0000000000000000000000000000000000000000000000000000000000000000876128b9565b505b600080866001811115611b8b57611b8b612b59565b14611b97576000611b9a565b82515b905047811115611c10576005546001600160a01b0316632e1a7d4d611bbf4784612ed6565b6040518263ffffffff1660e01b8152600401611bdd91815260200190565b600060405180830381600087803b158015611bf757600080fd5b505af1158015611c0b573d6000803e3d6000fd5b505050505b604051630b4c7e4d60e01b81526001600160a01b037f00000000000000000000000000000000000000000000000000000000000000001690630b4c7e4d908390611c609087908790600401612f2e565b60206040518083038185885af1158015611c7e573d6000803e3d6000fd5b50505050506040513d601f19601f82011682018060405250810190611ca39190612b6f565b93507f9138527697be6b50d0aa8fe0ccbba244d742c2477a875624affea814e5641373868686604051611cd893929190612f49565b60405180910390a150505092915050565b600080546001919060ff19168280611a9d565b6040516001600160a01b03838116602483015260448201839052600091829186169063a9059cbb60e01b906064015b60408051601f198184030181529181526020820180516001600160e01b03166001600160e01b0319909416939093179092529051611d699190612c11565b6000604051808303816000865af19150503d8060008114611da6576040519150601f19603f3d011682016040523d82523d6000602084013e611dab565b606091505b5091509150811580611dd95750805115801590611dd9575080806020019051810190611dd79190612bb6565b155b15611dfd5784828260405163e7e40b5b60e01b81526004016107c493929190612f7f565b5050505050565b60408051600481526024810182526020810180516001600160e01b031663313ce56760e01b1790529051600091829182916001600160a01b03861691611e4a9190612c11565b600060405180830381855afa9150503d8060008114611e85576040519150601f19603f3d011682016040523d82523d6000602084013e611e8a565b606091505b5091509150811580611e9d575060208151105b15611ec15783828260405163e7e40b5b60e01b81526004016107c493929190612f7f565b80806020019051810190611ed59190612fab565b949350505050565b604080518082019182905260009182919060079060029082845b81546001600160a01b03168152600190910190602001808311611ef757505050505090506000805b600281101561201957801561200757848160028110611f4057611f40612e01565b60200201351561200757848160028110611f5c57611f5c612e01565b602002013582611f6c9190612b9e565b9150611fb0838260028110611f8357611f83612e01565b60200201517f000000000000000000000000000000000000000000000000000000000000000060006128b9565b612007838260028110611fc557611fc5612e01565b60200201517f0000000000000000000000000000000000000000000000000000000000000000878460028110611ffd57611ffd612e01565b60200201356128b9565b8061201181612ebd565b915050611f1f565b5060007f00000000000000000000000000000000000000000000000000000000000000006001600160a01b031663bb7b8b806040518163ffffffff1660e01b8152600401602060405180830381865afa15801561207a573d6000803e3d6000fd5b505050506040513d601f19601f8201168201806040525081019061209e9190612b6f565b6120b0670de0b6b3a764000084612eed565b6120ba9190612f0c565b90506000612710600654836120cf9190612eed565b6120d99190612f0c565b9050853547811115612151576005546001600160a01b0316632e1a7d4d6121004784612ed6565b6040518263ffffffff1660e01b815260040161211e91815260200190565b600060405180830381600087803b15801561213857600080fd5b505af115801561214c573d6000803e3d6000fd5b505050505b604051630b4c7e4d60e01b81526001600160a01b037f00000000000000000000000000000000000000000000000000000000000000001690630b4c7e4d9083906121a1908b908790600401612fce565b60206040518083038185885af11580156121bf573d6000803e3d6000fd5b50505050506040513d601f19601f820116820180604052508101906121e49190612b6f565b95507fc79e3936a14778ee778877366c7adf10cec6101c4658b0850d7249e21ffcad248787604051612217929190612fce565b60405180910390a15050505050919050565b60006122777f00000000000000000000000000000000000000000000000000000000000000007f000000000000000000000000000000000000000000000000000000000000000060006128b9565b6122c27f00000000000000000000000000000000000000000000000000000000000000007f0000000000000000000000000000000000000000000000000000000000000000846128b9565b6040516321d0683360e11b81527f0000000000000000000000000000000000000000000000000000000000000000600482015260248101839052600160448201527f00000000000000000000000000000000000000000000000000000000000000006001600160a01b0316906343a0d066906064016020604051808303816000875af1158015612356573d6000803e3d6000fd5b505050506040513d601f19601f8201168201806040525081019061237a9190612bb6565b6040805184815282151560208201529192507f86a112658591e58b4c6b39b5f469b50e01ea594242685a09ca9c8c412c624cab91015b60405180910390a1919050565b6000807f00000000000000000000000000000000000000000000000000000000000000006001600160a01b03166318160ddd6040518163ffffffff1660e01b8152600401602060405180830381865afa15801561241e573d6000803e3d6000fd5b505050506040513d601f19601f820116820180604052508101906124429190612b6f565b905060007f00000000000000000000000000000000000000000000000000000000000000006001600160a01b031663aa74e6226040518163ffffffff1660e01b8152600401602060405180830381865afa1580156124a4573d6000803e3d6000fd5b505050506040513d601f19601f820116820180604052508101906124c89190612b6f565b6124d29083612f0c565b905060007f00000000000000000000000000000000000000000000000000000000000000006001600160a01b0316631f96e76f6040518163ffffffff1660e01b8152600401602060405180830381865afa158015612534573d6000803e3d6000fd5b505050506040513d601f19601f820116820180604052508101906125589190612b6f565b905080821061256c57506000949350505050565b60006125788383612ed6565b90506000826125878389612eed565b6125919190612f0c565b90506000857f00000000000000000000000000000000000000000000000000000000000000006001600160a01b031663d5abeb016040518163ffffffff1660e01b8152600401602060405180830381865afa1580156125f4573d6000803e3d6000fd5b505050506040513d601f19601f820116820180604052508101906126189190612b6f565b6126229190612ed6565b90508082116126315781612633565b805b98975050505050505050565b604051636197390160e11b815260048101829052600060248201819052907f00000000000000000000000000000000000000000000000000000000000000006001600160a01b03169063c32e7202906044016020604051808303816000875af11580156126b0573d6000803e3d6000fd5b505050506040513d601f19601f820116820180604052508101906126d49190612bb6565b6040805184815282151560208201529192507f658f65627d5cf077504ad9882cf96580212e284f1d4a183a14e75d66b7bf2a2f91016123b0565b60008083600181111561272357612723612b59565b90506000670de0b6b3a76400007f00000000000000000000000000000000000000000000000000000000000000006001600160a01b031663bb7b8b806040518163ffffffff1660e01b8152600401602060405180830381865afa15801561278e573d6000803e3d6000fd5b505050506040513d601f19601f820116820180604052508101906127b29190612b6f565b6127bc9086612eed565b6127c69190612f0c565b90506000612710600654836127db9190612eed565b6127e59190612f0c565b604051630d2680e960e11b815260048101879052600f85900b6024820152604481018290529091507f00000000000000000000000000000000000000000000000000000000000000006001600160a01b031690631a4d01d2906064016020604051808303816000875af1158015612860573d6000803e3d6000fd5b505050506040513d601f19601f820116820180604052508101906128849190612b6f565b93507f89864951db9c48e63fbcda0e6990fa874aa27dcfd1a0233d5b7f0191d8117dc6868686604051611cd893929190612f49565b6040516001600160a01b03838116602483015260448201839052600091829186169063095ea7b360e01b90606401611d2b565b60405180604001604052806002906020820280368337509192915050565b803560028110610dfb57600080fd5b6000806040838503121561292c57600080fd5b6129358361290a565b946020939093013593505050565b60006020828403121561295557600080fd5b6109c68261290a565b60006020828403121561297057600080fd5b5035919050565b60005b8381101561299257818101518382015260200161297a565b838111156129a1576000848401525b50505050565b600081518084526129bf816020860160208601612977565b601f01601f19169290920160200192915050565b6020815260006109c660208301846129a7565b6000604082840312156129f857600080fd5b82604083011115612a0857600080fd5b50919050565b80356001600160a01b0381168114610dfb57600080fd5b600060208284031215612a3757600080fd5b6109c682612a0e565b60008060208385031215612a5357600080fd5b823567ffffffffffffffff80821115612a6b57600080fd5b818501915085601f830112612a7f57600080fd5b813581811115612a8e57600080fd5b8660208260051b8501011115612aa357600080fd5b60209290920196919550909350505050565b6000602080830181845280855180835260408601915060408160051b870101925083870160005b82811015612b0a57603f19888603018452612af88583516129a7565b94509285019290850190600101612adc565b5092979650505050505050565b60008060408385031215612b2a57600080fd5b61293583612a0e565b6020808252600c908201526b2737ba1037b832b930ba37b960a11b604082015260600190565b634e487b7160e01b600052602160045260246000fd5b600060208284031215612b8157600080fd5b5051919050565b634e487b7160e01b600052601160045260246000fd5b60008219821115612bb157612bb1612b88565b500190565b600060208284031215612bc857600080fd5b815180151581146109c657600080fd5b6020808252600990820152682737ba1030b236b4b760b91b604082015260600190565b634e487b7160e01b600052604160045260246000fd5b60008251612c23818460208701612977565b9190910192915050565b600060408284031215612c3f57600080fd5b82601f830112612c4e57600080fd5b6040516040810181811067ffffffffffffffff82111715612c7f57634e487b7160e01b600052604160045260246000fd5b8060405250806040840185811115612c9657600080fd5b845b81811015612cb0578051835260209283019201612c98565b509195945050505050565b600181815b80851115612cf6578160001904821115612cdc57612cdc612b88565b80851615612ce957918102915b93841c9390800290612cc0565b509250929050565b600082612d0d575060016107e1565b81612d1a575060006107e1565b8160018114612d305760028114612d3a57612d56565b60019150506107e1565b60ff841115612d4b57612d4b612b88565b50506001821b6107e1565b5060208310610133831016604e8410600b8410161715612d79575081810a6107e1565b612d838383612cbb565b8060001904821115612d9757612d97612b88565b029392505050565b60006109c660ff841683612cfe565b8060005b60028110156129a1578151845260209384019390910190600101612db2565b600f85810b825284900b60208201526040810183905260a08101612df86060830184612dae565b95945050505050565b634e487b7160e01b600052603260045260246000fd5b6000808335601e19843603018112612e2e57600080fd5b83018035915067ffffffffffffffff821115612e4957600080fd5b602001915036819003821315612e5e57600080fd5b9250929050565b8183823760009101908152919050565b60408152826040820152828460608301376000606084830101526000601f19601f85011682016060838203016020840152612eb360608201856129a7565b9695505050505050565b600060018201612ecf57612ecf612b88565b5060010190565b600082821015612ee857612ee8612b88565b500390565b6000816000190483118215151615612f0757612f07612b88565b500290565b600082612f2957634e487b7160e01b600052601260045260246000fd5b500490565b60608101612f3c8285612dae565b8260408301529392505050565b6060810160028510612f6b57634e487b7160e01b600052602160045260246000fd5b938152602081019290925260409091015290565b6001600160a01b03841681528215156020820152606060408201819052600090612df8908301846129a7565b600060208284031215612fbd57600080fd5b815160ff811681146109c657600080fd5b606081016040848337826040830152939250505056fea2646970667358221220363dd5cf38fb0b955731e0f85c3e675f15d8fa24b6e53b15195d3c15850e4efe64736f6c634300080d0033",
    "linkReferences": {}
  }
}