{
  "abi": [
    {
      "inputs": [
        {
          "internalType": "string",
          "name": "reason",
          "type": "string"
        }
      ],
      "name": "IllegalArgument",
      "type": "error"
    },
    {
      "inputs": [
        {
          "internalType": "uint256",
          "name": "currentBalance",
          "type": "uint256"
        },
        {
          "internalType": "uint256",
          "name": "repayAmount",
          "type": "uint256"
        }
      ],
      "name": "InexactTokens",
      "type": "error"
    },
    {
      "inputs": [],
      "name": "MintFailure",
      "type": "error"
    },
    {
      "inputs": [
        {
          "internalType": "address",
          "name": "sender",
          "type": "address"
        }
      ],
      "name": "Unauthorized",
      "type": "error"
    },
    {
      "inputs": [
        {
          "internalType": "address",
          "name": "yieldToken",
          "type": "address"
        }
      ],
      "name": "UnsupportedYieldToken",
      "type": "error"
    },
    {
      "inputs": [
        {
          "internalType": "address",
          "name": "pool",
          "type": "address"
        },
        {
          "internalType": "int128",
          "name": "poolInputIndex",
          "type": "int128"
        },
        {
          "internalType": "int128",
          "name": "poolOutputIndex",
          "type": "int128"
        },
        {
          "internalType": "address",
          "name": "alchemist",
          "type": "address"
        },
        {
          "internalType": "address",
          "name": "yieldToken",
          "type": "address"
        },
        {
          "internalType": "uint256",
          "name": "collateralInitial",
          "type": "uint256"
        },
        {
          "internalType": "uint256",
          "name": "collateralTotal",
          "type": "uint256"
        },
        {
          "internalType": "uint256",
          "name": "targetDebt",
          "type": "uint256"
        }
      ],
      "name": "autoleverage",
      "outputs": [],
      "stateMutability": "payable",
      "type": "function"
    },
    {
      "inputs": [
        {
          "internalType": "address[]",
          "name": "assets",
          "type": "address[]"
        },
        {
          "internalType": "uint256[]",
          "name": "amounts",
          "type": "uint256[]"
        },
        {
          "internalType": "uint256[]",
          "name": "premiums",
          "type": "uint256[]"
        },
        {
          "internalType": "address",
          "name": "initiator",
          "type": "address"
        },
        {
          "internalType": "bytes",
          "name": "params",
          "type": "bytes"
        }
      ],
      "name": "executeOperation",
      "outputs": [
        {
          "internalType": "bool",
          "name": "",
          "type": "bool"
        }
      ],
      "stateMutability": "nonpayable",
      "type": "function"
    }
  ],
  "bytecode": {
    "object": "0x608060405234801561001057600080fd5b5061116f806100206000396000f3fe6080604052600436106100295760003560e01c8063920f5c841461002e578063e5fdddf914610062575b600080fd5b34801561003a57600080fd5b5061004e610049366004610b89565b610077565b604051901515815260200160405180910390f35b610075610070366004610ca5565b610594565b005b600033737d2768de32b0b80b7a3454c06bdac94a69ddc7a9146100b45760405163472511eb60e11b81523360048201526024015b60405180910390fd5b6001600160a01b038416301461010d576040516354a1577760e11b815260206004820181905260248201527f666c6173686c6f616e20696e69746961746f72206d7573742062652073656c6660448201526064016100ab565b600061011b83850185610d63565b905060008787600081811061013257610132610e24565b905060200201358a8a600081811061014c5761014c610e24565b9050602002013561015d9190610e50565b905060008c8c600081811061017457610174610e24565b90506020020160208101906101899190610e68565b6040516370a0823160e01b81523060048201526001600160a01b0391909116906370a0823190602401602060405180830381865afa1580156101cf573d6000803e3d6000fd5b505050506040513d601f19601f820116820180604052508101906101f39190610e8c565b905061022a8d8d600081811061020b5761020b610e24565b90506020020160208101906102209190610e68565b8460600151610923565b6060830151608084015160a0850151604051635efd4dd760e11b81526001600160a01b0392831660048201526024810185905290821660448201526000606482015291169063bdfa9bae906084016020604051808303816000875af1158015610297573d6000803e3d6000fd5b505050506040513d601f19601f820116820180604052508101906102bb9190610e8c565b50606083015160a084015160c085015160405163288225c760e11b81526001600160a01b03928316600482015260248101919091523060448201529116906351044b8e90606401600060405180830381600087803b15801561031c57600080fd5b505af192505050801561032d575060015b61034a57604051632f5d44a960e01b815260040160405180910390fd5b600083606001516001600160a01b031663f8d898986040518163ffffffff1660e01b8152600401602060405180830381865afa15801561038e573d6000803e3d6000fd5b505050506040513d601f19601f820116820180604052508101906103b29190610eb0565b905060006103cf856000015183876020015188604001518861099d565b905060006103dd8583610ecd565b90508015610478576060860151608087015160a0880151604051635efd4dd760e11b81526001600160a01b0392831660048201526024810185905290821660448201526000606482015291169063bdfa9bae906084016020604051808303816000875af1158015610452573d6000803e3d6000fd5b505050506040513d601f19601f820116820180604052508101906104769190610e8c565b505b5050506104c08d8d600081811061049157610491610e24565b90506020020160208101906104a69190610e68565b737d2768de32b0b80b7a3454c06bdac94a69ddc7a9610923565b60008d8d60008181106104d5576104d5610e24565b90506020020160208101906104ea9190610e68565b6040516370a0823160e01b81523060048201526001600160a01b0391909116906370a0823190602401602060405180830381865afa158015610530573d6000803e3d6000fd5b505050506040513d601f19601f820116820180604052508101906105549190610e8c565b905082811461058057604051631c0b5bb560e01b815260048101829052602481018490526044016100ab565b5060019d9c50505050505050505050505050565b323314806106105750604051633af32abf60e01b815233600482015273a3dfccbad1333dc69997da28c961ff8b2879e65390633af32abf90602401602060405180830381865afa1580156105ec573d6000803e3d6000fd5b505050506040513d601f19601f820116820180604052508101906106109190610ef4565b61062f5760405163472511eb60e11b81523360048201526024016100ab565b604051635a5efc8b60e01b81526001600160a01b03858116600483015260009190871690635a5efc8b906024016101e060405180830381865afa15801561067a573d6000803e3d6000fd5b505050506040513d601f19601f8201168201806040525081019061069e9190610f20565b6020015190506001600160a01b0381166106d657604051630f391d7560e31b81526001600160a01b03861660048201526024016100ab565b6106e08185610aa8565b60408051600180825281830190925260009160208083019080368337019050509050818160008151811061071657610716610e24565b6001600160a01b03929092166020928302919091019091015260408051600180825281830190925260009181602001602082028036833701905050905061075d8686610ecd565b8160008151811061077057610770610e24565b60209081029190910101526040805160018082528183019092526000918160200160208202803683370190505090506000816000815181106107b4576107b4610e24565b60200260200101818152505060006040518060e001604052808e6001600160a01b031681526020018d600f0b81526020018c600f0b81526020018b6001600160a01b031681526020018a6001600160a01b03168152602001336001600160a01b031681526020018781525060405160200161088e9190600060e08201905060018060a01b038084511683526020840151600f0b60208401526040840151600f0b60408401528060608501511660608401528060808501511660808401528060a08501511660a08401525060c083015160c083015292915050565b60408051601f198184030181529082905263ab9c4b5d60e01b82529150737d2768de32b0b80b7a3454c06bdac94a69ddc7a99063ab9c4b5d906108e29030908890889088906000908990829060040161107d565b600060405180830381600087803b1580156108fc57600080fd5b505af1158015610910573d6000803e3d6000fd5b5050505050505050505050505050505050565b60405163095ea7b360e01b81526001600160a01b038281166004830152600019602483015283169063095ea7b3906044015b6020604051808303816000875af1158015610974573d6000803e3d6000fd5b505050506040513d601f19601f820116820180604052508101906109989190610ef4565b505050565b6040516370a0823160e01b815230600482015260009081906001600160a01b038716906370a0823190602401602060405180830381865afa1580156109e6573d6000803e3d6000fd5b505050506040513d601f19601f82011682018060405250810190610a0a9190610e8c565b9050610a168688610923565b604051635320bf6b60e11b8152600f86810b600483015285900b602482015260448101829052606481018490526001600160a01b0388169063a6417ed6906084016020604051808303816000875af1158015610a76573d6000803e3d6000fd5b505050506040513d601f19601f82011682018060405250810190610a9a9190610e8c565b979650505050505050565b50565b3415610aef576040516354a1577760e11b815260206004820152601560248201527406d73672e76616c75652073686f756c64206265203605c1b60448201526064016100ab565b6040516323b872dd60e01b8152336004820152306024820152604481018290526001600160a01b038316906323b872dd90606401610955565b60008083601f840112610b3a57600080fd5b50813567ffffffffffffffff811115610b5257600080fd5b6020830191508360208260051b8501011115610b6d57600080fd5b9250929050565b6001600160a01b0381168114610aa557600080fd5b600080600080600080600080600060a08a8c031215610ba757600080fd5b893567ffffffffffffffff80821115610bbf57600080fd5b610bcb8d838e01610b28565b909b50995060208c0135915080821115610be457600080fd5b610bf08d838e01610b28565b909950975060408c0135915080821115610c0957600080fd5b610c158d838e01610b28565b909750955060608c01359150610c2a82610b74565b90935060808b01359080821115610c4057600080fd5b818c0191508c601f830112610c5457600080fd5b813581811115610c6357600080fd5b8d6020828501011115610c7557600080fd5b6020830194508093505050509295985092959850929598565b8035600f81900b8114610ca057600080fd5b919050565b600080600080600080600080610100898b031215610cc257600080fd5b8835610ccd81610b74565b9750610cdb60208a01610c8e565b9650610ce960408a01610c8e565b95506060890135610cf981610b74565b94506080890135610d0981610b74565b979a969950949793969560a0850135955060c08501359460e001359350915050565b6040516101e0810167ffffffffffffffff81118282101715610d5d57634e487b7160e01b600052604160045260246000fd5b60405290565b600060e08284031215610d7557600080fd5b60405160e0810181811067ffffffffffffffff82111715610da657634e487b7160e01b600052604160045260246000fd5b6040528235610db481610b74565b8152610dc260208401610c8e565b6020820152610dd360408401610c8e565b60408201526060830135610de681610b74565b60608201526080830135610df981610b74565b608082015260a0830135610e0c81610b74565b60a082015260c0928301359281019290925250919050565b634e487b7160e01b600052603260045260246000fd5b634e487b7160e01b600052601160045260246000fd5b60008219821115610e6357610e63610e3a565b500190565b600060208284031215610e7a57600080fd5b8135610e8581610b74565b9392505050565b600060208284031215610e9e57600080fd5b5051919050565b8051610ca081610b74565b600060208284031215610ec257600080fd5b8151610e8581610b74565b600082821015610edf57610edf610e3a565b500390565b80518015158114610ca057600080fd5b600060208284031215610f0657600080fd5b610e8582610ee4565b805160ff81168114610ca057600080fd5b60006101e08284031215610f3357600080fd5b610f3b610d2b565b610f4483610f0f565b8152610f5260208401610ea5565b6020820152610f6360408401610ea5565b6040820152606083810151908201526080808401519082015260a0808401519082015260c0808401519082015260e08084015190820152610100808401519082015261012080840151908201526101408084015190820152610160808401519082015261018080840151908201526101a080840151908201526101c0610fea818501610ee4565b908201529392505050565b600081518084526020808501945080840160005b8381101561102557815187529582019590820190600101611009565b509495945050505050565b6000815180845260005b818110156110565760208185018101518683018201520161103a565b81811115611068576000602083870101525b50601f01601f19169290920160200192915050565b6001600160a01b03888116825260e0602080840182905289519184018290526000928a820192909190610100860190855b818110156110cc5785518516835294830194918301916001016110ae565b505085810360408701526110e0818c610ff5565b935050505082810360608401526110f78188610ff5565b6001600160a01b0387166080850152905082810360a084015261111a8186611030565b91505061112d60c083018461ffff169052565b9897505050505050505056fea26469706673582212203fedeaf0e7b203b6bb6359d0b7679e8027158e27f55103b780017c25b231a9a964736f6c634300080d0033",
    "linkReferences": {}
  }
}