{
  "abi": [
    {
      "inputs": [
        {
          "internalType": "address",
          "name": "_token",
          "type": "address"
        },
        {
          "internalType": "address",
          "name": "_source",
          "type": "address"
        },
        {
          "internalType": "address",
          "name": "_sink",
          "type": "address"
        }
      ],
      "stateMutability": "nonpayable",
      "type": "constructor"
    },
    {
      "inputs": [
        {
          "internalType": "string",
          "name": "message",
          "type": "string"
        }
      ],
      "name": "Unauthorized",
      "type": "error"
    },
    {
      "inputs": [
        {
          "internalType": "address",
          "name": "origin",
          "type": "address"
        },
        {
          "internalType": "uint256",
          "name": "amount",
          "type": "uint256"
        }
      ],
      "name": "distribute",
      "outputs": [],
      "stateMutability": "nonpayable",
      "type": "function"
    },
    {
      "inputs": [],
      "name": "sinkTransmuter",
      "outputs": [
        {
          "internalType": "address",
          "name": "",
          "type": "address"
        }
      ],
      "stateMutability": "view",
      "type": "function"
    },
    {
      "inputs": [],
      "name": "sourceTransmuter",
      "outputs": [
        {
          "internalType": "address",
          "name": "",
          "type": "address"
        }
      ],
      "stateMutability": "view",
      "type": "function"
    },
    {
      "inputs": [],
      "name": "token",
      "outputs": [
        {
          "internalType": "address",
          "name": "",
          "type": "address"
        }
      ],
      "stateMutability": "view",
      "type": "function"
    }
  ],
  "bytecode": {
    "object": "0x608060405234801561001057600080fd5b5060405161063e38038061063e83398101604081905261002f9161008d565b600080546001600160a01b039485166001600160a01b0319918216179091556001805493851693821693909317909255600280549190931691161790556100d0565b80516001600160a01b038116811461008857600080fd5b919050565b6000806000606084860312156100a257600080fd5b6100ab84610071565b92506100b960208501610071565b91506100c760408501610071565b90509250925092565b61055f806100df6000396000f3fe608060405234801561001057600080fd5b506004361061004c5760003560e01c80637a50df68146100515780639f047a9e14610080578063fb93210814610093578063fc0c546a146100a8575b600080fd5b600154610064906001600160a01b031681565b6040516001600160a01b03909116815260200160405180910390f35b600254610064906001600160a01b031681565b6100a66100a1366004610454565b6100bb565b005b600054610064906001600160a01b031681565b6001546001600160a01b0316331461010f5760405163973d02cb60e01b8152602060048201526011602482015270151c985b9cdb5d5d195c90dbdb991d5a5d607a1b60448201526064015b60405180910390fd5b60025460005461012e916001600160a01b03918216918591168461019a565b60025460005460405163bc04f0af60e01b81526001600160a01b0391821660048201526024810184905291169063bc04f0af90604401600060405180830381600087803b15801561017e57600080fd5b505af1158015610192573d6000803e3d6000fd5b505050505050565b604080516001600160a01b0385811660248301528416604482015260648082018490528251808303909101815260849091019091526020810180516001600160e01b03166323b872dd60e01b1790526101f49085906101fa565b50505050565b600061024f826040518060400160405280602081526020017f5361666545524332303a206c6f772d6c6576656c2063616c6c206661696c6564815250856001600160a01b03166102d19092919063ffffffff16565b8051909150156102cc578080602001905181019061026d919061048c565b6102cc5760405162461bcd60e51b815260206004820152602a60248201527f5361666545524332303a204552433230206f7065726174696f6e20646964206e6044820152691bdd081cdd58d8d9595960b21b6064820152608401610106565b505050565b60606102e084846000856102ea565b90505b9392505050565b60608247101561034b5760405162461bcd60e51b815260206004820152602660248201527f416464726573733a20696e73756666696369656e742062616c616e636520666f6044820152651c8818d85b1b60d21b6064820152608401610106565b6001600160a01b0385163b6103a25760405162461bcd60e51b815260206004820152601d60248201527f416464726573733a2063616c6c20746f206e6f6e2d636f6e74726163740000006044820152606401610106565b600080866001600160a01b031685876040516103be91906104da565b60006040518083038185875af1925050503d80600081146103fb576040519150601f19603f3d011682016040523d82523d6000602084013e610400565b606091505b509150915061041082828661041b565b979650505050505050565b6060831561042a5750816102e3565b82511561043a5782518084602001fd5b8160405162461bcd60e51b815260040161010691906104f6565b6000806040838503121561046757600080fd5b82356001600160a01b038116811461047e57600080fd5b946020939093013593505050565b60006020828403121561049e57600080fd5b815180151581146102e357600080fd5b60005b838110156104c95781810151838201526020016104b1565b838111156101f45750506000910152565b600082516104ec8184602087016104ae565b9190910192915050565b60208152600082518060208401526105158160408501602087016104ae565b601f01601f1916919091016040019291505056fea264697066735822122065ab6aaaf924e4fb09feea246b23ea564f031e04b301634f033dc7716d5a653564736f6c634300080d0033",
    "linkReferences": {}
  }
}