{
  "abi": [
    {
      "inputs": [
        {
          "internalType": "contract IERC20",
          "name": "_token",
          "type": "address"
        }
      ],
      "stateMutability": "nonpayable",
      "type": "constructor"
    },
    {
      "inputs": [
        {
          "internalType": "address",
          "name": "spender",
          "type": "address"
        },
        {
          "internalType": "uint256",
          "name": "amount",
          "type": "uint256"
        }
      ],
      "name": "approve",
      "outputs": [
        {
          "internalType": "bool",
          "name": "",
          "type": "bool"
        }
      ],
      "stateMutability": "nonpayable",
      "type": "function"
    },
    {
      "inputs": [
        {
          "internalType": "address",
          "name": "receiver",
          "type": "address"
        },
        {
          "internalType": "uint256",
          "name": "amount",
          "type": "uint256"
        }
      ],
      "name": "transfer",
      "outputs": [
        {
          "internalType": "bool",
          "name": "",
          "type": "bool"
        }
      ],
      "stateMutability": "nonpayable",
      "type": "function"
    },
    {
      "inputs": [
        {
          "internalType": "address",
          "name": "owner",
          "type": "address"
        },
        {
          "internalType": "address",
          "name": "receiver",
          "type": "address"
        },
        {
          "internalType": "uint256",
          "name": "amount",
          "type": "uint256"
        }
      ],
      "name": "transferFrom",
      "outputs": [
        {
          "internalType": "bool",
          "name": "",
          "type": "bool"
        }
      ],
      "stateMutability": "nonpayable",
      "type": "function"
    }
  ],
  "bytecode": {
    "object": "0x608060405234801561001057600080fd5b5060405161034238038061034283398101604081905261002f91610054565b600080546001600160a01b0319166001600160a01b0392909216919091179055610084565b60006020828403121561006657600080fd5b81516001600160a01b038116811461007d57600080fd5b9392505050565b6102af806100936000396000f3fe608060405234801561001057600080fd5b50600436106100415760003560e01c8063095ea7b31461004657806323b872dd1461006d578063a9059cbb14610080575b600080fd5b6100596100543660046101f1565b610093565b604051901515815260200160405180910390f35b61005961007b36600461021b565b610113565b61005961008e3660046101f1565b61019b565b6000805460405163095ea7b360e01b81526001600160a01b038581166004830152602482018590529091169063095ea7b3906044015b6020604051808303816000875af11580156100e8573d6000803e3d6000fd5b505050506040513d601f19601f8201168201806040525081019061010c9190610257565b9392505050565b600080546040516323b872dd60e01b81526001600160a01b038681166004830152858116602483015260448201859052909116906323b872dd906064016020604051808303816000875af115801561016f573d6000803e3d6000fd5b505050506040513d601f19601f820116820180604052508101906101939190610257565b949350505050565b6000805460405163a9059cbb60e01b81526001600160a01b038581166004830152602482018590529091169063a9059cbb906044016100c9565b80356001600160a01b03811681146101ec57600080fd5b919050565b6000806040838503121561020457600080fd5b61020d836101d5565b946020939093013593505050565b60008060006060848603121561023057600080fd5b610239846101d5565b9250610247602085016101d5565b9150604084013590509250925092565b60006020828403121561026957600080fd5b8151801515811461010c57600080fdfea2646970667358221220b9421102ef8f734cc496eeeb7a7cb1dcf0d849c882654b6437d4dc68ed0ee92364736f6c634300080d0033",
    "linkReferences": {}
  }
}